:100000000C94530B0C947A0B0C947A0B0C947A0B83
:100010000C947A0B0C947A0B0C947A0B0C947A0B4C
:100020000C947A0B0C947A0B0C947A0B0C947A0B3C
:100030000C947A0B0C947A0B0C947A0B0C947A0B2C
:100040000C94FF0D0C947A0B0C947A0B0C947A0B95
:100050000C947A0B0C947A0B0C947A0B0C947A0B0C
:100060000C943E1C0C947A0BFFE0FFD1AFFF32FFE3
:10007000D0FFFEFFE0FFD1AEFFD0FFFEFFE0FFD1DB
:100080001000FFFEFFD0FFE0FFC1FFD1AED580A87A
:100090003FD300408D142000A1C8DA1281CFD9F1DE
:1000A000DB402EA4A6AFFFD0FFFE00000008000238
:1000B000010000030407000000000000000001022E
:1000C00004081020408001020408102001020408E6
:1000D00010200404040404040404020202020202C4
:1000E00003030303030300000000250028002B0086
:1000F00000101000FE0A06A7089500FFFE0EFE0B7A
:10010000FE1010201000FEAAAA000180000001804D
:10011000004A51EA505A51C99E00018000000180F6
:10012000000001800055551010201000FEAAAA0002
:10013000018000000180003993C252325F8A5271FF
:1001400093800000018000000180005555101020B0
:100150001000FEAAAA00018000000180003BA5C19A
:10016000243119892471258000000180000001805C
:100170000055551010201000FEAAAA0001800000B2
:100180000180007BA5C1247919C124792580000054
:100190000180000001800055551010201000FEAABB
:1001A000AA000180000001800079BFC2487A49C2DC
:1001B00048798980000001800000018000555510B9
:1001C00010201000FEAAAA00018000000180007A21
:1001D0004DC2527B53C2D67A4F800000018000008E
:1001E00001800055551010201000FEAAAA000180C1
:1001F000000001800031A5CA287A31CA2849A580AB
:1002000000000180000001800055551010201000F2
:10021000FEAAAA000180000001800073D1CA1073F9
:10022000D1CA1073DF8000000180000001800055FA
:10023000551010201000FEAAAA00018000000180C5
:10024000001E3991401E3191081E7180000001800E
:10025000000001800055551010201000FEAAAA00D1
:100260000180000001800022F9A2203E21A220226C
:1002700021800000018000000180005555101020F1
:100280001000FEAAAA000180000001800020F9A051
:100290008020F9A0803E8180000001800000018064
:1002A0000055551010201000FEAAAA000180000081
:1002B00001800022F9A22022219420082180000040
:1002C0000180000001800055551010201000FEAA8A
:1002D000AA00018000000180003EF9A0803EF9A044
:1002E00080208180000001800000018000555510B1
:1002F00010201000FEAAAA00018000000180001E4C
:10030000F1A08820F1A0901E8980000001800000EB
:1003100001800055551010201000FEAAAA0001808F
:1003200000000180001E71A0881C8982883C7180B9
:1003300000000180000001800055551010201000C1
:10034000FEAAAA00018000000180001EF9A0201C66
:100350002182203CF98000000180000001800055CE
:10036000551010201000FEAAAA0001800000018094
:1003700000391DA510251DA51039DD800000018064
:10038000000001800055551010201000FEAAAA00A0
:10039000018000000180007189CA184A09CA0871E9
:1003A0009D80000001800000018000555510102044
:1003B0001000FEAAAA00018000000180007199CA05
:1003C000044A09CA10719D8000000180000001806C
:1003D0000055551010201000FEAAAA000180000050
:1003E0000180007199CA044A19CA047199800000F9
:1003F0000180000001800055551010201000FEAA59
:10040000AA00018000000180007185CA0C4A15CA4B
:100410001C7185800000018000000180005555108E
:1004200010201000FEAAAA000180000001800049EF
:1004300093EA546A59DBD44A5380000001800000DB
:1004400001800055551010201000FEAAAA0001805E
:1004500000000180003453C29A3117891271138051
:100460000000018000000180005555101020100090
:10047000FEAAAA00018000000180007BB9C1247996
:1004800039C12479398000000180000001800055C5
:10049000551010201000FEAAAA0001800000018063
:1004A000003325C4B447ADC4A434A5800000018046
:1004B000000001800055551010201000FEAAAA006F
:1004C000018000000180003E89A0D83EA9A0883E9E
:1004D0008980000001800000018000555510102027
:1004E0001000FEAAAA00018000000180003A5DC24F
:1004F00052325D8A52719D800000018000000180AF
:100500000055551010201000FEAAAA00018000001E
:1005100001800079CFC2107991C0507B8F8000009C
:100520000180000001800055551010201000FEAA27
:10053000AA00018000000180001E7190801E619061
:100540001010E1800000018000000180005555106E
:1005500010201000FEAAAA00018000000180000EF9
:10056000719080166192100EE18000000180000001
:1005700001800055551010201000FEAAAA0001802D
:1005800000000180001C7192801C61941012E180B7
:10059000000001800000018000555510102010005F
:1005A000FEAAAA0001800000018000127192801250
:1005B0006192100CE1800000018000000180005574
:1005C0005500000008000E010A0A0804008080801F
:1005D0008080808000808005040408020888888864
:1005E00088060A0A080100242424FC4848FC90904C
:1005F00090070A0A080100107C9290701C12927CED
:1006000010070A0A0801006294946810102C5252D4
:100610008C070A0A0801003844442830528A848C26
:100620007201040408040880808080030C0C080315
:10063000FF204040808080808080404020030C0C60
:100640000802FF80404020202020202040408007DA
:100650000707080101109254385492100707070841
:100660000101101010FE1010100204040803FEC057
:10067000404080040101080204F002020208030065
:10068000C0C0060A0A080100040408101020204017
:100690008080060A0A0801003048848484848484A7
:1006A0004830050A0A0802002060A02020202020EF
:1006B00020F8060A0A080100788484041820408083
:1006C00080FC060A0A080100788484043804048443
:1006D0008478060A0A080100081828488888FC0857
:1006E0000808060A0A080100FC808080F804040457
:1006F0008478060A0A08010038408080F8848484DF
:100700008478060A0A080100FC040408080810108E
:100710001010060A0A08010078848484788484848E
:100720008478060A0A080100788484847C0404041E
:100730000870020707080301C0C0000000C0C00223
:1007400009090803FFC0C0000000C040408005093F
:100750000908020008102040804020100806050506
:10076000080102FC000000FC0509090801008040A6
:1007700020100810204080060A0A080100788484AE
:1007800004081010001010060A0A080100384494EA
:10079000ACA4A4A49C403C060A0A080100304848C6
:1007A0008484FC84848484060A0A080100F8848412
:1007B00084F884848484F8060A0A08010078848412
:1007C00080808080848478060A0A080100F088848A
:1007D000848484848488F0060A0A080100FC8080EE
:1007E00080F880808080FC060A0A080100FC808076
:1007F00080F88080808080060A0A0801007884845E
:1008000080809C84848C74060A0A08010084848495
:1008100084FC8484848484050A0A080200F8202069
:10082000202020202020F8070A0A0801003E08089E
:1008300008080808888870060A0A08010084889059
:10084000A0C0C0A0908884060A0A080100808080A9
:10085000808080808080FC060A0A0801008484CCA5
:10086000CCB4B484848484060A0A08010084C4C415
:10087000A4A494948C8C84060A0A080100788484C9
:1008800084848484848478060A0A080100F88484B5
:1008900084F88080808080070B0B0801FF788484B7
:1008A00084848484B4CC7806060A0A080100F8849B
:1008B0008484F89088888484060A0A080100788471
:1008C0008480601804848478070A0A080100FE10F6
:1008D0001010101010101010060A0A08010084846D
:1008E0008484848484848478070A0A0801008282CC
:1008F0008244444428281010060A0A08010084840F
:100900008484B4B4CCCC8484060A0A0801008484AC
:100910004848303048488484070A0A080100828227
:100920004444281010101010060A0A080100FC04A4
:1009300004081020408080FC030C0C0804FFE080B9
:10094000808080808080808080E0060A0A08010024
:1009500080804020201010080404030C0C0801FFC4
:10096000E020202020202020202020E00603030873
:1009700001093048840701010801FFFE0303030851
:10098000020A8040200608080801007884047C845C
:10099000848C74060B0B080100808080B8C48484AA
:1009A0008484C4B8060808080100788480808080A8
:1009B0008478060B0B080100040404748C8484847E
:1009C000848C74060808080100788484FC80808484
:1009D00078050B0B08010018202020F8202020208B
:1009E0002020060B0B0801FE04748888887040786C
:1009F000848478060B0B080100808080B8C484844E
:100A000084848484050B0B080200202000602020D1
:100A100020202020F8050D0D0801FE080800180808
:100A20000808080808089060060B0B080100808081
:100A3000808890A0C0A0908884050B0B08020060FD
:100A4000202020202020202020F80708080801006E
:100A5000EC92929292929292060808080100B8C411
:100A6000848484848484060808080100788484844B
:100A700084848478060A0A0801FEB8C484848484C5
:100A8000C4B88080060A0A0801FE748C84848484B9
:100A90008C740404060808080100B8C484808080AF
:100AA0008080060808080100788480601804847833
:100AB000050A0A080100202020F820202020201804
:100AC0000608080801008484848484848C740608E1
:100AD0000808010084848448484830300708080822
:100AE0000100829292929292926C0608080801008C
:100AF0008484483030488484060A0A0801FE8484CD
:100B00008484844C34040478060808080100FC043A
:100B10000810204080FC030C0C0803FF608080401C
:100B20004080804040808060010E0E0804FE80807E
:100B3000808080808080808080808080030C0C0892
:100B400002FFC020204040202040402020C007035A
:100B50000308010862928C1010201000FEAAAA005F
:100B60000180000001800073D1CA104BD1CA1073FC
:100B7000DF8000000180000001800055551010202A
:100B80001000FEAAAA0001800000018000719DCA29
:100B90005273D3C252425D80000001800000018088
:100BA0000055551010201000FEAAAA000180000078
:100BB000018000499DCA527A5DCA50499180000067
:100BC0000180000001800055551010201000FEAA81
:100BD000AA00018000000180007393CA52739FCA6B
:100BE0001272138000000180000001800055551032
:100BF00010201000FEAAAA00018000000180004B16
:100C000093EA525B9FCA524B938000000180000020
:100C100001800055551010201000FEAAAA00018086
:100C2000000001800074B9A6A425A5A4A474B9800D
:100C300000000180000001800055551010201000B8
:100C4000FEAAAA00018000000180004BD1EA105BDF
:100C5000D1CA104BDF8000000180000001800055E8
:100C6000551010201000FEAAAA000180000001808B
:100C70000039CDC212319F885273938000000180E9
:100C8000000001800055551010201000FEAAAA0097
:100C90000180000001800079CDC212799FC0527B93
:100CA0009380000001800000018000555510102045
:100CB0001000FEAAAA00018000000180004B9DC91F
:100CC000207919C9044939800000018000000180A1
:100CD0000055551010201000FEAAAA000180000047
:100CE00001800025DDA4843C85A484249980000033
:100CF0000180000001800055551010201000FEAA50
:100D0000AA000180000001800045CDC4904489A85C
:100D1000841099800000018000000180005555106A
:100D200010201000FEAAAA000180000001800072BD
:100D30001DCA127213C21243DD8000000180000040
:100D400001800055551010201000FEAAAA00018055
:100D500000000180007213CA127213C21243CD80C8
:100D60000000018000000180005555101020100087
:100D7000FEAAAA00018000000180000E2189200E39
:100D8000218A200921800000018000000180005597
:100D9000551010201000FEAAAA000180000001805A
:100DA0000039DDC202318D8850739F8000000180C0
:100DB000000001800055551010201000FEAAAA0066
:100DC0000180000001800039DDC202318D8842734C
:100DD0009D8000000180000001800055551010200A
:100DE0001000FEAAAA000180000001800071CFCA95
:100DF000104A0DCA0271DD800000018000000180F0
:100E00000055551010201000FEAAAA000180000015
:100E10000180007245CA4C7245C244418F80000077
:100E20000180000001800055551010201000FEAA1E
:100E3000AA0001800000018000725DCA42724DC2AA
:100E400050419F8000000180000001800055551036
:100E500010201000FEAAAA00018000000180003BC3
:100E60009DC1203119890471398000000180000082
:100E700001800055551010201000FEAAAA00018024
:100E8000000001800039D3C212421FC21239D38040
:100E90000000018000000180005555101020100056
:100EA000FEAAAA00018000000180002289B6882ADB
:100EB000A9A2D8228980000001800000018000558D
:100EC000551010201000FEAAAA0001800000018029
:100ED000003B8DC252339F8A127213800000018042
:100EE000000001800055551010201000FEAAAA0035
:100EF000018000000180007B8DC2527B9FC2127A6C
:100F00001380000001800000018000555510102062
:100F10001000FEAAAA0001800000018000398FC2E3
:100F200050324D8A42719D80000001800000018096
:100F30000055551010201000FEAAAA0001800000E4
:100F4000018000339BC42225A394A2639B800000F0
:100F50000180000001800055551010201000FEAAED
:100F6000AA000180000001800039DDC20832098A30
:100F70000871DD80000001800000018000555510DF
:100F800010201000FEAAAA00018000000180003994
:100F9000DDC2084189C0483B9D80000001800000FF
:100FA00001800055551010201000FEAAAA000180F3
:100FB00000000180000EF990200C2182201C21806D
:100FC0000000018000000180005555101020100025
:100FD000FEAAAA000180000001800031CFCA10499A
:100FE00091C850338F8000000180000001800055BF
:100FF000551010201000FEAAAA00018000000180F8
:10100000001C8992D81CA99088108980000001805A
:10101000000001800055551010201000FEAAAA0003
:1010200001800000018000338FCA507B91CA104AB2
:101030000F80000001800000018000555500000075
:1010400008000E010A0A0804008080008080808069
:10105000808080070A0A08010010107C929090920C
:101060007C1010070A0A0801001C202020F820200C
:10107000207CC2060808080101844878484878485E
:1010800084070A0A08010082442810FE10FE10108E
:1010900010010A0A0804008080808000008080809F
:1010A00080060A0A080100788480788484780484A1
:1010B0007804020208020C9090080A0A0800003C1A
:1010C0004299A5A1A1A599423C0507070802057010
:1010D0000878887800F8060909080100242448489F
:1010E0009048482424060404080100FC0404041069
:1010F00010201000FEAAAA000180003A63C25433F7
:10110000C98A48724980000001800003C180000044
:101110000180005555080A0A0800003C42B9A5A5FF
:10112000B9A9A5423C06010108010BFC030404080F
:10113000020A40A0A040070909080101101010FE92
:1011400010101000FE05070708020570880870805F
:1011500080F8050707080205708808700888700382
:10116000030308030A204080080A0A0800FE4242DE
:101170004242424266594080060C0C0801FF7CF452
:10118000F4F4F47414141414141C0202020803047A
:10119000C0C00302020802FE20C0030707080205C0
:1011A0002060A020202020050707080205708888FD
:1011B000887000F806090908010090904848244802
:1011C000489090060A0A08010044C4485050242C54
:1011D000549C84060A0A08010044C448505028342C
:1011E00044889C060A0A080100C4244830D0242CF4
:1011F000549C84060A0A0801001010001010608434
:10120000848478060E0E08010060180000304848FB
:101210008484FC84848484060E0E08010018600017
:10122000003048488484FC84848484060E0E0801BF
:1012300000304800003048488484FC84848484065C
:101240000E0E080100649800003048488484FC8435
:10125000848484060E0E0801004848000030484887
:101260008484FC84848484060E0E08010030483097
:10127000003048488484FC84848484070A0A080176
:10128000003E509090FE909090909E060C0C0801AD
:10129000FE788484808080808484781060060E0EBE
:1012A00008010060180000FC808080F88080808049
:1012B000FC060E0E08010018600000FC808080F81B
:1012C00080808080FC060E0E08010030480000FC83
:1012D000808080F880808080FC060E0E0801004827
:1012E000480000FC808080F880808080FC050E0E25
:1012F00008020060180000F8202020202020202074
:10130000F8050E0E08020030C00000F82020202052
:1013100020202020F8050E0E08020060900000F842
:101320002020202020202020F8050E0E080200900A
:10133000900000F82020202020202020F8070A0A12
:1013400008000078444242F24242424478060E0EBF
:101350000801006498000084C4C4A4A494948C8CF4
:1013600084060E0E080100601800007884848484CE
:101370008484848478060E0E0801001860000078CA
:10138000848484848484848478060E0E080100306A
:1013900048000078848484848484848478060E0ED3
:1013A00008010064980000788484848484848484A0
:1013B00078060E0E08010048480000788484848472
:1013C00084848484780605050801028448304884B2
:1013D000060C0C0801FF0474888C9494A4A4C444E3
:1013E000B880060E0E080100601800008484848412
:1013F000848484848478060E0E080100186000003E
:1014000084848484848484848478060E0E08010095
:101410003048000084848484848484848478060E24
:101420000E080100484800008484848484848484F5
:101430008478070E0E080100186000008282444480
:10144000281010101010060B0B0801008080F08887
:10145000848488F0808080060A0A080100708888E9
:1014600090B0888484A498060C0C080100601800D1
:10147000007884047C84848C74060C0C08010018A9
:101480006000007884047C84848C74060C0C080151
:1014900000304800007884047C84848C74060C0C32
:1014A000080100649800007884047C84848C7406AD
:1014B0000C0C080100484800007884047C84848C6B
:1014C00074060D0D08010030483000007884047C5B
:1014D00084848C740708080801007C92127E909026
:1014E000927C060A0A0801FE7884808080808478D5
:1014F0001060060C0C08010060180000788484FC61
:1015000080808478060C0C08010018600000788444
:1015100084FC80808478060C0C08010030480000B0
:10152000788484FC80808478060C0C08010048488C
:101530000000788484FC80808478050C0C0802000C
:10154000C030000060202020202020F8050C0C086E
:10155000020030C0000060202020202020F8050C70
:101560000C0802006090000060202020202020F85D
:10157000050C0C0802009090000060202020202024
:1015800020F8060C0C08010064182844047C8484AC
:1015900084848478060C0C08010064980000B8C4A8
:1015A000848484848484060C0C0801006018000084
:1015B0007884848484848478060C0C080100186084
:1015C00000007884848484848478060C0C080100EC
:1015D000304800007884848484848478060C0C0865
:1015E0000100649800007884848484848478060CE4
:1015F0000C0801004848000078848484848484783E
:10160000060707080101300000FC000030060A0A46
:101610000801FF04788C9494A4A4C47880060C0C70
:10162000080100601800008484848484848C74061B
:101630000C0C080100186000008484848484848C6D
:1016400074060C0C080100304800008484848484F3
:10165000848C74060C0C08010048480000848484C3
:101660008484848C74060E0E0801FE1860000084C9
:10167000848484844C34040478050C0C0802FE80B5
:1016800080F088888890A0C0808080060E0E0801B7
:10169000FE4848000084848484844C340404780028
:1016A000780C13105F1B11241FBECFEFD8E0DEBFF4
:1016B000CDBF12E0A0E0B1E0E6E5F0E402C00590A5
:1016C0000D92A634B107D9F724E0A6E4B2E001C038
:1016D0001D92A436B207E1F716E1C6EAD6E104C0CE
:1016E0002297FE010E94A81DC03AD107C9F778D2FF
:1016F0000C9429200C940000CF93DF93EC01262F4B
:101700004CAD6BAD04960E940D152BAD992787FD4E
:101710009095820F911D8BAF81E090E0DF91CF918A
:101720000895FC01EE5BFF4F608141C484E892E0C4
:10173000CAD386E492E00E94291A8AE892E08FC513
:10174000EF92FF920F931F93CF93DF93CDB7DEB746
:1017500068970FB6F894DEBF0FBECDBF84E892E065
:10176000B3D784E892E0B8D78C0184E892E0B8D788
:101770007C014AE0BC01CE010D96A0D14AE0B8013F
:10178000CE0143969BD1BE016D5E7F4FCE01079681
:1017900077D1BE01635F7F4FCE010796E5D1BC01D3
:1017A000CE0101966DD1BE016F5F7F4F86E492E05E
:1017B0000E94F319CE010196E3D0CE010796E0D046
:1017C000CE014396DDD0CE010D96DAD00C3E8FEFE0
:1017D0001807D4F48AE892E042D519821A828FEF72
:1017E0008B8388E090E009D2FC0182E090E0918355
:1017F000808383E090E09383828384E090E095830C
:101800008483178216821AC005311105E4F08AE834
:1018100092E025D519821A828FEF8B8386E090E0C3
:10182000ECD1FC0181E090E09183808382E090E044
:101830009383828385E090E095838483AE014F5F3C
:101840005F4FBF0132C0ECEEEE16EFEFFE0694F4F0
:101850008AE892E004D519821A828FEF8B8384E0A4
:1018600090E0CBD121E030E0FC013183208322E005
:1018700030E015C0F5E1EF16F104F4F08AE892E0EB
:10188000EED419821A828FEF8B8384E090E0B5D179
:1018900024E030E0FC013183208325E030E0338315
:1018A0002283AE014F5F5F4FBC018AE892E0A2D471
:1018B0008AE892E036DF0AC019821A8288E28B83B6
:1018C000BE016F5F7F4F8AE892E0EED468EE73E06E
:1018D00080E090E001D268960FB6F894DEBF0FBEAC
:1018E000CDBFDF91CF911F910F91FF90EF900895A1
:1018F000CF93DF9366E070E08AE892E02ED484E82C
:1019000092E056D21092490210924802C6E4D2E008
:1019100088E192E09983888340E066E072E0CE013E
:10192000E3D680E292E099838883DF91CF91089596
:10193000CF92DF92EF92FF920F931F93CF93DF939B
:101940006C017A01EB01E60EF71E00E010E0CE1507
:10195000DF0561F06991D601ED91FC910190F08174
:10196000E02DC6010995080F191FF1CFC801DF91BD
:10197000CF911F910F91FF90EF90DF90CF9008953E
:10198000FC01808191810C94441ECF93DF93EC0184
:1019900088819981009711F00E94441E1982188253
:1019A0001D821C821B821A82DF91CF9108950F93B2
:1019B0001F93CF93DF93EC018B016F5F7F4F888183
:1019C00099810E94D31E009731F0998388831B83ED
:1019D0000A8381E001C080E0DF91CF911F910F91D8
:1019E0000895CF93DF93EC0188819981892B29F0A9
:1019F0008A819B818617970758F4CE01D8DF882308
:101A000041F08C819D81892B19F4E881F981108244
:101A100081E0DF91CF910895EF92FF920F931F9392
:101A2000CF93DF93EC017B018A01BA01DADF8111E8
:101A300003C0CE01AADF07C01D830C83B7018881D4
:101A400099810E949F1FCE01DF91CF911F910F912D
:101A5000FF90EF900895CF93DF93EC01FB01861781
:101A6000970751F0608171816115710521F0448102
:101A70005581D2DF01C089DFCE01DF91CF9108957A
:101A8000FC01118210821382128215821482E3CF2C
:101A9000CF93DF93EC016115710559F0FB010190C3
:101AA0000020E9F7AF0141505109461B570BB4DF45
:101AB00001C06BDFCE01DF91CF9108950F931F938B
:101AC000CF93DF93CDB7DEB762970FB6F894DEBF42
:101AD0000FBECDBF8C01CB01F801118210821382A1
:101AE00012821582148250E0BE016F5F7F4F0E9408
:101AF000B51FBE016F5F7F4FC801CADF62960FB688
:101B0000F894DEBF0FBECDBFDF91CF911F910F9133
:101B10000895EF92FF920F931F93CF93DF93EC0101
:101B20007B010C811D816115710511F480E015C0E8
:101B30004115510589F0040F151FB80152DF8823A4
:101B4000A9F3288139818C819D81B701820F931F70
:101B50000E949F1F1D830C8381E0DF91CF911F9115
:101B60000F91FF90EF900895CF93DF93EC01FB016D
:101B70004481558160817181CCDF811102C0CE0129
:101B800004DFCE01DF91CF9108950F931F93CF9380
:101B9000DF93EB0141155105E9F02097D9F0FC01E5
:101BA0006481758126173707A0F4621B730B8A01C5
:101BB000015011096017710708F48B01FC01608165
:101BC0007181620F731FA801CE010E94A61FC00F72
:101BD000D11F1882DF91CF911F910F910895089521
:101BE000ABD0FDDFA3DDC0E0D0E0AADD2097E9F3B4
:101BF0000E940000FACF0C94AC1D0C94AC1D1F92F7
:101C00000F920FB60F9211242F933F938F939F93B0
:101C1000AF93BF938091D2029091D302A091D4024E
:101C2000B091D5023091D10223E0230F2D3720F45B
:101C30000196A11DB11D05C026E8230F0296A11D26
:101C4000B11D2093D1028093D2029093D302A0932E
:101C5000D402B093D5028091D6029091D702A09180
:101C6000D802B091D9020196A11DB11D8093D60270
:101C70009093D702A093D802B093D902BF91AF91AD
:101C80009F918F913F912F910F900FBE0F901F90BA
:101C900018953FB7F8948091D6029091D702A09101
:101CA000D802B091D90226B5A89B05C02F3F19F0E4
:101CB0000196A11DB11D3FBF6627782F892F9A2F4E
:101CC000620F711D811D911D42E0660F771F881FF5
:101CD000991F4A95D1F70895CF92DF92EF92FF9224
:101CE000CF93DF936B017C01D4DFEB01C114D104EE
:101CF000E104F10479F05BD0CCDF6C1B7D0B683E16
:101D00007340A0F381E0C81AD108E108F108C85176
:101D1000DC4FECCFDF91CF91FF90EF90DF90CF9031
:101D200008950197009739F0880F991F880F991F20
:101D300002970197F1F70895789484B5826084BD85
:101D400084B5816084BD85B5826085BD85B58160BF
:101D500085BDEEE6F0E0808181608083E1E8F0E01F
:101D60001082808182608083808181608083E0E84E
:101D7000F0E0808181608083E1EBF0E0808184602D
:101D80008083E0EBF0E0808181608083EAE7F0E02F
:101D90008081846080838081826080838081816093
:101DA00080838081806880831092C10008950895A7
:101DB0000895EF92FF920F931F93CF93DF937B01D0
:101DC0008A01E9016CE470E080EA93E00E944A1B1A
:101DD000E091A003F091A1030190F081E02D60E07B
:101DE00080EA93E0099580EA93E00E945D1B43E05E
:101DF00050E06CE470E080EA93E00E943E1B80EAD1
:101E000093E00E94941A892BA1F080EA93E00E944B
:101E10009C1AD7018D939C9380EA93E00E949C1AB0
:101E2000F8019183808380EA93E00E949C1A998351
:101E30008883D701ED91FC911197EE0FFF1FEA57B0
:101E4000FE4F808191818D939C93D801ED91FC91FF
:101E50001197EE0FFF1FEA57FE4F808191818D93FE
:101E60009C93E881F981EE0FFF1FEA5FFE4F8081AE
:101E7000918199838883DF91CF911F910F91FF907A
:101E8000EF9008951F93CF93DF931F92CDB7DEB7E6
:101E9000162F6CE470E080EA93E049830E944A1BAD
:101EA000612F80EA93E00E94EB1A4981642F80EA57
:101EB00093E00E94EB1A80EA93E00F90DF91CF91BC
:101EC0001F910C945D1BCF93DF93EC0180EA93E0AC
:101ED0000E94291B40E067E0CE01D4DF40E166E0CC
:101EE000CE01D0DF40E068E0CE01CCDF41E067E02A
:101EF000CE01DF91CF91C6CFFC01E05CFF4F28E01F
:101F000030E03183208332962FEF208340E450E08D
:101F100060E08CC0CF92DF92EF92FF920F931F93FD
:101F2000CF93DF936C01EB01101611061CF08901B1
:101F300020E030E0F601E05CFF4FE080F180B60188
:101F4000E0E0F0E0EE15FF055CF4685F7F4FCB0149
:101F50000897DC018D919C91009729F03196F2CF82
:101F600080E090E01BC0EF3FBFEFFB07B9F083E0DC
:101F7000EE0FFF1F8A95E1F7EC0DFD1DD183C083A5
:101F8000538342832683378315830483E881F98151
:101F90000190F081E02DCE010995CE01DF91CF9126
:101FA0001F910F91FF90EF90DF90CF900895DF92F7
:101FB000EF92FF920F931F93CF93DF93D62EEC01F6
:101FC00000E010E07C0180E4E80EF11CF701808164
:101FD000918108171907FCF4888199810097D9F03D
:101FE000DC012D913C914C815D81AE81BF81FD0171
:101FF000EE0FFF1FEA0FFB1F6A817B816E0F7F1FB1
:10200000D9011896ED91FC9119972D2D09950F5F27
:102010001F4F2896DBCFDF91CF911F910F91FF903B
:10202000EF90DF9008958AED92E066CFDC0140FFEB
:1020300003C001C06D936D934250E0F75040D0F75C
:102040000895DC01ED91FC910190F081E02D09945F
:1020500081E008950895CF93DF9300D01F92CDB70C
:10206000DEB7AB01DC01ED91FC910680F781E02D3C
:1020700019821A821B8220E0BE016F5F7F4F099593
:102080000F900F900F90DF91CF9108950F938BB920
:1020900000140014001447FF6BB90014001400145E
:1020A00000146BB9001402E00A95F1F70F9108953E
:1020B000549A20E1FC0122832BE230E03483238315
:1020C00008958BB900140014001447FF6BB9001475
:1020D0000014001400146BB9001400140014001450
:1020E000001408958BB900140014001446FF6BB956
:1020F00000140014001400146BB9001400140895A7
:102100008BB900140014001445FF6BB900140014BF
:10211000001400146BB9001408950F938BB90014C8
:102120000014001445FF6BB90014001400140014CF
:102130006BB902E00A95F1F70F9108958BB900147D
:102140000014001447FF6BB90014001400140014AD
:102150006BB90014001400140895CF92DF92EF922F
:10216000FF920F931F93CF93DF93EC018B01C4DE9B
:102170006E0183E4C80ED11CD6010D931C93013867
:10218000BAE21B0730F4C801880F991F800F911F16
:1021900002C08FEF9FEF31DD7C01FE01EB5BFF4F53
:1021A00091838083F601C080D18089E090E023DDB7
:1021B000FC0189E0DF011D928A95E9F715821682FC
:1021C0001782108688E292E09183808300E010E01D
:1021D0009601A701BF01CE019DDECE5BDF4F88E2F5
:1021E0008883DF91CF911F910F91FF90EF90DF9047
:1021F000CF900895CF93DF93FA01EC01CB5BDF4FD3
:10220000DB018D919C919C01220F331F280F391FF8
:10221000A881B981A20FB31F80818C93818111960F
:102220008C931197828112968C93DB0112968D917B
:102230009C9113979C01220F331F280F391FA881EF
:10224000B981A20FB31F80818C93818111968C93E9
:102250001197828112968C93DF91CF910895CF933D
:10226000DF9340E050E020E030E0DC01AD5BBF4FA9
:10227000EC01CB5BDF4F6D917C91119726173707EF
:1022800064F4E881F981E40FF51F10821182128253
:102290002F5F3F4F4D5F5F4FEECFFC01EE5BFF4F77
:1022A0006081DF91CF9183CEEF92FF920F931F93C6
:1022B000CF93DF93DB0140E050E020E030E07C0191
:1022C00063E4E60EF11C8C010B5B1F4FF70160818C
:1022D000718126173707A4F4E801E881F981E40F3A
:1022E000F51F6C91608311966C9111976183129622
:1022F0006C91129762832F5F3F4F4D5F5F4FE6CF28
:10230000FC01EE5BFF4F6081DF91CF911F910F9138
:10231000FF90EF904CCE0F931F93CF93DF93EC0180
:10232000B8DC088119812A813B81601B710B820B0B
:10233000930B623371058105910554F422E330E07B
:10234000C901861B970BDF91CF911F910F91E9CCAB
:10235000DF91CF911F910F9108958F929F92AF922D
:10236000BF92CF92DF92EF92FF920F931F93CF9382
:10237000DF93862EEA018C01000F111F080F191F31
:10238000040F151FCBB02C2D2061C22EDBB03D2DCC
:102390003F7ED32E3BB9B8802B2D362F239F212D86
:1023A000B22E7A01E016F10608F058C075E0A72EAB
:1023B0004B2D6D2D8C2DC2DEBB0CAA94C9F70014D9
:1023C0004B2D6D2D8C2D62DE4B2D6D2D8C2D8ADECF
:1023D0009980292D382D239F212D922E4B2D6D2D47
:1023E0008C2D9BDEF5E0BF2E492D6D2D8C2DA6DEAC
:1023F000990CBA94C9F70014492D6D2D8C2D46DE29
:10240000492D6D2D8C2D6EDEAA802A2D382D239F0F
:10241000212DA22E492D6D2D8C2D7FDEE5E0BE2EC7
:102420004A2D6D2D8C2D8ADEAA0CBA94C9F70014A2
:102430004A2D6D2D8C2D45DE83E0E80EF11C4A2DD2
:102440006D2D8C2D4FDEB8802B2D382D239F212D07
:10245000B22E4A2D6D2D8C2D53DEA4CF1124DF9189
:10246000CF911F910F91FF90EF90DF90CF90BF9091
:10247000AF909F908F900895AF92BF92CF92DF92CE
:10248000EF92FF920F931F93CF93DF931F92CDB7DD
:10249000DEB75C017B018A01059629833CDFF89455
:1024A000A7012981622FC80158DFC090D202D090C5
:1024B000D302E090D402F090D50289E0809FB00171
:1024C000819F700D1124882777FD8095982F28EE25
:1024D00033E040E050E00E948A1D2C0D3D1D4E1D52
:1024E0005F1D2093D2023093D3024093D4025093C5
:1024F000D5027894CEDBF501658376838783908758
:102500000F90DF91CF911F910F91FF90EF90DF908F
:10251000CF90BF90AF900895AF92BF92CF92DF92CD
:10252000EF92FF920F931F93CF93DF93A62EEA01B2
:102530008C01000F111F080F191F040F151FEBB09E
:102540002E2D2061E22EFBB03F2D3F7EF32E3BB9B6
:10255000D8802D2D362F239F212DD22EC017D107A5
:1025600008F056C0B5E0CB2E4D2D6F2D8E2DE6DD3B
:10257000DD0CCA94C9F700144D2D6F2D8E2D86DD0C
:102580004D2D6F2D8E2DAEDDB9802B2D3A2D239F35
:10259000212DB22E4D2D6F2D8E2DBFDD95E0D92E24
:1025A0004B2D6F2D8E2DCADDBB0CDA94C9F70014AC
:1025B0004B2D6F2D8E2D6ADD4B2D6F2D8E2D92DDC7
:1025C000CA802C2D3A2D239F212DC22E4B2D6F2DED
:1025D0008E2DA3DD85E0D82E4C2D6F2D8E2DAEDDFA
:1025E000CC0CDA94C9F700144C2D6F2D8E2D69DDBB
:1025F00023964C2D6F2D8E2D75DDD8802D2D3A2DE7
:10260000239F212DD22E4C2D6F2D8E2D79DDA6CF1F
:102610001124DF91CF911F910F91FF90EF90DF90E8
:10262000CF90BF90AF900895AF92BF92CF92DF92BC
:10263000EF92FF920F931F93CF93DF931F92CDB72B
:10264000DEB75C017B018A010596298364DEF8947C
:10265000A7012981622FC8015FDFC090D202D0900C
:10266000D302E090D402F090D50289E0809FB001BF
:10267000819F700D1124882777FD8095982F28EE73
:1026800033E040E050E00E948A1D2C0D3D1D4E1DA0
:102690005F1D2093D2023093D3024093D402509313
:1026A000D5027894F6DAF50165837683878390877F
:1026B0000F90DF91CF911F910F91FF90EF90DF90DE
:1026C000CF90BF90AF9008959C012C5F3F4FAC011D
:1026D0004E5F5F4FBC016DCBFC01808191810895FD
:1026E000FC01828193810895FC0113AE14AE15AEF6
:1026F000049644C3BF92CF92DF92EF92FF920F9362
:102700001F93CF93DF938C01EB01B42E690180E11D
:10271000481779F1841760F0EAE04E1334C042E0C4
:10272000C80189D444E850E0BE01C801C3D42BC01D
:10273000F1E14F1709F185E1481325C0EA80FB80DC
:102740004CE750E0C801B6D4F7014481406BBE01AC
:10275000C801A0D441E0BE01C80193D4AE01B801C4
:10276000C70190D38823E9F040E0BE01C8016CD4D2
:102770000AC043E750E002C048E650E0BE01C8018D
:1027800099D481E00FC096014B2DBE01C801DF91A5
:10279000CF911F910F91FF90EF90DF90CF90BF905E
:1027A000E6C380E0DF91CF911F910F91FF90EF90F2
:1027B000DF90CF90BF900895FC01E60FF11D84914A
:1027C00090E0982F88273196E4918E0F911D0895FF
:1027D000FC0184910895FCDF882311F0823011F40C
:1027E00086E0089583E0089580E0089566E0E4CFF0
:1027F00068E0E2CF0A96FC01849108950B96FC01F3
:1028000084910895BF92CF92DF92EF92FF920F933F
:102810001F93CF93DF93EC01E62E0C811D81C8013D
:10282000D7DFF82E8C819D81D6DFB82E21E0F216FD
:1028300019F0CC24CA9402C05FE0C52E8C819D8122
:10284000D9DFF82E8C819D81D9DFD82E8C819D8196
:10285000CFDFE0E6EE1538F4009729F0080F191FD6
:1028600041E6F42E0FC08C819D81C0DFF0E4FE159F
:1028700038F4009729F0080F191F31E4F32E02C035
:102880000F5E1F4FDE1440F4188A1B8A1C8A198AB7
:102890001A8A80E090E04FC0DF14B0F32B2D30E0B7
:1028A000F80184918F3F19F40F5F1F4F3FC0FE1056
:1028B00035C08C819D818CDF98012F5F3F4FF801DF
:1028C000882311F0823091F484918B8BF90124914B
:1028D0002C8BF8013396E491E88BF8013496E4915F
:1028E000E98BF8013596E491EA8B16C09491892F13
:1028F0008F7082508A8B92959F70998BF9012491E9
:10290000822F8F708C8B22952F702B8BF801329633
:10291000E491E295EF70E88BC8010DC0F8013296A2
:10292000E491EC210E0F111D020F131FFD1409F489
:10293000ABCFF394B5CFDF91CF911F910F91FF9063
:10294000EF90DF90CF90BF9008954F925F927F926B
:102950008F929F92AF92BF92CF92DF92EF92FF92AF
:102960000F931F93CF93DF931F92CDB7DEB72C0148
:10297000162F742E622F46DF6C01009709F43BC0BE
:10298000F2018481958127DFF82EF2018388048982
:102990009188910E8289781A172D101B282D412FAE
:1029A000692DC20126D3882319F1CF0CD11CF7E081
:1029B0008F0E869486948694A82CB12C1715C1F09E
:1029C000392D76018E2D8C19881570F4F70104913C
:1029D00020E0412F632FC2013983FDD1FFEFEF1AB1
:1029E000FF0A3981385FEECFCA0CDB1C1F5FE6CFD0
:1029F000F201808901C080E00F90DF91CF911F919B
:102A00000F91FF90EF90DF90CF90BF90AF909F908D
:102A10008F907F905F904F9008950F931F93CF9367
:102A2000DF9300D01F92CDB7DEB78C01DC01559645
:102A3000ED91FC9156972B834A83698309954A81CE
:102A4000480F2B816981C8010F900F900F90DF9183
:102A5000CF911F910F9179CFAF92BF92DF92EF92FA
:102A6000FF920F931F93CF93DF9300D0CDB7DEB7C4
:102A70008C01E62EF42EDC015596ED91FC915697D3
:102A800029833A830995F80E2981A22E3A81B32E23
:102A9000D12CF50121915F01222339F04F2D6E2DAC
:102AA000C80153DFE80ED80EF4CF8D2D0F900F9094
:102AB000DF91CF911F910F91FF90EF90DF90BF902A
:102AC000AF900895DC0114968D919C911597009715
:102AD00009F43FC057962C915797FC01211108C06B
:102AE0003596E4915896EC935897FC013C9611C0AA
:102AF000213041F43F96E4915896EC935897FC01AD
:102B0000709607C03D96E4915896EC935897FC0157
:102B10003E96849159968C93599758968C915897D4
:102B2000992787FD909559962C915997821B910969
:102B300027FD93955A962C915A97203441F0829F05
:102B4000C0011124E6E096958795EA95E1F75B963A
:102B50008C93089524EF33E1FC01368B258B089587
:102B6000CF93DF93EC018C819D818617970741F00D
:102B70007D836C83CE01A6DF84EF93E19E8B8D8BEA
:102B8000DF91CF9108951F93CF93DF93EC011D82C6
:102B90001C821F821E82198681E0888782E28A87D2
:102BA0001F861E8680E090E02FEFFE01E80FF91FE0
:102BB00023A301968E309105C1F711E018A3CE0131
:102BC000C9DF1F8B188E198E80E48A8F1B8E88EFC9
:102BD00097E19AAB89ABDF91CF911F910895DB010B
:102BE000ED91FC910994EF92FF921F93CF93DF93A5
:102BF00000D0CDB7DEB77C01DC01D196ED91FC9120
:102C0000D29782E069837A83099520E030E04AE038
:102C100069817A81C701E3DF182FD701D196ED9141
:102C2000FC91D29783E00995D701D196ED91FC9163
:102C3000D29780E00995812F0F900F90DF91CF916F
:102C40001F91FF90EF9008950F931F93CF93DF9301
:102C5000EC018B01E9A9FAA982E00995E9A9FAA991
:102C600081E0099520E030E044E1B801CE01B7DF12
:102C70009E012D5C3F4F47E1B801CE01B0DFE9A9CD
:102C8000FAA980E0DF91CF911F910F910994FF92F3
:102C90000F931F93CF93DF93EC018B01E9A9FAA95E
:102CA00082E00995E9A9FAA981E0099520E030E0E0
:102CB00045E1B801CE0193DFF82E882339F09E015B
:102CC0002D5C3F4F47E1B801CE0189DFE9A9FAA9A0
:102CD00080E009958F2DDF91CF911F910F91FF908B
:102CE0000895CF93DF931F92CDB7DEB79E012F5F7C
:102CF0003F4F46E474DF89810F90DF91CF910895B3
:102D0000CF93DF931F92CDB7DEB79E012F5F3F4F6A
:102D100047E465DF89810F90DF91CF91089520E02E
:102D200030E048E45CCFCF93DF93EC016A817B8194
:102D3000D8DF88836A817B81CE01E2DF89836A8163
:102D40007B81CE01ECDF8B879E012D5C3F4F6A813A
:102D50007B8147E1CE01DF91CF9141CFCF93DF93CC
:102D6000EC016A817B813FDF882321F0CE01DBDF2C
:102D700081E001C080E0DF91CF910895EF92FF9252
:102D80000F931F93CF93DF931F92CDB7DEB77C01D4
:102D90008B014983F8DEF70113830283498146A73B
:102DA000C7010F90DF91CF911F910F91FF90EF908E
:102DB000D5CFFC016281738147CFCF93DF93EC01C4
:102DC000EE85FF85309709F009956A817B81CE01F8
:102DD000DF91CF915CCF0F93FC0182819381648F4F
:102DE000458F278F068F9F01245E3F4F4BE3BC0129
:102DF000CF010F91F4CEFC0160A30895DC0116967B
:102E0000ED91FC91179715968C919F01280F311D1C
:102E1000C9011192E817F907E1F70895FC0191E063
:102E20008381861708F490E021E0461708F020E03F
:102E3000322F392B81E05281451708F480E083233B
:102E40009223892B0895DC01FB01108212968C914C
:102E50001297818315968C911597815082831396D2
:102E60008C9183830895FB0141812381213029F0D6
:102E7000233031F468EF640F04C0642F485F01C051
:102E8000642FCCCFFC01CB01BA012681378145816B
:102E90000AC1DC011696ED91FC91179712968C9160
:102EA000481B477081E090E0042E01C0880F0A940F
:102EB000EAF7E60FF11D3081222311F0832B02C0C7
:102EC0008095832380830895FB014181DC01129664
:102ED0002C911297421760F013962C911397241798
:102EE00038F0608115962C91621710F42481D1CFAF
:102EF0000895CF92DF92FF920F931F93CF93DF93AA
:102F000000D0CDB7DEB78C016B01FB01F28083816D
:102F1000813039F070F0823039F0833041F020E0B8
:102F200001C021E030E007C020E03FEF04C02FEFF8
:102F3000F9CF20E031E0F7FE07C0B601C8012983D0
:102F40003A83C2DF3A812981F6018081830F808331
:102F50008181820F8183FF0C71F70F900F90DF91B9
:102F6000CF911F910F91FF90DF90CF9008950F9315
:102F70001F93CF93DF938901FB01C281D381423339
:102F8000D9F058F44531E1F0473109F1443141F5C8
:102F9000CE0134DFCE01EBD123C04634E1F047341B
:102FA000E1F04B33E9F4B901CE015DDF8823C1F0D4
:102FB000B801CE019EDF14C0B901CE0185DF10C07B
:102FC000CE01DCD1882371F0CE0118DF09C0B90130
:102FD000CE0139DF05C08D8101C08981F801808370
:102FE00081E001C080E0DF91CF911F910F910895A2
:102FF00008950F93FC010150040F84A996A994171A
:1030000018F0081728F402C0081750F0041740F40D
:103010002150260F83A995A9961720F4281720F48C
:1030200080E007C0281720F481E0261710F0F8CFC1
:1030300081E00F910895DB011496ED91FC911597B5
:1030400020E030E061E00994DB011496ED91FC9101
:10305000159720E030E063E00994DB011496ED91D0
:10306000FC91159720E030E040E064E00994DB013A
:103070001496ED91FC91159720E030E041E064E07A
:103080000994DB011496ED91FC91159720E030E056
:1030900062E00994DB011496ED91FC91159720E014
:1030A00030E065E00994DB011496ED91FC911597F1
:1030B00066E00994AF92BF92CF92DF92EF92FF92B7
:1030C0000F931F93CF93DF931F92CDB7DEB75C01B1
:1030D0008B017A0180E0F7014491811108C04F3FD4
:1030E000A1F1B801C501D6DF811128C033C04F3F1F
:1030F000C1F34E3F89F1403F08F5403E28F04F7044
:10310000B801C501BEDF1AC0403D28F04F70B801BC
:10311000C5019ADF13C0403C98F0B801C50149834E
:103120009CDF49814295407F4E5FC42ED12CC60161
:1031300014D1B801C5019BDFC6010FD180E006C0E4
:1031400047FDFCCF842F90E0F8CF81E0FFEFEF1A2E
:10315000FF0AC1CF80E001C081E00F90DF91CF91E5
:103160001F910F91FF90EF90DF90CF90BF90AF90A5
:103170000895CF93DF93EC018BA5882371F088E746
:103180009ED0882361F08EA1811105C0C6D088230E
:1031900031F01BA602C080E4F9CF81E001C080E0DD
:1031A000DF91CF9108951F93CF93DF93142FE901FF
:1031B0006330B1F050F4613079F0623009F03AC018
:1031C000FC0146A321E023A735C06630D9F0673063
:1031D00021F1653079F50CC0FC0186A540D02AC0EC
:1031E000FC0116A221E023A7411124C0B0D022C0C7
:1031F000C0DF811102C0ABD01FC0812F8ED08111E2
:1032000019C0F9CFB6DF8823B1F3112399F0899162
:1032100084D0882381F31150F8CFABDF882359F392
:10322000112341F0FE01849178D0882329F0219662
:103230001150F6CF81E001C080E0DF91CF911F9166
:10324000089590919F03911104C080939F03609310
:103250009D03089510929F0310929D0308958093FB
:103260009E031092B90084FF02C08CE001C088E484
:103270008093B800EFCFCF93DF9300D0CDB7DEB708
:1032800020ED37E03A8329839091BC00982389F49C
:1032900029813A81232B41F480919E0381FD09C04D
:1032A00081E0CFDF80E006C029813A8121503109D9
:1032B000E9CF81E00F900F90DF91CF910895CF93E8
:1032C000C82F84EA8093BC0061E080E8D4DF8823C3
:1032D000F9F09091B900987F983021F0903111F079
:1032E00061E014C0C093BB0084E88093BC0062E03E
:1032F00080E8C1DF882361F080919E0381FD0AC0D0
:103300008091B900887F883129F062E082E099DFFE
:1033100080E001C081E0CF9108958093BB0084E8F4
:103320008093BC0063E080E8A6DF882361F0809191
:103330009E0381FD0AC08091B900887F883229F000
:1033400063E082E07EDF80E0089581E0089584E913
:103350008093BC0064E080E18ECF2EE93FE00097CF
:1033600029F0F9013197F1F70197F9CF0895FC01A0
:10337000128280818150838314820895FC01208110
:103380008281820F82839181891760F484818F5FAB
:1033900084838381820F891710F08FEF890F8383D5
:1033A00081E0089580E008950F931F93CF93DF93FA
:1033B0008B01FC0125ADEC012496211104C021E014
:1033C00025AFCE01CBDCCE01F4DC980144E160E016
:1033D000CE0142DBCE01F1DC8111F7CFDF91CF913D
:1033E0001F910F910895CF92DF92EF92FF920F936A
:1033F0001F93CF93DF93CDB7DEB76C01CB01EDB652
:10340000FEB6FB01448155814F5F5F4F2DB73EB73C
:10341000241B350B0FB6F8943EBF0FBE2DBF0DB762
:103420001EB70F5F1F4F20E030E0B8010E94C50DAE
:10343000B801C601B9DF0FB6F894FEBE0FBEEDBEEF
:10344000DF91CF911F910F91FF90EF90DF90CF9080
:103450000895CF93DF93EC01249660EF70E0CE01E6
:103460007FDB61E0CE01DF91CF91C5CC833081F06D
:1034700028F4813099F08230A1F008958730A9F0C6
:103480008830B9F08430D1F4809180008F7D03C002
:10349000809180008F7780938000089584B58F7726
:1034A00002C084B58F7D84BD08958091B0008F7770
:1034B00003C08091B0008F7D8093B00008950F937A
:1034C0001F93CF93DF931F92CDB7DEB7282F30E045
:1034D000F901E655FF4F8491F901E254FF4F149131
:1034E000F901EE52FF4F04910023C1F0882319F037
:1034F0006983BCDF6981E02FF0E0EE0FFF1FEA5126
:10350000FF4FA591B4919FB7F8948C91611103C0BE
:103510001095812301C0812B8C939FBF0F90DF9169
:10352000CF911F910F9108958091D00390E0209149
:10353000D103821B910908952091D1038091D0037A
:10354000281750F4E22FF0E0EE52FC4F808190E01B
:103550002F5F2093D10308958FEF9FEF0895E0919F
:10356000D1038091D003E81730F4F0E0EE52FC4F25
:10357000808190E008958FEF9FEF08950895CF9296
:10358000DF92EF92FF920F931F93CF93DF937C0113
:10359000CB018A012091AC03222389F0EB016B015E
:1035A000C40ED51ECC15DD0561F06991D701ED91F2
:1035B000FC910190F081E02DC7010995F3CF642FB4
:1035C00034D1C801DF91CF911F910F91FF90EF90FF
:1035D000DF90CF900895CF93DF931F92CDB7DEB7E2
:1035E00069832091AC032223D1F02091AD032032D6
:1035F00040F021E030E0FC013383228380E090E062
:1036000014C08091AE03E82FF0E0E155FC4F9981A2
:1036100090838F5F8093AE038093AD0304C061E01D
:10362000CE01019602D181E090E00F90DF91CF9121
:103630000895FC011382128248EE53E060E070E0CE
:1036400044835583668377838AE392E09183808302
:1036500008951092D1031092D0031092AE031092ED
:10366000AD0330C0862F413208F040E262ED73E0D6
:1036700045D01092D1038093D003089521E0F2CF7A
:1036800081E08093AC036093CF031092AE0310925D
:10369000AD030895F5CF0F93062F21E04091AD03C0
:1036A0006FEA73E08091CF036DD01092AE03109259
:1036B000AD031092AC030F91089561E0ECCF80EA66
:1036C00093E0B7CF10925F0481E080935D04109285
:1036D0005C0461E082E1F3DE61E083E1F0DEE9EBCE
:1036E000F0E080818E7F808380818D7F808388E47D
:1036F0008093B80085E48093BC000895413208F0BF
:103700003FC090915F049111FCCF91E090935F04D2
:1037100020935D042FEF2093F20310923704240FBF
:103720002093360490935E0490915E04880F892B59
:1037300080935E0480915C04813041F410925C04BB
:1037400080915E048093BB0085EC01C085EE809380
:10375000BC0080915F048130E1F3809137048417CD
:1037600010F44091370428E334E0FB01D9018A2F9B
:10377000821B841718F48D918193F9CF842F0895BB
:1037800080E008950F93413208F046C090915F04A5
:103790009111FCCF92E090935F0400935D049FEF42
:1037A0009093F2031092370440933604FB0168E3D0
:1037B00074E0DB019A2F961B941718F491919D9356
:1037C000F9CF10925E0490915E04880F892B80934C
:1037D0005E0480915C04813041F410925C0480911D
:1037E0005E048093BB0085EC01C085EE8093BC0035
:1037F000222321F080915F048230E1F38091F20373
:103800008F3F61F08091F203803251F08091F2039A
:10381000803341F483E007C081E005C080E003C04D
:1038200082E001C084E00F910895613298F4209104
:103830005F04243089F460931404FC0186E194E071
:10384000DC012A2F281B261718F421912D93F9CF7C
:1038500080E0089581E0089582E0089585ED8093E9
:10386000BC008091BC0084FDFCCF10925F040895E1
:1038700085EC8093BC0010925F0408951F920F9214
:103880000FB60F9211242F933F934F935F936F9333
:103890007F938F939F93AF93BF93EF93FF93809109
:1038A000B900887F803609F49CC068F5883209F435
:1038B0005BC090F4803109F454C038F4882309F4D3
:1038C000F3C0883009F44DC0F2C0883109F44CC00F
:1038D000803209F45DC0EBC0803409F468C048F45C
:1038E000803309F455C0883309F0E1C08093F203B6
:1038F000A7C0803509F44FC0883509F45DC088340D
:1039000009F0D5C0D3C0883909F4C4C0A8F48837F9
:1039100009F467C038F4883609F463C0803709F4C5
:1039200060C0C5C0883809F4B5C0803909F45FC0EB
:10393000803809F0BCC05BC0803B09F483C038F418
:10394000803A09F466C0883A09F47CC0B0C0803C73
:1039500009F4A4C0883C09F4A1C0883B09F487C0DD
:10396000A6C080915E0410C0909137048091360407
:10397000981770F5E091370481E08E0F809337043B
:10398000F0E0E85CFB4F80818093BB0085EC83C056
:103990008093F2038BC0E091370481E08E0F809317
:1039A00037048091BB00F0E0E85CFB4F808390918E
:1039B0003704809136046BC0E091370481E08E0FAC
:1039C000809337048091BB00F0E0E85CFB4F80837C
:1039D00080915D0481116AC081E080935C0484EA77
:1039E0005EC083E080935F041092F303CFCF809199
:1039F000F303803208F04EC0E091F30381E08E0FB4
:103A00008093F3038091BB00F0E0EC50FC4F808387
:103A1000BDCF8091F303803230F4E091F303F0E006
:103A2000EC50FC4F10821ADF6091F30370E0E091DC
:103A30005804F091590484EF93E009951092F30330
:103A400017DF35C084E080935F0410921504109254
:103A50001404E0915A04F0915B04099580911404D8
:103A6000811105C081E08093140410921604E09146
:103A7000150481E08E0F80931504F0E0EA5EFB4FA1
:103A800080818093BB009091150480911404981755
:103A900008F47CCF85E88093BC0009C085EC809356
:103AA000BC0010925F0403C01092F203D7DEFF91B6
:103AB000EF91BF91AF919F918F917F916F915F91A6
:103AC0004F913F912F910F900FBE0F901F9018951F
:103AD000A1E21A2EAA1BBB1BFD010DC0AA1FBB1F12
:103AE000EE1FFF1FA217B307E407F50720F0A21B84
:103AF000B30BE40BF50B661F771F881F991F1A94F1
:103B000069F760957095809590959B01AC01BD011A
:103B1000CF010895052E97FB16F400940FD057FDA2
:103B200005D0D6DF07FC02D046F408C0509540957A
:103B3000309521953F4F4F4F5F4F08959095809559
:103B4000709561957F4F8F4F9F4F0895EE0FFF1F28
:103B50000590F491E02D0994CF93DF938230910585
:103B600010F482E090E0E0916204F091630420E0C0
:103B700030E0A0E0B0E0309739F140815181481742
:103B80005907B8F04817590771F48281938110974B
:103B900029F013969C938E9312972CC090936304F4
:103BA0008093620427C02115310531F04217530775
:103BB00018F0A901DB0101C0EF019A01BD01DF018D
:103BC0000280F381E02DD7CF21153105F9F0281BB4
:103BD000390B2430310580F48A819B816115710590
:103BE00021F0FB019383828304C09093630480934C
:103BF0006204FE01329644C0FE01E20FF31F81937E
:103C0000919322503109398328833AC0209160046E
:103C100030916104232B41F4209102013091030182
:103C200030936104209360042091000130910101E0
:103C30002115310541F42DB73EB740910401509153
:103C40000501241B350BE0916004F0916104E2173B
:103C5000F307A0F42E1B3F0B2817390778F0AC01AF
:103C60004E5F5F4F2417350748F04E0F5F1F50938C
:103C70006104409360048193919302C0E0E0F0E01E
:103C8000CF01DF91CF910895CF93DF93009709F48F
:103C900087C0FC01329713821282C0916204D091D6
:103CA0006304209781F420813181280F391F80918E
:103CB0006004909161048217930779F5F093610491
:103CC000E09360046DC0DE0120E030E0AE17BF0776
:103CD00050F412964D915C9113979D014115510539
:103CE00009F1DA01F3CFB383A28340815181840FBC
:103CF000951F8A179B0771F48D919C911197840FE2
:103D0000951F02969183808312968D919C911397B3
:103D1000938382832115310529F4F0936304E093A2
:103D200062043EC0D9011396FC93EE9312974D9115
:103D30005D91A40FB51FEA17FB0779F4808191818B
:103D4000840F951F0296D90111969C938E938281C0
:103D5000938113969C938E931297E0E0F0E08A8112
:103D60009B81009719F0FE01EC01F9CFCE0102967C
:103D700028813981820F931F209160043091610462
:103D80002817390769F4309729F4109263041092C8
:103D9000620402C013821282D0936104C093600453
:103DA000DF91CF910895A0E0B0E0E8EDFEE11EC103
:103DB000EC01CB01209711F4CFDEB4C0FE01E60F79
:103DC000F71F9E0122503109E217F30708F4A8C03B
:103DD000D9010D911C91119706171707B0F0053006
:103DE000110508F49BC0A801445051094617570714
:103DF00008F494C002501109061B170B019311938C
:103E00006D937C93CF0140DF89C05B01A01AB10A9A
:103E10004E01800E911EA0916204B0916304612C4A
:103E2000712C60E070E0109709F449C0A815B9053D
:103E3000C9F5ED90FC901197670142E0C40ED11CCA
:103E4000CA14DB0478F147018A189B08640142E038
:103E5000C40ED11C1296BC9012971396AC91B5E08B
:103E6000CB16D10440F0B282A38391828082D90123
:103E70008D939C9309C00E5F1F4F0E0D1F1DF901FE
:103E800011830083EB2DFA2F6115710531F0DB01F1
:103E90001396FC93EE93129741C0F0936304E09362
:103EA00062043CC06D917C9111976616770608F408
:103EB0003B01BD0112960D90BC91A02DB4CF609135
:103EC00060047091610468157905E9F46816790653
:103ED000D0F440910001509101014115510541F488
:103EE0004DB75EB76091040170910501461B570BF9
:103EF000E417F507A8F4F0936104E0936004F90176
:103F0000918380830BC028DE7C01009749F0A801D3
:103F1000BE010CD0CE01B8DEC70104C0CE0102C084
:103F200080E090E0CDB7DEB7EEE07CC0FB01DC01C5
:103F300002C001900D9241505040D8F70895FB0106
:103F4000DC0101900D920020E1F70895FB01DC01F6
:103F50004150504048F001900D920020C9F701C037
:103F60001D9241505040E0F708954532510518F434
:103F7000423008F004C0FB011082CB010895BB273A
:103F80004A3031F4992322F4BDE2909581959F4FF8
:103F900001C0BB27FB015527AA27880F991FAA1F1D
:103FA000A41710F0A41B83955051B9F7A05DAA3354
:103FB00008F0A95DA193009779F7B111B19311921F
:103FC000CB0100C0DC01FC01672F71917723E1F781
:103FD000329704C07C916D9370836291AE17BF07D6
:103FE000C8F308952F923F924F925F926F927F9203
:103FF0008F929F92AF92BF92CF92DF92EF92FF92F9
:104000000F931F93CF93DF93CDB7DEB7CA1BDB0BA4
:104010000FB6F894DEBF0FBECDBF09942A88398849
:1040200048885F846E847D848C849B84AA84B98450
:10403000C884DF80EE80FD800C811B81AA81B9815C
:10404000CE0FD11D0FB6F894DEBF0FBECDBFED0170
:064050000895F894FFCF73
:104056000000640420005A005700540052004F002C
:104066004C004A004600440041003E003B00380038
:10407600340031002D002900250020001B0014000B
:104086000A00000000000000000000000000000020
:10409600000000000000000000000000000000001A
:1040A600000000000000000000000000F6FFECFF2A
:1040B600E5FFE0FFDBFFD7FFD3FFCFFFCCFFC8FF55
:1040C600C5FFCCFFBFFFBCFFB9FFB6FFB4FFB1FF12
:1040D600AEFFABFFA9FF00000300050008000B00C0
:1040E6000E0010001300160019001C001F0022000D
:1040F600260029002D00310035003A003F00460019
:1041060000000000000000000000000000000000A9
:104116000000000000000000000000000000000099
:10412600000000000000000000000000B0FFBAFF21
:10413600C1FFC6FFCBFFCFFFD3FFD7FFDAFFDEFFFE
:10414600E1FFE4FFE7FFEAFFEDFFF0FFF2FFF5FF17
:10415600F8FFFBFFFDFF7A130C02D318084000009E
:1041660000801D03000000007C0B980C000000007E
:104176007C0B980C00000000581021102B103C12EC
:10418600141328102A1000000000EB1ABF1A941A04
:064196009C1AAF1ABE1ACC
:00000001FF
