:100000000C945D0B0C94840B0C94840B0C94840B5B
:100010000C94840B0C94840B0C94840B0C94840B24
:100020000C94840B0C94840B0C94840B0C94840B14
:100030000C94840B0C94840B0C94840B0C94840B04
:100040000C94CE110C94840B0C944A100C947C10DC
:100050000C94840B0C94840B0C94840B0C94840BE4
:100060000C94840B0C94840BFFE0FFD1AFFF32FFA4
:10007000D0FFFEFFE0FFD1AEFFD0FFFEFFE0FFD1DB
:100080001000FFFEFFD0FFE0FFC1FFD1AED580A87A
:100090003FD300408D142000A1C8DA1281CFD9F1DE
:1000A000DB402EA4A6AFFFD0FFFE00000008000238
:1000B000010000030407000000000000000001022E
:1000C00004081020408001020408102001020408E6
:1000D00010200404040404040404020202020202C4
:1000E000030303030303000000002300260029008C
:1000F00000000000250028002B0000000000240064
:1001000027002A0000101000FE0A06A7089500FF2D
:10011000FE0EFE0BFE1010201000FEAAAA000180A9
:1001200000000180004A51EA505A51C99E000180E6
:1001300000000180000001800055551010201000C3
:10014000FEAAAA00018000000180003993C2523249
:100150005F8A527193800000018000000180005589
:10016000551010201000FEAAAA0001800000018096
:10017000003BA5C12431198924712580000001802C
:10018000000001800055551010201000FEAAAA00A2
:10019000018000000180007BA5C1247919C1247968
:1001A00025800000018000000180005555101020BE
:1001B0001000FEAAAA000180000001800079BFC2E1
:1001C000487A49C248798980000001800000018096
:1001D0000055551010201000FEAAAA000180000052
:1001E0000180007A4DC2527B53C2D67A4F80000004
:1001F0000180000001800055551010201000FEAA5B
:10020000AA000180000001800031A5CA287A31CA05
:100210002849A5800000018000000180005555108C
:1002200010201000FEAAAA000180000001800073C7
:10023000D1CA1073D1CA1073DF80000001800000A2
:1002400001800055551010201000FEAAAA00018060
:1002500000000180001E3991401E3191081E7180FE
:100260000000018000000180005555101020100092
:10027000FEAAAA000180000001800022F9A2203E0F
:1002800021A2202221800000018000000180005571
:10029000551010201000FEAAAA0001800000018065
:1002A0000020F9A08020F9A0803E8180000001801C
:1002B000000001800055551010201000FEAAAA0071
:1002C0000180000001800022F9A220222194200850
:1002D0002180000001800000018000555510102091
:1002E0001000FEAAAA00018000000180003EF9A0D3
:1002F000803EF9A080208180000001800000018004
:100300000055551010201000FEAAAA000180000020
:100310000180001EF1A08820F1A0901E89800000BD
:100320000180000001800055551010201000FEAA29
:10033000AA00018000000180001E71A0881C898233
:10034000883C71800000018000000180005555103C
:1003500010201000FEAAAA00018000000180001EEB
:10036000F9A0201C2182203CF980000001800000BF
:1003700001800055551010201000FEAAAA0001802F
:100380000000018000391DA510251DA51039DD8054
:100390000000018000000180005555101020100061
:1003A000FEAAAA00018000000180007189CA184AD3
:1003B00009CA08719D80000001800000018000557D
:1003C000551010201000FEAAAA0001800000018034
:1003D000007199CA044A09CA10719D800000018009
:1003E000000001800055551010201000FEAAAA0040
:1003F000018000000180007199CA044A19CA047181
:1004000099800000018000000180005555101020E7
:100410001000FEAAAA00018000000180007185CAB8
:100420000C4A15CA1C718580000001800000018003
:100430000055551010201000FEAAAA0001800000EF
:100440000180004993EA546A59DBD44A5380000082
:100450000180000001800055551010201000FEAAF8
:10046000AA00018000000180003453C29A3117892C
:1004700012711380000001800000018000555510AA
:1004800010201000FEAAAA00018000000180007B5D
:10049000B9C1247939C12479398000000180000074
:1004A00001800055551010201000FEAAAA000180FE
:1004B00000000180003325C4B447ADC4A434A58036
:1004C0000000018000000180005555101020100030
:1004D000FEAAAA00018000000180003E89A0D83E4B
:1004E000A9A0883E8980000001800000018000559D
:1004F000551010201000FEAAAA0001800000018003
:10050000003A5DC252325D8A52719D8000000180C6
:10051000000001800055551010201000FEAAAA000E
:100520000180000001800079CFC2107991C0507B1A
:100530008F800000018000000180005555101020C0
:100540001000FEAAAA00018000000180001E719028
:10055000801E61901010E180000001800000018089
:100560000055551010201000FEAAAA0001800000BE
:100570000180000E719080166192100EE1800000E3
:100580000180000001800055551010201000FEAAC7
:10059000AA00018000000180001C7192801C6194FF
:1005A0001012E1800000018000000180005555100C
:1005B00010201000FEAAAA00018000000180001295
:1005C000719280126192100CE180000001800000A5
:1005D000018000555500000008000E010A0A0804B9
:1005E0000080808080808080008080050404080274
:1005F0000888888888060A0A080100242424FC4800
:1006000048FC909090070A0A080100107C929070B4
:100610001C12927C10070A0A080100629494681068
:10062000102C52528C070A0A080100384444283022
:10063000528A848C7201040408040880808080033C
:100640000C0C0803FF204040808080808080404068
:1006500020030C0C0802FF80404020202020202096
:100660004040800707070801011092543854921047
:10067000070707080101101010FE101010020404F3
:100680000803FEC0404080040101080204F0020299
:1006900002080300C0C0060A0A080100040408108A
:1006A000102020408080060A0A0801003048848417
:1006B000848484844830050A0A0802002060A0204F
:1006C0002020202020F8060A0A08010078848404EB
:1006D0001820408080FC060A0A08010078848404FF
:1006E000380404848478060A0A0801000818284897
:1006F0008888FC080808060A0A080100FC80808037
:10070000F80404048478060A0A080100384080804E
:10071000F88484848478060A0A080100FC0404082A
:10072000080810101010060A0A0801007884848452
:10073000788484848478060A0A0801007884848492
:100740007C0404040870020707080301C0C000000D
:1007500000C0C00209090803FFC0C0000000C0407B
:100760004080050909080200081020408040201040
:1007700008060505080102FC000000FC050909083F
:100780000100804020100810204080060A0A08015D
:100790000078848404081010001010060A0A08016A
:1007A00000384494ACA4A4A49C403C060A0A080166
:1007B000003048488484FC84848484060A0A080142
:1007C00000F8848484F884848484F8060A0A080182
:1007D0000078848480808080848478060A0A0801F6
:1007E00000F08884848484848488F0060A0A0801DE
:1007F00000FC808080F880808080FC060A0A080166
:1008000000FC808080F88080808080060A0A0801D1
:100810000078848480809C84848C74060A0A080191
:100820000084848484FC8484848484050A0A080205
:1008300000F82020202020202020F8070A0A0801A4
:10084000003E080808080808888870060A0A080197
:1008500000848890A0C0C0A0908884060A0A08017D
:1008600000808080808080808080FC060A0A0801E9
:10087000008484CCCCB4B484848484060A0A08013D
:100880000084C4C4A4A494948C8C84060A0A08012D
:100890000078848484848484848478060A0A080125
:1008A00000F8848484F88080808080070B0B080126
:1008B000FF78848484848484B4CC7806060A0A0889
:1008C0000100F8848484F89088888484060A0A08E1
:1008D000010078848480601804848478070A0A08F8
:1008E0000100FE101010101010101010060A0A0857
:1008F000010084848484848484848478070A0A08B8
:10090000010082828244444428281010060A0A0802
:10091000010084848484B4B4CCCC8484060A0A089C
:10092000010084844848303048488484070A0A0813
:10093000010082824444281010101010060A0A0890
:100940000100FC0404081020408080FC030C0C080B
:1009500004FFE080808080808080808080E0060AC4
:100960000A08010080804020201010080404030CB5
:100970000C0801FFE020202020202020202020E063
:100980000603030801093048840701010801FFFE3E
:1009900003030308020A80402006080808010078C3
:1009A00084047C84848C74060B0B08010080808096
:1009B000B8C484848484C4B8060808080100788414
:1009C000808080808478060B0B0801000404047486
:1009D0008C848484848C74060808080100788484DC
:1009E000FC80808478050B0B08010018202020F87B
:1009F000202020202020060B0B0801FE047488888C
:100A000088704078848478060B0B08010080808011
:100A1000B8C4848484848484050B0B0802002020DD
:100A20000060202020202020F8050D0D0801FE0880
:100A3000080018080808080808089060060B0B084A
:100A400001008080808890A0C0A0908884050B0B56
:100A500008020060202020202020202020F8070805
:100A600008080100EC92929292929292060808086D
:100A70000100B8C4848484848484060808080100C2
:100A80007884848484848478060A0A0801FEB8C4C1
:100A900084848484C4B88080060A0A0801FE748CA9
:100AA000848484848C740404060808080100B8C493
:100AB0008480808080800608080801007884806037
:100AC00018048478050A0A080100202020F8202054
:100AD0002020201806080808010084848484848467
:100AE0008C74060808080100848484484848303023
:100AF000070808080100829292929292926C06086E
:100B0000080801008484483030488484060A0A08B2
:100B100001FE84848484844C340404780608080824
:100B20000100FC040810204080FC030C0C0803FFAB
:100B3000608080404080804040808060010E0E08D0
:100B400004FE8080808080808080808080808080A3
:100B5000030C0C0802FFC020204040202040402011
:100B600020C007030308010862928C1010201000B7
:100B7000FEAAAA000180000001800073D1CA104BB8
:100B8000D1CA1073DF800000018000000180005591
:100B9000551010201000FEAAAA000180000001805C
:100BA00000719DCA5273D3C252425D800000018021
:100BB000000001800055551010201000FEAAAA0068
:100BC00001800000018000499DCA527A5DCA5049E7
:100BD0009180000001800000018000555510102018
:100BE0001000FEAAAA00018000000180007393CAD1
:100BF00052739FCA127213800000018000000180AE
:100C00000055551010201000FEAAAA000180000017
:100C10000180004B93EA525B9FCA524B93800000C5
:100C20000180000001800055551010201000FEAA20
:100C3000AA000180000001800074B9A6A425A5A423
:100C4000A474B98000000180000001800055551097
:100C500010201000FEAAAA00018000000180004BB5
:100C6000D1EA105BD1CA104BDF8000000180000088
:100C700001800055551010201000FEAAAA00018026
:100C8000000001800039CDC212319F8852739380D9
:100C90000000018000000180005555101020100058
:100CA000FEAAAA000180000001800079CDC212795D
:100CB0009FC0527B9380000001800000018000559E
:100CC000551010201000FEAAAA000180000001802B
:100CD000004B9DC9207919C9044939800000018061
:100CE000000001800055551010201000FEAAAA0037
:100CF0000180000001800025DDA4843C85A48424BB
:100D000099800000018000000180005555101020DE
:100D10001000FEAAAA000180000001800045CDC499
:100D2000904489A88410998000000180000001800F
:100D30000055551010201000FEAAAA0001800000E6
:100D4000018000721DCA127213C21243DD800000BE
:100D50000180000001800055551010201000FEAAEF
:100D6000AA00018000000180007213CA127213C22F
:100D70001243CD8000000180000001800055551015
:100D800010201000FEAAAA00018000000180000EC1
:100D90002189200E218A2009218000000180000085
:100DA00001800055551010201000FEAAAA000180F5
:100DB000000001800039DDC202318D8850739F80B0
:100DC0000000018000000180005555101020100027
:100DD000FEAAAA000180000001800039DDC20231B4
:100DE0008D8842739D8000000180000001800055C5
:100DF000551010201000FEAAAA00018000000180FA
:100E00000071CFCA104A0DCA0271DD800000018056
:100E1000000001800055551010201000FEAAAA0005
:100E2000018000000180007245CA4C7245C24441F5
:100E30008F800000018000000180005555101020B7
:100E40001000FEAAAA0001800000018000725DCAA5
:100E500042724DC250419F8000000180000001801D
:100E60000055551010201000FEAAAA0001800000B5
:100E70000180003B9DC12031198904713980000037
:100E80000180000001800055551010201000FEAABE
:100E9000AA000180000001800039D3C212421FC2A3
:100EA0001239D380000001800000018000555510E8
:100EB00010201000FEAAAA0001800000018000227C
:100EC00089B6882AA9A2D822898000000180000062
:100ED00001800055551010201000FEAAAA000180C4
:100EE00000000180003B8DC252339F8A1272138032
:100EF00000000180000001800055551010201000F6
:100F0000FEAAAA00018000000180007B8DC2527BF6
:100F10009FC2127A138000000180000001800055FA
:100F2000551010201000FEAAAA00018000000180C8
:100F300000398FC250324D8A42719D80000001807D
:100F4000000001800055551010201000FEAAAA00D4
:100F500001800000018000339BC42225A394A2637A
:100F60009B8000000180000001800055551010207A
:100F70001000FEAAAA000180000001800039DDC235
:100F80000832098A0871DD800000018000000180BC
:100F90000055551010201000FEAAAA000180000084
:100FA00001800039DDC2084189C0483B9D800000B6
:100FB0000180000001800055551010201000FEAA8D
:100FC000AA00018000000180000EF990200C21820F
:100FD000201C218000000180000001800055551078
:100FE00010201000FEAAAA0001800000018000313C
:100FF000CFCA104991C850338F8000000180000093
:1010000001800055551010201000FEAAAA00018092
:1010100000000180001C8992D81CA990881089804A
:1010200000000180000001800055551010201000C4
:10103000FEAAAA0001800000018000338FCA507B05
:1010400091CA104A0F800000018000000180005505
:101050005500000008000E010A0A08040080800004
:1010600080808080808080070A0A08010010107C40
:10107000929090927C1010070A0A0801001C202010
:1010800020F82020207CC206080808010184487846
:101090004848784884070A0A08010082442810FE5C
:1010A00010FE101010010A0A0804008080808000E1
:1010B0000080808080060A0A080100788480788495
:1010C000847804847804020208020C9090080A0ACA
:1010D0000800003C4299A5A1A1A599423C0507073B
:1010E000080205700878887800F8060909080100E8
:1010F000242448489048482424060404080100FC9D
:101100000404041010201000FEAAAA000180003A76
:1011100063C25433C98A48724980000001800003C9
:10112000C18000000180005555080A0A0800003CF3
:1011300042B9A5A5B9A9A5423C06010108010BFCCD
:1011400003040408020A40A0A0400709090801019D
:10115000101010FE10101000FE05070708020570A1
:101160008808708080F805070708020570880870F5
:1011700008887003030308030A204080080A0A084D
:1011800000FE42424242424266594080060C0C0830
:1011900001FF7CF4F4F4F47414141414141C02020B
:1011A00002080304C0C00302020802FE20C00307B5
:1011B000070802052060A02020202005070708025C
:1011C00005708888887000F8060909080100909069
:1011D00048482448489090060A0A08010044C44838
:1011E0005050242C549C84060A0A08010044C44828
:1011F0005050283444889C060A0A080100C4244838
:1012000030D0242C549C84060A0A080100101000D7
:1012100010106084848478060E0E080100601800A7
:10122000003048488484FC84848484060E0E0801BF
:1012300000186000003048488484FC84848484065C
:101240000E0E080100304800003048488484FC84B9
:10125000848484060E0E080100649800003048481B
:101260008484FC84848484060E0E080100484800AF
:10127000003048488484FC84848484060E0E08016F
:1012800000304830003048488484FC8484848407DB
:101290000A0A0801003E509090FE909090909E06A1
:1012A0000C0C0801FE78848480808080848478100F
:1012B00060060E0E08010060180000FC808080F8B7
:1012C00080808080FC060E0E08010018600000FC83
:1012D000808080F880808080FC060E0E080100303F
:1012E000480000FC808080F880808080FC060E0E24
:1012F00008010048480000FC808080F880808080E1
:10130000FC050E0E08020060180000F820202020C6
:1013100020202020F8050E0E08020030C00000F842
:101320002020202020202020F8050E0E080200603A
:10133000900000F82020202020202020F8050E0E0C
:1013400008020090900000F820202020202020207B
:10135000F8070A0A08000078444242F24242424436
:1013600078060E0E0801006498000084C4C4A4A48A
:1013700094948C8C84060E0E08010060180000788E
:10138000848484848484848478060E0E0801001882
:1013900060000078848484848484848478060E0EBB
:1013A0000801003048000078848484848484848424
:1013B00078060E0E08010064980000788484848406
:1013C0008484848478060E0E080100484800007862
:1013D00084848484848484847806050508010284D6
:1013E00048304884060C0C0801FF0474888C9494DF
:1013F000A4A4C444B880060E0E08010060180000C2
:1014000084848484848484848478060E0E08010095
:101410001860000084848484848484848478060E24
:101420000E0801003048000084848484848484840D
:101430008478060E0E0801004848000084848484E5
:10144000848484848478070E0E08010018600000EC
:1014500082824444281010101010060B0B08010063
:101460008080F088848488F0808080060A0A0801E1
:101470000070888890B0888484A498060C0C0801B9
:1014800000601800007884047C84848C74060C0C42
:10149000080100186000007884047C84848C740641
:1014A0000C0C080100304800007884047C84848C93
:1014B00074060C0C080100649800007884047C8495
:1014C000848C74060C0C08010048480000788404E1
:1014D0007C84848C74060D0D0801003048300000B7
:1014E0007884047C84848C740708080801007C924A
:1014F000127E9090927C060A0A0801FE7884808011
:10150000808084781060060C0C08010060180000D0
:10151000788484FC80808478060C0C0801001860B4
:101520000000788484FC80808478060C0C0801001C
:1015300030480000788484FC80808478060C0C0895
:10154000010048480000788484FC80808478050C81
:101550000C080200C030000060202020202020F86D
:10156000050C0C08020030C0000060202020202064
:1015700020F8050C0C08020060900000602020207C
:10158000202020F8050C0C0802009090000060203C
:101590002020202020F8060C0C08010064182844A4
:1015A000047C848484848478060C0C08010064988C
:1015B0000000B8C4848484848484060C0C08010070
:1015C000601800007884848484848478060C0C0875
:1015D0000100186000007884848484848478060C78
:1015E0000C08010030480000788484848484847866
:1015F000060C0C08010064980000788484848484BC
:101600008478060C0C080100484800007884848423
:1016100084848478060707080101300000FC00007C
:1016200030060A0A0801FF04788C9494A4A4C478B4
:1016300080060C0C080100601800008484848484F7
:10164000848C74060C0C08010018600000848484EB
:101650008484848C74060C0C0801003048000084DB
:1016600084848484848C74060C0C0801004848002F
:10167000008484848484848C74060E0E0801FE1811
:1016800060000084848484844C34040478050C0C49
:101690000802FE8080F088888890A0C08080800644
:1016A0000E0E0801FE4848000084848484844C3473
:1016B00004047800C60EAA10FD0E11241FBECFEF41
:1016C000D8E0DEBFCDBF12E0A0E0B1E0EEE6F9E485
:1016D00002C005900D92A238B107D9F724E0A2E824
:1016E000B2E001C01D92A631B207E1F716E1C8EBE6
:1016F000D6E104C02297FE010E94841FC43BD1079B
:10170000C9F740D60C94AB240C94000024E332E0DB
:10171000FC013183208308950895CF93DF93EC017A
:10172000262F4CAD6BAD04960E944C142BAD99271F
:1017300087FD9095820F911D8BAF81E090E0DF9146
:10174000CF91089524E332E0FC013183208324C645
:10175000CF93DF93CDB7DEB7E1970FB6F894DEBF36
:101760000FBECDBF82E892E00E948A1926E040E8D1
:1017700055E260E070E089EE92E02AD484EC92E0D9
:101780000E94861B6DE171E0CE010196B9D5BE01C4
:101790006F5F7F4F82E892E00E943219CE0101967E
:1017A00044D58091D9028BA789E692E09AA789A7B0
:1017B0008091DA029091DB029DA78CA78091DC02D8
:1017C0009091DD02A091DE02B091DF028EA79FA76B
:1017D000A8ABB9ABBE016F5F7F4FCE0189960E9467
:1017E000BE1B6AE371E0CE0189968AD5BE01675DB2
:1017F0007F4F82E892E00E943219CE01899615D57A
:101800006FE571E0CE0189967BD5BE01675D7F4FA4
:1018100082E892E00E943219CE01899606D56BE6E5
:1018200071E0CE0189966CD5BE01675D7F4F82E87D
:1018300092E00E943219CE018996F7D4BE016F5F03
:101840007F4FCE0189965CD5BE01675D7F4F82E8F0
:1018500092E00E943219CE018996E7D46AE771E0DE
:10186000CE0189964DD5BE01675D7F4F82E892E03B
:101870000E943219CE018996D8D44D855E856F8538
:10188000788982E892E00E94671969E871E0CE01E8
:10189000899636D5BE01675D7F4F82E892E00E944F
:1018A0003219CE018996C1D449895A896B897C89BC
:1018B00082E892E00E94671968E971E0CE0189969A
:1018C0001FD5BE01675D7F4F82E892E00E9432190A
:1018D000CE018996AAD4498D5A8D6B8D7C8D82E874
:1018E00092E00E948E1A67EA71E0CE01899608D5CF
:1018F000BE01675D7F4F82E892E00E943219CE01FF
:10190000899693D46BEA71E0CE018996F9D4BE0131
:10191000675D7F4F82E892E00E943219CE0189967E
:1019200084D44D8D5E8D6F8D78A182E892E00E9407
:101930008E1A67EA71E0CE018996E2D4BE01675D36
:101940007F4F82E892E00E943219CE0189966DD4D1
:101950006AEB71E0CE018996D3D4BE01675D7F4FFB
:1019600082E892E00E943219CE0189965ED449A1A4
:101970005AA16BA17CA182E892E00E948E1A67EACC
:1019800071E0CE018996BCD4BE01675D7F4F82E8CD
:1019900092E00E943219CE01899647D46AE371E041
:1019A000CE018996ADD4BE01675D7F4F82E892E09B
:1019B0000E943219CE01899638D48091E2028BA719
:1019C00087E792E09AA789A78091E3029091E402C9
:1019D0009DA78CA78091E5029091E602A091E70275
:1019E000B091E8028EA79FA7A8ABB9ABBE016F5F0D
:1019F0007F4FCE0189960E94361C6AE371E0CE01CA
:101A000089967ED4BE01675D7F4F82E892E00E9496
:101A10003219CE01899609D469EC71E0CE0189961C
:101A20006FD4BE01675D7F4F82E892E00E94321959
:101A3000CE018996FAD36BE671E0CE01899660D427
:101A4000BE01675D7F4F82E892E00E943219CE01AD
:101A50008996EBD3BE016F5F7F4FCE01899650D43C
:101A6000BE01675D7F4F82E892E00E943219CE018D
:101A70008996DBD36AE771E0CE01899641D4BE0135
:101A8000675D7F4F82E892E00E943219CE0189960D
:101A9000CCD34D855E856F85788982E892E00E947F
:101AA000671969E871E0CE0189962AD4BE01675DA5
:101AB0007F4F82E892E00E943219CE018996B5D319
:101AC00049895A896B897C8982E892E00E9467196A
:101AD00068E971E0CE01899613D4BE01675D7F4F3E
:101AE00082E892E00E943219CE0189969ED3498DF8
:101AF0005A8D6B8D7C8D82E892E00E948E1A62ED89
:101B000071E0CE018996FCD3BE01675D7F4F82E80C
:101B100092E00E943219CE01899687D36BEA71E078
:101B2000CE018996EDD3BE01675D7F4F82E892E0DA
:101B30000E943219CE01899678D34D8D5E8D6F8DBE
:101B400078A182E892E00E948E1A62ED71E0CE01E7
:101B50008996D6D3BE01675D7F4F82E892E00E94EE
:101B60003219CE01899661D36AEB71E0CE01899674
:101B7000C7D3BE01675D7F4F82E892E00E943219B1
:101B8000CE01899652D349A15AA16BA17CA182E8CA
:101B900092E00E948E1A62ED71E0CE018996B0D378
:101BA000BE01675D7F4F82E892E00E943219CE014C
:101BB00089963BD36AE371E0CE018996A1D3BE0139
:101BC000675D7F4F82E892E00E943219CE018996CC
:101BD0002CD36DA17EA18FA198A528EE33E040E023
:101BE00050E00E94661F2093C0023093C1024093D0
:101BF000C2025093C302E1960FB6F894DEBF0FBE47
:101C0000CDBFDF91CF910895CF93DF93CDB7DEB7EE
:101C1000AD970FB6F894DEBF0FBECDBF6091C00286
:101C20007091C1028091C2029091C30230D4809120
:101C3000D9028FA389E692E09EA38DA38091DA0258
:101C40009091DB0299A788A78091DC029091DD0238
:101C5000A091DE02B091DF028AA79BA7ACA7BDA727
:101C6000BE016F5F7F4FCE0185960E94DC1A6D89A1
:101C70007E898F89988D9B01AC010E940F22882359
:101C800019F064ED71E019C06FEE71E0CE01859638
:101C900037D3BE016B5D7F4F82E892E00E9432191C
:101CA000CE018596C2D24D895E896F89788D82E892
:101CB00092E00E948E1A67EA71E0CE01859620D3E9
:101CC000BE016B5D7F4F82E892E00E943219CE0127
:101CD0008596ABD28091E2028FA387E792E09EA324
:101CE0008DA38091E3029091E40299A788A7809147
:101CF000E5029091E602A091E702B091E8028AA77E
:101D00009BA7ACA7BDA7BE016F5F7F4FCE01859695
:101D10000E94161B6D897E898F89988D9B01AC016D
:101D20000E940F22882319F06DEF71E019C065E160
:101D300072E0CE018596E4D2BE016B5D7F4F82E8F2
:101D400092E00E943219CE0185966FD24D895E894C
:101D50006F89788D82E892E00E948E1A62ED71E0C0
:101D6000CE018596CDD2BE016B5D7F4F82E892E0B9
:101D70000E943219CE01859658D2AD960FB6F894CE
:101D8000DEBF0FBECDBFDF91CF910895AF92BF925E
:101D9000CF92DF92EF92FF920F931F93CF93DF9337
:101DA000AA24AA94BA2C6501EE24EA94FE2C870199
:101DB00026E046E162E084EC92E00E944F1B109224
:101DC000850210928402C2E8D2E084E292E0998314
:101DD000888340E066E071E0CE01C5D38CE292E0FA
:101DE00099838883DF91CF911F910F91FF90EF909E
:101DF000DF90CF90BF90AF90089584E392E09093EE
:101E0000E1028093E0029093D8028093D702089574
:101E1000FC01818D228D90E0805C9F4F821B910997
:101E20008F7399270895FC01918D828D981731F059
:101E3000828DE80FF11D858D90E008958FEF9FEF63
:101E40000895FC01918D828D981761F0828DDF01DC
:101E5000A80FB11D5D968C91928D9F5F9F73928F9D
:101E600090E008958FEF9FEF089581EA90E1892B2C
:101E700041F080E090E0892B21F063D181110C9436
:101E800000000895FC01848DDF01A80FB11DA35A45
:101E9000BF4F2C91848D90E001968F739927848F8A
:101EA000A689B7892C93A089B1898C9180648C9381
:101EB000938D848D981306C00288F389E02D80816C
:101EC0008F7D80830895CF93DF93EC01888D8823E5
:101ED000C1F0EA89FB89808185FD05C0A889B9899F
:101EE0008C9186FD0EC00FB607FCF5CF808185FF73
:101EF000F2CFA889B9898C9185FFEDCFCE01C2DFE1
:101F0000E8CFDF91CF910895CF92DF92FF920F93A8
:101F10001F93CF93DF931F92CDB7DEB76C01DC0127
:101F20005B969C915B975C968C915C97981307C02D
:101F30005096ED91FC915197808185FD31C0F6015D
:101F4000038D10E00F5F1F4F0F731127F02EF60166
:101F5000848DF81210C00FB607FCF9CFD601509649
:101F6000ED91FC915197808185FFF1CFC601698386
:101F700089DF6981ECCF838DE80FF11DE35AFF4FB4
:101F80006083D6015B960C935B975296ED91FC9122
:101F9000539780818062808381E058968C930DC036
:101FA000D6015696ED91FC91579760835096ED912E
:101FB000FC91519780818064808381E090E00F9054
:101FC000DF91CF911F910F91FF90DF90CF900895F7
:101FD000BF92CF92DF92EF92FF92CF93DF93EC010B
:101FE0006A017B01B22EE889F98982E0808341157C
:101FF00081EE580761057105A1F060E079E08DE39D
:1020000090E0A70196010E94441F21503109410927
:1020100051095695479537952795211580E1380741
:1020200098F0E889F989108260E874E88EE190E020
:10203000A70196010E94441F21503109410951090D
:102040005695479537952795EC85FD853083EE8528
:10205000FF852083188EEC89FD89B082EA89FB898F
:10206000808180618083EA89FB89808188608083A8
:10207000EA89FB89808180688083EA89FB89808185
:102080008F7D8083DF91CF91FF90EF90DF90CF9095
:10209000BF9008951F920F920FB60F9211242F93A5
:1020A0008F939F93EF93FF93E091F902F091FA02DF
:1020B0008081E091FF02F091000382FD12C09081C7
:1020C000809102038F5F8F7320910303821751F079
:1020D000E0910203F0E0E751FD4F958F80930203FA
:1020E00001C08081FF91EF919F918F912F910F906F
:1020F0000FBE0F901F9018951F920F920FB60F9260
:1021000011242F933F934F935F936F937F938F93FC
:102110009F93AF93BF93EF93FF9389EE92E0B2DE6C
:10212000FF91EF91BF91AF919F918F917F916F91AF
:102130005F914F913F912F910F900FBE0F901F9085
:10214000189589EE92E064DE21E0892B09F420E005
:10215000822F08951092EC021092EB0288EE93E029
:10216000A0E0B0E08093ED029093EE02A093EF0226
:10217000B093F00282E492E09093EA028093E90245
:1021800085EC90E09093F6028093F50284EC90E069
:102190009093F8028093F70280EC90E09093FA021B
:1021A0008093F90281EC90E09093FC028093FB0213
:1021B00082EC90E09093FE028093FD0286EC90E02A
:1021C000909300038093FF02109202031092030386
:1021D00010920403109205030895CF92DF92EF92BC
:1021E000FF920F931F93CF93DF936C017A01EB0162
:1021F000E60EF71E00E010E0CE15DF0561F06991F4
:10220000D601ED91FC910190F081E02DC601099578
:10221000080F191FF1CFC801DF91CF911F910F91C6
:10222000FF90EF90DF90CF900895FC018081918125
:102230000C94AB22CF93DF93EC01888199810097B6
:1022400011F00E94AB22198218821D821C821B820F
:102250001A82DF91CF9108950F931F93CF93DF934D
:10226000EC018B016F5F7F4F888199810E943A2337
:10227000009731F0998388831B830A8381E001C032
:1022800080E0DF91CF911F910F910895CF93DF935D
:10229000EC0188819981892B29F08A819B8186179D
:1022A000970758F4CE01D8DF882341F08C819D81B7
:1022B000892B19F4E881F981108281E0DF91CF91B7
:1022C0000895EF92FF920F931F93CF93DF93EC014A
:1022D0007B018A01BA01DADF811103C0CE01AADFD6
:1022E00007C01D830C83B701888199810E94152442
:1022F000CE01DF91CF911F910F91FF90EF90089544
:10230000FC011182108213821282158214826115DF
:10231000710551F0FB0101900020E9F7AF01415038
:102320005109461B570BCDCF08950F931F93CF93A1
:10233000DF93EB0141155105E9F02097D9F0FC013D
:102340006481758126173707A0F4621B730B8A011D
:10235000015011096017710708F48B01FC016081BD
:102360007181620F731FA801CE010E941C24C00F4F
:10237000D11F1882DF91CF911F910F9108950E9474
:10238000FD230895B4D0FDDFE3D9C5E3DFE03CDCF5
:102390002097E9F36ADDFBCF0C94AB221F920F92DA
:1023A0000FB60F9211242F933F938F939F93AF9368
:1023B000BF938091870390918803A0918903B09186
:1023C0008A033091860323E0230F2D3720F40196F2
:1023D000A11DB11D05C026E8230F0296A11DB11D48
:1023E000209386038093870390938803A0938903A7
:1023F000B0938A0380918B0390918C03A0918D03FD
:10240000B0918E030196A11DB11D80938B03909313
:102410008C03A0938D03B0938E03BF91AF919F91D6
:102420008F913F912F910F900FBE0F901F90189595
:102430002FB7F89460918703709188038091890386
:1024400090918A032FBF08953FB7F89480918B0332
:1024500090918C03A0918D03B0918E0326B5A89B1B
:1024600005C02F3F19F00196A11DB11D3FBF662782
:10247000782F892F9A2F620F711D811D911D42E0C7
:10248000660F771F881F991F4A95D1F70895CF923D
:10249000DF92EF92FF92CF93DF936B017C01D4DF49
:1024A000EB01C114D104E104F10479F05BD0CCDF7D
:1024B0006C1B7D0B683E7340A0F381E0C81AD10805
:1024C000E108F108C851DC4FECCFDF91CF91FF90CC
:1024D000EF90DF90CF9008950197009739F0880F23
:1024E000991F880F991F02970197F1F70895789423
:1024F00084B5826084BD84B5816084BD85B5826009
:1025000085BD85B5816085BDEEE6F0E080818160A6
:102510008083E1E8F0E010828081826080838081A6
:1025200081608083E0E8F0E0808181608083E1EB7E
:10253000F0E0808184608083E0EBF0E08081816066
:102540008083EAE7F0E0808184608083808182601C
:102550008083808181608083808180688083109205
:10256000C10008950895FC0113AE14AE15AE049693
:1025700044C3BF92CF92DF92EF92FF920F931F93CB
:10258000CF93DF938C01EB01B42E690180E14817F2
:1025900079F1841760F0EAE04E1334C042E0C801DC
:1025A00089D444E850E0BE01C801C3D42BC0F1E196
:1025B0004F1709F185E1481325C0EA80FB804CE7FD
:1025C00050E0C801B6D4F7014481406BBE01C80198
:1025D000A0D441E0BE01C80193D4AE01B801C70147
:1025E00090D38823E9F040E0BE01C8016CD40AC052
:1025F00043E750E002C048E650E0BE01C80199D46C
:1026000081E00FC096014B2DBE01C801DF91CF9133
:102610001F910F91FF90EF90DF90CF90BF90E6C396
:1026200080E0DF91CF911F910F91FF90EF90DF90AD
:10263000CF90BF900895FC01E60FF11D849190E0CA
:10264000982F88273196E4918E0F911D0895FC01F3
:1026500084910895FCDF882311F0823011F486E024
:10266000089583E0089580E0089566E0E4CF68E08F
:10267000E2CF0A96FC01849108950B96FC018491A7
:102680000895BF92CF92DF92EF92FF920F931F9324
:10269000CF93DF93EC01E62E0C811D81C801D7DFBB
:1026A000F82E8C819D81D6DFB82E21E0F21619F02C
:1026B000CC24CA9402C05FE0C52E8C819D81D9DFF5
:1026C000F82E8C819D81D9DFD82E8C819D81CFDF22
:1026D000E0E6EE1538F4009729F0080F191F41E6DF
:1026E000F42E0FC08C819D81C0DFF0E4FE1538F41C
:1026F000009729F0080F191F31E4F32E02C00F5E76
:102700001F4FDE1440F4188A1B8A1C8A198A1A8A01
:1027100080E090E04FC0DF14B0F32B2D30E0F801E3
:1027200084918F3F19F40F5F1F4F3FC0FE1035C0DB
:102730008C819D818CDF98012F5F3F4FF8018823AA
:1027400011F0823091F484918B8BF90124912C8BC0
:10275000F8013396E491E88BF8013496E491E98B23
:10276000F8013596E491EA8B16C09491892F8F7009
:1027700082508A8B92959F70998BF9012491822FB8
:102780008F708C8B22952F702B8BF8013296E491F1
:10279000E295EF70E88BC8010DC0F8013296E49124
:1027A000EC210E0F111D020F131FFD1409F4ABCF06
:1027B000F394B5CFDF91CF911F910F91FF90EF90E0
:1027C000DF90CF90BF9008954F925F927F928F924B
:1027D0009F92AF92BF92CF92DF92EF92FF920F93B0
:1027E0001F93CF93DF931F92CDB7DEB72C01162F27
:1027F000742E622F46DF6C01009709F43BC0F20192
:102800008481958127DFF82EF201838804899188DD
:10281000910E8289781A172D101B282D412F692DB2
:10282000C20126D3882319F1CF0CD11CF7E08F0EFB
:10283000869486948694A82CB12C1715C1F0392D56
:1028400076018E2D8C19881570F4F701049120E023
:10285000412F632FC2013983FDD1FFEFEF1AFF0A29
:102860003981385FEECFCA0CDB1C1F5FE6CFF20167
:10287000808901C080E00F90DF91CF911F910F916F
:10288000FF90EF90DF90CF90BF90AF909F908F9090
:102890007F905F904F9008950F931F93CF93DF9396
:1028A00000D01F92CDB7DEB78C01DC015596ED91BB
:1028B000FC9156972B834A83698309954A81480F77
:1028C0002B816981C8010F900F900F90DF91CF91FC
:1028D0001F910F9179CFAF92BF92DF92EF92FF924B
:1028E0000F931F93CF93DF9300D0CDB7DEB78C014A
:1028F000E62EF42EDC015596ED91FC915697298336
:102900003A830995F80E2981A22E3A81B32ED12C53
:10291000F50121915F01222339F04F2D6E2DC80161
:1029200053DFE80ED80EF4CF8D2D0F900F90DF916E
:10293000CF911F910F91FF90EF90DF90BF90AF90DC
:102940000895DC0114968D919C911597009709F4D8
:102950003FC057962C915797FC01211108C035961E
:10296000E4915896EC935897FC013C9611C02130A5
:1029700041F43F96E4915896EC935897FC01709679
:1029800007C03D96E4915896EC935897FC013E960B
:10299000849159968C93599758968C91589799276A
:1029A00087FD909559962C915997821B910927FD87
:1029B00093955A962C915A97203441F0829FC001EA
:1029C0001124E6E096958795EA95E1F75B968C935E
:1029D000089523E333E1FC01368B258B0895CF93D3
:1029E000DF93EC018C819D818617970741F07D83F1
:1029F0006C83CE01A6DF83E393E19E8B8D8BDF9109
:102A0000CF9108951F93CF93DF93EC011D821C8219
:102A10001F821E82198681E0888782E28A871F864C
:102A20001E8680E090E02FEFFE01E80FF91F23A340
:102A300001968E309105C1F711E018A3CE01C9DFD0
:102A40001F8B188E198E80E48A8F1B8E87E397E187
:102A50009AAB89ABDF91CF911F910895DB01ED9186
:102A6000FC910994EF92FF921F93CF93DF9300D0D4
:102A7000CDB7DEB77C01DC01D196ED91FC91D29708
:102A800082E069837A83099520E030E04AE0698139
:102A90007A81C701E3DF182FD701D196ED91FC9120
:102AA000D29783E00995D701D196ED91FC91D29709
:102AB00080E00995812F0F900F90DF91CF911F91AA
:102AC000FF90EF9008950F931F93CF93DF93EC0146
:102AD0008B01E9A9FAA982E00995E9A9FAA981E09F
:102AE000099520E030E044E1B801CE01B7DF9E0156
:102AF0002D5C3F4F47E1B801CE01B0DFE9A9FAA94B
:102B000080E0DF91CF911F910F910994FF920F9375
:102B10001F93CF93DF93EC018B01E9A9FAA982E01F
:102B20000995E9A9FAA981E0099520E030E045E19D
:102B3000B801CE0193DFF82E882339F09E012D5C79
:102B40003F4F47E1B801CE0189DFE9A9FAA980E04A
:102B500009958F2DDF91CF911F910F91FF900895CF
:102B6000CF93DF931F92CDB7DEB79E012F5F3F4F0C
:102B700046E474DF89810F90DF91CF910895CF9360
:102B8000DF931F92CDB7DEB79E012F5F3F4F47E423
:102B900065DF89810F90DF91CF91089520E030E0CB
:102BA00048E45CCFCF93DF93EC016A817B81D8DF6F
:102BB00088836A817B81CE01E2DF89836A817B81A0
:102BC000CE01ECDF8B879E012D5C3F4F6A817B81BC
:102BD00047E1CE01DF91CF9141CFCF93DF93EC015D
:102BE0006A817B813FDF882321F0CE01DBDF81E03A
:102BF00001C080E0DF91CF910895EF92FF920F9393
:102C00001F93CF93DF931F92CDB7DEB77C018B016B
:102C10004983F8DEF70113830283498146A7C70180
:102C20000F90DF91CF911F910F91FF90EF90D5CF33
:102C3000FC016281738147CFCF93DF93EC01EE8576
:102C4000FF85309709F009956A817B81CE01DF917C
:102C5000CF915CCF0F93FC0182819381648F458F6C
:102C6000278F068F9F01245E3F4F4BE3BC01CF01AE
:102C70000F91F4CEFC0160A30895DC011696ED914E
:102C8000FC91179715968C919F01280F311DC90152
:102C90001192E817F907E1F70895FC0191E08381AB
:102CA000861708F490E021E0461708F020E0322F64
:102CB000392B81E05281451708F480E08323922369
:102CC000892B0895DC01FB01108212968C911297DA
:102CD000818315968C9115978150828313968C91E0
:102CE00083830895FB0141812381213029F0233022
:102CF00031F468EF640F04C0642F485F01C0642F93
:102D0000CCCFFC01CB01BA012681378145810AC1B4
:102D1000DC011696ED91FC91179712968C91481B49
:102D2000477081E090E0042E01C0880F0A94EAF712
:102D3000E60FF11D3081222311F0832B02C0809514
:102D4000832380830895FB014181DC0112962C913D
:102D50001297421760F013962C911397241738F0AE
:102D6000608115962C91621710F42481D1CF0895BB
:102D7000CF92DF92FF920F931F93CF93DF9300D0F8
:102D8000CDB7DEB78C016B01FB01F280838181300E
:102D900039F070F0823039F0833041F020E001C02A
:102DA00021E030E007C020E03FEF04C02FEFF9CF73
:102DB00020E031E0F7FE07C0B601C80129833A835D
:102DC000C2DF3A812981F6018081830F808381816E
:102DD000820F8183FF0C71F70F900F90DF91CF91DD
:102DE0001F910F91FF90DF90CF9008950F931F9345
:102DF000CF93DF938901FB01C281D3814233D9F0A4
:102E000058F44531E1F0473109F1443141F5CE0143
:102E100034DFCE01EBD123C04634E1F04734E1F09A
:102E20004B33E9F4B901CE015DDF8823C1F0B8016D
:102E3000CE019EDF14C0B901CE0185DF10C0CE01E6
:102E4000DCD1882371F0CE0118DF09C0B901CE01B1
:102E500039DF05C08D8101C08981F801808381E05F
:102E600001C080E0DF91CF911F910F9108950895E7
:102E70000F93FC010150040F84A996A9941718F030
:102E8000081728F402C0081750F0041740F4215026
:102E9000260F83A995A9961720F4281720F480E01F
:102EA00007C0281720F481E0261710F0F8CF81E042
:102EB0000F910895DB011496ED91FC91159720E098
:102EC00030E061E00994DB011496ED91FC911597D7
:102ED00020E030E063E00994DB011496ED91FC9171
:102EE000159720E030E040E064E00994DB0114969F
:102EF000ED91FC91159720E030E041E064E0099409
:102F0000DB011496ED91FC91159720E030E062E032
:102F10000994DB011496ED91FC91159720E030E0C7
:102F200065E00994DB011496ED91FC91159766E03C
:102F30000994AF92BF92CF92DF92EF92FF920F93DC
:102F40001F93CF93DF931F92CDB7DEB75C018B0148
:102F50007A0180E0F7014491811108C04F3FA1F14F
:102F6000B801C501D6DF811128C033C04F3FC1F37E
:102F70004E3F89F1403F08F5403E28F04F70B801C0
:102F8000C501BEDF1AC0403D28F04F70B801C50131
:102F90009ADF13C0403C98F0B801C50149839CDF1B
:102FA00049814295407F4E5FC42ED12CC60114D179
:102FB000B801C5019BDFC6010FD180E006C047FD07
:102FC000FCCF842F90E0F8CF81E0FFEFEF1AFF0AEB
:102FD000C1CF80E001C081E00F90DF91CF911F91C0
:102FE0000F91FF90EF90DF90CF90BF90AF9008953A
:102FF000CF93DF93EC018BA5882371F088E79ED0F7
:10300000882361F08EA1811105C0C6D0882331F0DC
:103010001BA602C080E4F9CF81E001C080E0DF910F
:10302000CF9108951F93CF93DF93142FE90163305D
:10303000B1F050F4613079F0623009F03AC0FC012F
:1030400046A321E023A735C06630D9F0673021F1CF
:10305000653079F50CC0FC0186A540D02AC0FC0182
:1030600016A221E023A7411124C0B0D022C0C0DFA6
:10307000811102C0ABD01FC0812F8ED0811119C029
:10308000F9CFB6DF8823B1F3112399F0899184D069
:10309000882381F31150F8CFABDF882359F3112334
:1030A00041F0FE01849178D0882329F021961150B7
:1030B000F6CF81E001C080E0DF91CF911F910895AC
:1030C00090911104911104C08093110460930F0436
:1030D00008951092110410920F0408958093100423
:1030E0001092B90084FF02C08CE001C088E4809394
:1030F000B800EFCFCF93DF9300D0CDB7DEB720ED90
:1031000037E03A8329839091BC00982389F4298180
:103110003A81232B41F48091100481FD09C081E0A4
:10312000CFDF80E006C029813A8121503109E9CF03
:1031300081E00F900F90DF91CF910895CF93C82F2A
:1031400084EA8093BC0061E080E8D4DF8823F9F052
:103150009091B900987F983021F0903111F061E0A2
:1031600014C0C093BB0084E88093BC0062E080E898
:10317000C1DF882361F08091100481FD0AC0809135
:10318000B900887F883129F062E082E099DF80E031
:1031900001C081E0CF9108958093BB0084E88093C3
:1031A000BC0063E080E8A6DF882361F08091100412
:1031B00081FD0AC08091B900887F883229F063E0E0
:1031C00082E07EDF80E0089581E0089584E98093C5
:1031D000BC0064E080E18ECF2EE93FE0009729F04B
:1031E000F9013197F1F70197F9CF0895FC011282A7
:1031F00080818150838314820895FC012081828123
:10320000820F82839181891760F484818F5F848328
:103210008381820F891710F08FEF890F838381E0FC
:10322000089580E008950F931F93CF93DF938B0150
:10323000FC0125ADEC012496211104C021E025AF4D
:10324000CE01CBDCCE01F4DC980144E160E0CE019C
:1032500042DBCE01F1DC8111F7CFDF91CF911F91DD
:103260000F910895CF92DF92EF92FF920F931F93E9
:10327000CF93DF93CDB7DEB76C01CB01EDB6FEB6D1
:10328000FB01448155814F5F5F4F2DB73EB7241B33
:10329000350B0FB6F8943EBF0FBE2DBF0DB71EB74E
:1032A0000F5F1F4F20E030E0B8013FD8B801C601E2
:1032B000BADF0FB6F894FEBE0FBEEDBEDF91CF9120
:1032C0001F910F91FF90EF90DF90CF9008950F9393
:1032D0001F93CF93DF9300D000D000D0CDB7DEB7DF
:1032E0008C0160E070E0CE0101960AD8BE016F5FEC
:1032F0007F4FC801B7DFCE0101960E9415112696B7
:103300000FB6F894DEBF0FBECDBFDF91CF911F91F6
:103310000F910895CF93DF93EC01249664E071E060
:10332000CE015DDB61E0CE01DF91CF91A3CC4F9266
:103330005F926F927F929F92AF92BF92CF92DF92F5
:10334000EF92FF920F931F93CF93DF93CDB7DEB72A
:1033500064970FB6F894DEBF0FBECDBF5B012901A5
:103360003A011E2D1982FB01108220E030E0A901F4
:10337000C301B2014BD687FF09C064E171E0C5010A
:103380000E94152477FA709477F8709401111AC08E
:1033900020E030E0A901C301B201DAD720E030E03B
:1033A00040E05FE387FD04C0C301B201CBD503C099
:1033B000C301B201C6D596D62AE030E0AE014F5F18
:1033C0005F4F68C099249A94900E61E070E080E0AD
:1033D00090E0015030F0AAE0B0E09B01AC0198D53C
:1033E000F8CFB1D66B017C019B01AC0160E070E0CD
:1033F00080E09FE30FD69B01AC01C301B201A2D5CF
:103400002B013C01DDD6698B7A8B8B8B9C8B6AD62A
:103410002AE030E0AE014F5F5F4F0E942B24BC01D9
:10342000C5010E940A2467E171E0C5010E940A24D7
:1034300029893A894B895C89C301B20182D5A701E8
:1034400096018AD754D6562E672E782E092F2AE059
:10345000C22ED12CE12CF12CA701960115D5CA0161
:10346000B901211531054105510511F09A94F4CFA8
:10347000992039F06AE171E0C5010E940A249A940A
:10348000F7CF2AE030E0AE014F5F5F4F652D762D1C
:10349000872D902F0E942B24BC01C5010E940A2475
:1034A000112329F1F50101900020E9F73197EA197C
:1034B000FB09812F90E08E179F07C8F0812F8E1B8C
:1034C0008E010F5F1F4FF80120E29E2F901B98176F
:1034D00010F42193FACFF801E80FF11D1082B50125
:1034E000C8010E940A24B801C5010E941524C50123
:1034F00064960FB6F894DEBF0FBECDBFDF91CF91BB
:103500001F910F91FF90EF90DF90CF90BF90AF9001
:103510009F907F906F905F904F900895AF92BF9271
:10352000CF92DF92EF920F93CF93DF9300D000D032
:1035300000D0CDB7DEB76C0137E0E32E03E09A018F
:10354000AB01A12CB12CB501F2DEB501CE01019683
:103550000E948011BE016F5F7F4FC60183DECE01E6
:1035600001960E94151126960FB6F894DEBF0FBE85
:10357000CDBFDF91CF910F91EF90DF90CF90BF90B3
:10358000AF90089524E332E0FC0131832083089555
:1035900024E332E0FC0131832083089524E332E008
:1035A000FC01318320830C94CC1124E332E0FC0134
:1035B000318320830C94CC110F931F93CF93DF930F
:1035C0008C01EB0184E2FB0111928A95E9F784E218
:1035D00090E0A0E0B0E088839983AA83BB83F801E0
:1035E00085819681A781B0858C839D83AE83BF83BF
:1035F0008DE090E0A0E0B0E088879987AA87BB873C
:103600000E941812688B798B8A8B9B8B40E060E05C
:10361000F801838194819DD36C8B7D8B8E8B9F8BE6
:1036200081E0DF91CF911F910F9108950F931F9328
:10363000CF93DF938C01EB0184E2FB0111928A9519
:10364000E9F784E290E0A0E0B0E088839983AA8360
:10365000BB83F80185819681A781B0858C839D838A
:10366000AE83BF838CE090E0A0E0B0E088879987CC
:10367000AA87BB870E941812688B798B8A8B9B8BD9
:1036800060E0F80183819481C0D36C8B7D8B8E8B3D
:103690009F8B81E0DF91CF911F910F9108954F9201
:1036A0005F926F927F929F92AF92BF92CF92DF9282
:1036B000EF92FF920F931F93CF93DF93EC01942E21
:1036C000DFD19A8A89E692E09C8B8B8BDF8BCE8B45
:1036D000E88EF98E0A8F1B8F87E792E09D8F8C8F83
:1036E000D8A3CF8FA9A2BAA2CBA2DCA2DF91CF919F
:1036F0001F910F91FF90EF90DF90CF90BF90AF9010
:103700009F907F906F905F904F900895DAC1CF9314
:10371000DF93EB01FC0182894BE050E0853139F009
:10372000863141F08B3049F46EE472E008C064E504
:1037300072E005C06AE572E002C060E672E0CE01A8
:103740000E941C241B86DF91CF910895FB01DC01B0
:1037500052968C91853149F0863139F08B3029F4BD
:1037600080E492E4AFE0B0E004C080E894E8AEE129
:10377000B0E084A395A3A6A3B7A308950F931F93C6
:10378000CF93DF938C01EB0188E2DB011D928A95D8
:10379000E9F7F80183819481BADF81E090E0A0E04D
:1037A000B0E08C879D87AE87BF87F80185819681C1
:1037B000A781B085888B998BAA8BBB8B4DE050E09D
:1037C00060E070E04C8B5D8B6E8B7F8BBE018381E4
:1037D0009481BCDFD8011396ED91FC9114978289F6
:1037E0008531A9F08631C1F08B3079F580E090E029
:1037F000A8E4B2E4888F998FAA8FBB8F1C8E1D8E90
:103800001E8E1F8E80E090E0A0E0B0E419C080E042
:1038100090E0A0EAB2E404C080E090E0AAEFB2E455
:10382000888F998FAA8FBB8F80E090E0A0E2B2ECE6
:103830008C8F9D8FAE8FBF8F8DEC9CECACECBDE37D
:1038400088A399A3AAA3BBA30CC0188E198E1A8EA5
:103850001B8E1C8E1D8E1E8E1F8E18A219A21AA2E0
:103860001BA2DF91CF911F910F9108950F931F938A
:10387000CF93DF938C01EB0188E2DB011D928A95E7
:10388000E9F7F8018381948142DF81E090E0A0E0D4
:10389000B0E08C879D87AE87BF87F80185819681D0
:1038A000A781B085888B998BAA8BBB8B4CE050E0AD
:1038B00060E070E04C8B5D8B6E8B7F8BBE018381F3
:1038C000948144DFD8011396ED91FC91149782897D
:1038D0008531C9F08631B9F08B3051F580E090E048
:1038E000A0EAB2E4888F998FAA8FBB8F80E090E026
:1038F000A0EAB1E48C8F9D8FAE8FBF8F80E090E007
:10390000A0EAB0E410C080E090E0A8ECB2E4888FB8
:10391000998FAA8FBB8F1C8E1D8E1E8E1F8E8DECD5
:103920009CECACECBDE388A399A3AAA3BBA30CC0F9
:10393000188E198E1A8E1B8E1C8E1D8E1E8E1F8E3B
:1039400018A219A21AA21BA2DF91CF911F910F9169
:103950000895833081F028F4813099F08230A1F00D
:1039600008958730A9F08830B9F08430D1F480917F
:1039700080008F7D03C0809180008F7780938000CE
:10398000089584B58F7702C084B58F7D84BD089576
:103990008091B0008F7703C08091B0008F7D8093BD
:1039A000B0000895CF93DF9390E0FC01E254FF4F05
:1039B0002491FC01EE52FF4F8491882349F190E05D
:1039C000880F991FFC01E650FF4FA591B4918051DB
:1039D0009F4FFC01C591D4919FB7611108C0F89425
:1039E0008C91209582238C93888182230AC0623037
:1039F00051F4F8948C91322F309583238C938881E5
:103A0000822B888304C0F8948C91822B8C939FBF67
:103A1000DF91CF9108950F931F93CF93DF931F9260
:103A2000CDB7DEB7282F30E0F901E655FF4F84917E
:103A3000F901E254FF4F1491F901EE52FF4F049146
:103A40000023C1F0882319F0698383DF6981E02FA7
:103A5000F0E0EE0FFF1FE051FF4FA591B4919FB72B
:103A6000F8948C91611103C01095812301C0812BC2
:103A70008C939FBF0F90DF91CF911F910F9108956D
:103A8000DC0115966C93159716964C93169770E07B
:103A9000FB01E254FF4FE4911796EC931797FB015B
:103AA000EE52FF4F649118966C93189740E85EE3CE
:103AB00060E070E01D964D935D936D937C935097FD
:103AC0000895CF93DF93EC0162E08D816BDF40E3DB
:103AD00058EF6FEF7FEF49875A876B877C87DF91BD
:103AE000CF910895AF92BF92CF92DF92EF92FF9263
:103AF0000F931F93CF93DF93EC01AF80662311F0F8
:103B0000BA2C01C0B12CA885B0E0AA0FBB1FAA51E6
:103B1000BF4F40E050E0BA01FD0185919491FC0156
:103B200080818A218B1112C08A019B010F5F1F4F78
:103B30002F4F3F4FCD84DE84EF84F8884C155D0510
:103B40006E057F0538F4B901A801E6CF342F252F83
:103B5000CB0104C030E020E080E090E0632F722FC2
:103B6000DF91CF911F910F91FF90EF90DF90CF9059
:103B7000BF90AF900895CF92DF92EF92FF920F9394
:103B80001F93CF93DF93CDB7DEB7C054D1400FB6AC
:103B9000F894DEBF0FBECDBF8C01F62E0E94181226
:103BA000F11016C0F801C184D284E384F4849B012F
:103BB000AC012C193D094E095F0969017A0130ED0C
:103BC000C31637E0D306E104F10410F48189B1C0D3
:103BD000F801618772878387948714821382128227
:103BE0001182108261E0858116DF6AEF70E080E06B
:103BF00090E00E94471261E0F8018581D3DE60E029
:103C0000F801858108DF64E170E080E090E00E94C7
:103C10004712F89461E0F8018581FDDE88E290E0CA
:103C20000E946C1262E0F8018581BCDE8AE090E0BF
:103C30000E946C1260E0C80155DF672B682B692B6E
:103C400039F061E0C8014EDF672B682B692B21F446
:103C5000F801118A78946CC06E01FFEBCF1AFEEF69
:103C6000DF0A9E012F5F3F4F790160E0C8013ADF14
:103C7000F701608371838283938361E0C80132DF3F
:103C8000F7016483758386839783F8E0EF0EF11C58
:103C9000EC14FD0451F778949E012F5F3F4F79019A
:103CA00020E030E0F701408151816281738184819D
:103CB0009581A681B7814115510561057105B1F165
:103CC0000097A105B10591F1F901F595E795F595F5
:103CD000E795F595E795E00FF11FD080DD0C4817CB
:103CE00059076A077B0710F0D08203C08D2D8160D1
:103CF00080832F5F3F4FF8E0EF0EF11C2832310533
:103D000089F6F801248130E04081818190E0840FC0
:103D1000911D4281840F911D4381840F911D99272C
:103D20002817390719F481E0818B03C0F801118A43
:103D300080E0C05CDE4F0FB6F894DEBF0FBECDBF93
:103D4000DF91CF911F910F91FF90EF90DF90CF9077
:103D50000895CF92DF92EF92FF920F931F93CF932C
:103D6000DF93EC01162F642F06DF882309F440C08F
:103D70008E818B3031F008F43BC08551823038F0B1
:103D800037C06A8170E080E090E0DDD11FC00A8119
:103D9000602F6F7770E080E090E0D7D120E030E0D6
:103DA00040E853E4D9D26B017C016B8170E080E084
:103DB00090E0CBD19B01AC01C701B601C3D020E09C
:103DC00030E040E251E426D107FD90581123A1F0E4
:103DD00020E030E040E151E4BFD220E030E040EAB2
:103DE00050E418D120E030E040E052E4ABD004C011
:103DF00060E070E080EC9FE7DF91CF911F910F9121
:103E0000FF90EF90DF90CF900895CF92DF92EF92E6
:103E1000FF92CF93DF93EC0160E0ADDE882349F1A0
:103E20008E818B3001F128F18551823010F5688147
:103E300070E080E090E087D120E030E040E853E49B
:103E40008BD26B017C01698170E080E090E07DD1D4
:103E50009B01AC01C701B60175D020E030E040E223
:103E600051E4D8D00AC0688170E080E090E06BD166
:103E700004C060E070E080EC9FE7DF91CF91FF909D
:103E8000EF90DF90CF900895A1E21A2EAA1BBB1BE2
:103E9000FD010DC0AA1FBB1FEE1FFF1FA217B30716
:103EA000E407F50720F0A21BB30BE40BF50B661F2C
:103EB000771F881F991F1A9469F7609570958095F0
:103EC00090959B01AC01BD01CF010895052E97FB94
:103ED00016F400940FD057FD05D0D6DF07FC02D0B2
:103EE00046F408C050954095309521953F4F4F4F6F
:103EF0005F4F089590958095709561957F4F8F4F96
:103F00009F4F0895EE0FFF1F0590F491E02D099447
:103F100009D0A59F900DB49F900DA49F800D911D79
:103F200011240895A29FB001B39FC001A39F700DFB
:103F3000811D1124911DB29F700D811D1124911DB1
:103F400008955058BB27AA270ED0B1C1A2D130F096
:103F5000A7D120F031F49F3F11F41EF497C10EF465
:103F6000E095E7FB64C1E92FB3D180F3BA1762078C
:103F700073078407950718F071F49EF5E2C10EF4FB
:103F8000E0950B2EBA2FA02D0B01B90190010C0169
:103F9000CA01A0011124FF27591B99F0593F50F481
:103FA000503E68F11A16F040A22F232F342F4427D9
:103FB000585FF3CF469537952795A795F0405395D1
:103FC000C9F77EF41F16BA0B620B730B840BBAF0A1
:103FD0009150A1F0FF0FBB1F661F771F881FC2F70C
:103FE0000EC0BA0F621F731F841F48F48795779520
:103FF0006795B795F7959E3F08F0B3CF9395880FD7
:1040000008F09927EE0F979587950895ECD008F45E
:1040100081E008950CD04BC143D140F03AD130F04B
:1040200021F45F3F19F003C151118CC12FC150D150
:1040300098F39923C9F35523B1F3951B550BBB276F
:10404000AA2762177307840738F09F5F5F4F220F1C
:10405000331F441FAA1FA9F333D00E2E3AF0E0E815
:1040600030D091505040E695001CCAF729D0FE2F61
:1040700027D0660F771F881FBB1F261737074807F3
:10408000AB07B0E809F0BB0B802DBF01FF279358A9
:104090005F4F2AF09E3F510568F0C9C053C15F3F92
:1040A000ECF3983EDCF3869577956795B795F79591
:1040B0009F5FC9F7880F911D9695879597F9089589
:1040C000E1E0660F771F881FBB1F62177307840725
:1040D000BA0720F0621B730B840BBA0BEE1F88F734
:1040E000E095089504D06894B1112CC10895F8D0DA
:1040F00088F09F5790F0B92F9927B751A0F0D1F0D1
:10410000660F771F881F991F1AF0BA95C9F712C05A
:10411000B13081F016D1B1E0089513C1672F782F27
:104120008827B85F39F0B93FCCF3869577956795C6
:10413000B395D9F73EF490958095709561957F4F32
:104140008F4F9F4F0895E89409C097FB3EF49095D8
:104150008095709561957F4F8F4F9F4F9923A9F060
:10416000F92F96E9BB279395F695879577956795EF
:10417000B795F111F8CFFAF4BB0F11F460FF1BC033
:104180006F5F7F4F8F4F9F4F16C0882311F096E9C6
:1041900011C0772321F09EE8872F762F05C0662374
:1041A00071F096E8862F70E060E02AF09A95660F2D
:1041B000771F881FDAF7880F9695879597F90895E6
:1041C000A9D080F09F3740F491110EF0BBC060E0A1
:1041D00070E080E89FEB089526F41B16611D711DA9
:1041E000811D2BC045C0990F0008550FAA0BE0E8B0
:1041F000FEEF16161706E807F907C0F012161306A9
:10420000E407F50798F0621B730B840B950B39F4E8
:104210000A2661F0232B242B252B21F408950A264E
:1042200009F4A140A6958FEF811D811D089597F98E
:104230009F6780E870E060E00895882371F4772339
:1042400021F09850872B762F07C0662311F4992709
:104250000DC09051862B70E060E02AF09A95660FB1
:10426000771F881FDAF7880F9695879597F9089535
:104270009F3F31F0915020F4879577956795B795DA
:10428000880F911D9695879597F908959FEF80EC7B
:10429000089500240A9416161706180609060895AC
:1042A00000240A9412161306140605060895092E12
:1042B0000394000C11F4882352F0BB0F40F4BF2B81
:1042C00011F460FF04C06F5F7F4F8F4F9F4F0895C1
:1042D00057FD9058440F551F59F05F3F71F04795B7
:1042E000880F97FB991F61F09F3F79F0879508959C
:1042F000121613061406551FF2CF4695F1DF08C0BB
:10430000161617061806991FF1CF869571056105D7
:1043100008940895E5DFA0F0BEE7B91788F4BB273D
:104320009F3860F41616B11D672F782F8827985F85
:10433000F7CF869577956795B11D93959639C8F314
:104340000895E894BB2766277727CB0197F908954E
:104350004ADF08F48FEF08950BD0A9CF9ADF28F039
:104360009FDF18F0952309F062CF90CF1124EACF98
:10437000AFDFA0F3959FD1F3950F50E0551F629FDB
:10438000F001729FBB27F00DB11D639FAA27F00DAE
:10439000B11DAA1F649F6627B00DA11D661F829FD5
:1043A0002227B00DA11D621F739FB00DA11D621FBA
:1043B000839FA00D611D221F749F3327A00D611DD7
:1043C000231F849F600D211D822F762F6A2F1124B9
:1043D0009F5750408AF0E1F088234AF0EE0FFF1F0C
:1043E000BB1F661F771F881F91505040A9F79E3F43
:1043F000510570F01CCFA6CF5F3FECF3983EDCF385
:10440000869577956795B795F795E7959F5FC1F77F
:10441000FE2B880F911D9695879597F90895E3DEF9
:10442000880B990B0895CF93DF938230910510F498
:1044300082E090E0E0911404F091150420E030E077
:10444000A0E0B0E0309739F1408151814817590719
:10445000B8F04817590771F482819381109729F0B9
:1044600013969C938E9312972CC09093150480936F
:10447000140427C02115310531F04217530718F0F5
:10448000A901DB0101C0EF019A01BD01DF0102803A
:10449000F381E02DD7CF21153105F9F0281B390B19
:1044A0002430310580F48A819B816115710521F0EA
:1044B000FB019383828304C09093150480931404BA
:1044C000FE01329644C0FE01E20FF31F81939193E7
:1044D00022503109398328833AC020911204309147
:1044E0001304232B41F420910201309103013093F6
:1044F0001304209312042091000130910101211531
:10450000310541F42DB73EB74091040150910501AA
:10451000241B350BE0911204F0911304E217F3070A
:10452000A0F42E1B3F0B2817390778F0AC014E5F23
:104530005F4F2417350748F04E0F5F1F5093130449
:10454000409312048193919302C0E0E0F0E0CF0128
:10455000DF91CF910895CF93DF93009709F487C03F
:10456000FC01329713821282C0911404D091150479
:10457000209781F420813181280F391F8091120406
:10458000909113048217930779F5F0931304E09345
:1045900012046DC0DE0120E030E0AE17BF0750F41A
:1045A00012964D915C9113979D014115510509F1AA
:1045B000DA01F3CFB383A28340815181840F951F29
:1045C0008A179B0771F48D919C911197840F951F09
:1045D00002969183808312968D919C911397938379
:1045E00082832115310529F4F0931504E093140416
:1045F0003EC0D9011396FC93EE9312974D915D91B5
:10460000A40FB51FEA17FB0779F480819181840F0D
:10461000951F0296D90111969C938E938281938166
:1046200013969C938E931297E0E0F0E08A819B8131
:10463000009719F0FE01EC01F9CFCE010296288116
:104640003981820F931F209112043091130428178F
:10465000390769F4309729F4109215041092140464
:1046600002C013821282D0931304C0931204DF910C
:10467000CF910895A0E0B0E0EFE3F3E239C1EC019F
:10468000CB01209711F4CFDEB4C0FE01E60FF71F77
:104690009E0122503109E217F30708F4A8C0D9019E
:1046A0000D911C91119706171707B0F005301105F1
:1046B00008F49BC0A801445051094617570708F455
:1046C00094C002501109061B170B019311936D93AF
:1046D0007C93CF0140DF89C05B01A01AB10A4E0173
:1046E000800E911EA0911404B0911504612C712CC0
:1046F00060E070E0109709F449C0A815B905C9F544
:10470000ED90FC901197670142E0C40ED11CCA14D1
:10471000DB0478F147018A189B08640142E0C40E6B
:10472000D11C1296BC9012971396AC91B5E0CB16A3
:10473000D10440F0B282A38391828082D9018D930B
:104740009C9309C00E5F1F4F0E0D1F1DF9011183B1
:104750000083EB2DFA2F6115710531F0DB01139603
:10476000FC93EE93129741C0F0931504E093140468
:104770003CC06D917C9111976616770608F43B0159
:10478000BD0112960D90BC91A02DB4CF6091120482
:104790007091130468157905E9F468167906D0F468
:1047A00040910001509101014115510541F44DB76F
:1047B0005EB76091040170910501461B570BE41729
:1047C000F507A8F4F0931304E0931204F901918320
:1047D00080830BC028DE7C01009749F0A801BE0150
:1047E00010D0CE01B8DEC70104C0CE0102C080E007
:1047F00090E0CDB7DEB7EEE097C081E090E0F894AE
:10480000AAC0FB01DC0102C001900D924150504052
:10481000D8F70895FB01DC010D900020E9F711970E
:1048200001900D920020E1F70895FB01DC01019059
:104830000D920020E1F70895FB01DC01415050404A
:1048400048F001900D920020C9F701C01D9241501F
:104850005040E0F708952532310518F4223008F071
:1048600004C0FA011082CA010895BB272A3051F40E
:10487000992342F4BDE290958095709561957F4FA4
:104880008F4F9F4F01C0BB27FA01A62F62177105FA
:1048900081059105330B30FB66F0AA27660F771F61
:1048A000881F991FAA1FA21710F0A21B63953850EA
:1048B000A9F7A05DAA3308F0A95DA19336F7B1115D
:1048C000B1931082CA0100C0DC01FC01672F719115
:1048D0007723E1F7329704C07C916D9370836291E6
:1048E000AE17BF07C8F308952F923F924F925F9281
:1048F0006F927F928F929F92AF92BF92CF92DF92F0
:10490000EF92FF920F931F93CF93DF93CDB7DEB754
:10491000CA1BDB0B0FB6F894DEBF0FBECDBF0994E8
:104920002A88398848885F846E847D848C849B843F
:10493000AA84B984C884DF80EE80FD800C811B814D
:10494000AA81B981CE0FD11D0FB6F894DEBF0FBE7C
:10495000CDBFED01089516E1C8EBD6E103C0FE011D
:0E496000D3DA2296CA3BD107D1F7F894FFCFE5
:10496E00000016042000B9120C01121808400000B5
:10497E0000808F032D00002E0000300000444854AC
:10498E00787820556E69666965642053656E736F1D
:10499E0072204578616D706C65002D2D2D2D2D2D9D
:1049AE002D2D2D2D2D2D2D2D2D2D2D2D2D2D2D2D29
:1049BE002D2D2D2D2D2D2D2D2D2D2D2D2D2D00541F
:1049CE00656D70657261747572650053656E736F97
:1049DE00723A2020202020202000447269766572D1
:1049EE00205665723A20202000556E69717565203B
:1049FE0049443A20202020004D61782056616C7584
:104A0E00653A2020202000202A43004D696E205652
:104A1E00616C75653A20202020005265736F6C75AD
:104A2E0074696F6E3A2020200048756D6964697450
:104A3E00790025004572726F722072656164696E2D
:104A4E00672074656D7065726174757265210054AE
:104A5E00656D70657261747572653A20004572728B
:104A6E006F722072656164696E672068756D696426
:104A7E00697479210048756D69646974793A20000A
:104A8E00000000008D0BED10000000008D0BED10EE
:104A9E0000000000860BA20B8C0BBF11BF11000093
:104AAE000000840FED10080F210F130F630F444801
:104ABE0054313100444854323100444854323200AB
:104ACE004448543F0000000000C81AD51A8C0BDC75
:104ADE001ABE1B00000000C21ACE1A8C0B161B3613
:024AEE001C00AA
:00000001FF
