:100000000C94D90B0C94000C0C94000C0C94000C68
:100010000C94000C0C94000C0C94000C0C94000C30
:100020000C94000C0C94000C0C94000C0C94000C20
:100030000C94000C0C94000C0C94000C0C94000C10
:100040000C9423100C94000C0C94050E0C94370E99
:100050000C94000C0C94000C0C94000C0C94000CF0
:100060000C94000C0C94000CFFE0FFD1AFFF32FFAA
:10007000D0FFFEFFE0FFD1AEFFD0FFFEFFE0FFD1DB
:100080001000FFFEFFD0FFE0FFC1FFD1AED580A87A
:100090003FD300408D142000A1C8DA1281CFD9F1DE
:1000A000DB402EA4A6AFFFD0FFFE00000008000238
:1000B000010000030407000000000000000001022E
:1000C00004081020408001020408102001020408E6
:1000D00010200404040404040404020202020202C4
:1000E000030303030303000000002300260029008C
:1000F00000000000250028002B0000000000240064
:1001000027002A0000101000FE0A06A7089500FF2D
:10011000FE0EFE0BFE1010201000FEAAAA000180A9
:1001200000000180004A51EA505A51C99E000180E6
:1001300000000180000001800055551010201000C3
:10014000FEAAAA00018000000180003993C2523249
:100150005F8A527193800000018000000180005589
:10016000551010201000FEAAAA0001800000018096
:10017000003BA5C12431198924712580000001802C
:10018000000001800055551010201000FEAAAA00A2
:10019000018000000180007BA5C1247919C1247968
:1001A00025800000018000000180005555101020BE
:1001B0001000FEAAAA000180000001800079BFC2E1
:1001C000487A49C248798980000001800000018096
:1001D0000055551010201000FEAAAA000180000052
:1001E0000180007A4DC2527B53C2D67A4F80000004
:1001F0000180000001800055551010201000FEAA5B
:10020000AA000180000001800031A5CA287A31CA05
:100210002849A5800000018000000180005555108C
:1002200010201000FEAAAA000180000001800073C7
:10023000D1CA1073D1CA1073DF80000001800000A2
:1002400001800055551010201000FEAAAA00018060
:1002500000000180001E3991401E3191081E7180FE
:100260000000018000000180005555101020100092
:10027000FEAAAA000180000001800022F9A2203E0F
:1002800021A2202221800000018000000180005571
:10029000551010201000FEAAAA0001800000018065
:1002A0000020F9A08020F9A0803E8180000001801C
:1002B000000001800055551010201000FEAAAA0071
:1002C0000180000001800022F9A220222194200850
:1002D0002180000001800000018000555510102091
:1002E0001000FEAAAA00018000000180003EF9A0D3
:1002F000803EF9A080208180000001800000018004
:100300000055551010201000FEAAAA000180000020
:100310000180001EF1A08820F1A0901E89800000BD
:100320000180000001800055551010201000FEAA29
:10033000AA00018000000180001E71A0881C898233
:10034000883C71800000018000000180005555103C
:1003500010201000FEAAAA00018000000180001EEB
:10036000F9A0201C2182203CF980000001800000BF
:1003700001800055551010201000FEAAAA0001802F
:100380000000018000391DA510251DA51039DD8054
:100390000000018000000180005555101020100061
:1003A000FEAAAA00018000000180007189CA184AD3
:1003B00009CA08719D80000001800000018000557D
:1003C000551010201000FEAAAA0001800000018034
:1003D000007199CA044A09CA10719D800000018009
:1003E000000001800055551010201000FEAAAA0040
:1003F000018000000180007199CA044A19CA047181
:1004000099800000018000000180005555101020E7
:100410001000FEAAAA00018000000180007185CAB8
:100420000C4A15CA1C718580000001800000018003
:100430000055551010201000FEAAAA0001800000EF
:100440000180004993EA546A59DBD44A5380000082
:100450000180000001800055551010201000FEAAF8
:10046000AA00018000000180003453C29A3117892C
:1004700012711380000001800000018000555510AA
:1004800010201000FEAAAA00018000000180007B5D
:10049000B9C1247939C12479398000000180000074
:1004A00001800055551010201000FEAAAA000180FE
:1004B00000000180003325C4B447ADC4A434A58036
:1004C0000000018000000180005555101020100030
:1004D000FEAAAA00018000000180003E89A0D83E4B
:1004E000A9A0883E8980000001800000018000559D
:1004F000551010201000FEAAAA0001800000018003
:10050000003A5DC252325D8A52719D8000000180C6
:10051000000001800055551010201000FEAAAA000E
:100520000180000001800079CFC2107991C0507B1A
:100530008F800000018000000180005555101020C0
:100540001000FEAAAA00018000000180001E719028
:10055000801E61901010E180000001800000018089
:100560000055551010201000FEAAAA0001800000BE
:100570000180000E719080166192100EE1800000E3
:100580000180000001800055551010201000FEAAC7
:10059000AA00018000000180001C7192801C6194FF
:1005A0001012E1800000018000000180005555100C
:1005B00010201000FEAAAA00018000000180001295
:1005C000719280126192100CE180000001800000A5
:1005D000018000555500000008000E010A0A0804B9
:1005E0000080808080808080008080050404080274
:1005F0000888888888060A0A080100242424FC4800
:1006000048FC909090070A0A080100107C929070B4
:100610001C12927C10070A0A080100629494681068
:10062000102C52528C070A0A080100384444283022
:10063000528A848C7201040408040880808080033C
:100640000C0C0803FF204040808080808080404068
:1006500020030C0C0802FF80404020202020202096
:100660004040800707070801011092543854921047
:10067000070707080101101010FE101010020404F3
:100680000803FEC0404080040101080204F0020299
:1006900002080300C0C0060A0A080100040408108A
:1006A000102020408080060A0A0801003048848417
:1006B000848484844830050A0A0802002060A0204F
:1006C0002020202020F8060A0A08010078848404EB
:1006D0001820408080FC060A0A08010078848404FF
:1006E000380404848478060A0A0801000818284897
:1006F0008888FC080808060A0A080100FC80808037
:10070000F80404048478060A0A080100384080804E
:10071000F88484848478060A0A080100FC0404082A
:10072000080810101010060A0A0801007884848452
:10073000788484848478060A0A0801007884848492
:100740007C0404040870020707080301C0C000000D
:1007500000C0C00209090803FFC0C0000000C0407B
:100760004080050909080200081020408040201040
:1007700008060505080102FC000000FC050909083F
:100780000100804020100810204080060A0A08015D
:100790000078848404081010001010060A0A08016A
:1007A00000384494ACA4A4A49C403C060A0A080166
:1007B000003048488484FC84848484060A0A080142
:1007C00000F8848484F884848484F8060A0A080182
:1007D0000078848480808080848478060A0A0801F6
:1007E00000F08884848484848488F0060A0A0801DE
:1007F00000FC808080F880808080FC060A0A080166
:1008000000FC808080F88080808080060A0A0801D1
:100810000078848480809C84848C74060A0A080191
:100820000084848484FC8484848484050A0A080205
:1008300000F82020202020202020F8070A0A0801A4
:10084000003E080808080808888870060A0A080197
:1008500000848890A0C0C0A0908884060A0A08017D
:1008600000808080808080808080FC060A0A0801E9
:10087000008484CCCCB4B484848484060A0A08013D
:100880000084C4C4A4A494948C8C84060A0A08012D
:100890000078848484848484848478060A0A080125
:1008A00000F8848484F88080808080070B0B080126
:1008B000FF78848484848484B4CC7806060A0A0889
:1008C0000100F8848484F89088888484060A0A08E1
:1008D000010078848480601804848478070A0A08F8
:1008E0000100FE101010101010101010060A0A0857
:1008F000010084848484848484848478070A0A08B8
:10090000010082828244444428281010060A0A0802
:10091000010084848484B4B4CCCC8484060A0A089C
:10092000010084844848303048488484070A0A0813
:10093000010082824444281010101010060A0A0890
:100940000100FC0404081020408080FC030C0C080B
:1009500004FFE080808080808080808080E0060AC4
:100960000A08010080804020201010080404030CB5
:100970000C0801FFE020202020202020202020E063
:100980000603030801093048840701010801FFFE3E
:1009900003030308020A80402006080808010078C3
:1009A00084047C84848C74060B0B08010080808096
:1009B000B8C484848484C4B8060808080100788414
:1009C000808080808478060B0B0801000404047486
:1009D0008C848484848C74060808080100788484DC
:1009E000FC80808478050B0B08010018202020F87B
:1009F000202020202020060B0B0801FE047488888C
:100A000088704078848478060B0B08010080808011
:100A1000B8C4848484848484050B0B0802002020DD
:100A20000060202020202020F8050D0D0801FE0880
:100A3000080018080808080808089060060B0B084A
:100A400001008080808890A0C0A0908884050B0B56
:100A500008020060202020202020202020F8070805
:100A600008080100EC92929292929292060808086D
:100A70000100B8C4848484848484060808080100C2
:100A80007884848484848478060A0A0801FEB8C4C1
:100A900084848484C4B88080060A0A0801FE748CA9
:100AA000848484848C740404060808080100B8C493
:100AB0008480808080800608080801007884806037
:100AC00018048478050A0A080100202020F8202054
:100AD0002020201806080808010084848484848467
:100AE0008C74060808080100848484484848303023
:100AF000070808080100829292929292926C06086E
:100B0000080801008484483030488484060A0A08B2
:100B100001FE84848484844C340404780608080824
:100B20000100FC040810204080FC030C0C0803FFAB
:100B3000608080404080804040808060010E0E08D0
:100B400004FE8080808080808080808080808080A3
:100B5000030C0C0802FFC020204040202040402011
:100B600020C007030308010862928C1010201000B7
:100B7000FEAAAA000180000001800073D1CA104BB8
:100B8000D1CA1073DF800000018000000180005591
:100B9000551010201000FEAAAA000180000001805C
:100BA00000719DCA5273D3C252425D800000018021
:100BB000000001800055551010201000FEAAAA0068
:100BC00001800000018000499DCA527A5DCA5049E7
:100BD0009180000001800000018000555510102018
:100BE0001000FEAAAA00018000000180007393CAD1
:100BF00052739FCA127213800000018000000180AE
:100C00000055551010201000FEAAAA000180000017
:100C10000180004B93EA525B9FCA524B93800000C5
:100C20000180000001800055551010201000FEAA20
:100C3000AA000180000001800074B9A6A425A5A423
:100C4000A474B98000000180000001800055551097
:100C500010201000FEAAAA00018000000180004BB5
:100C6000D1EA105BD1CA104BDF8000000180000088
:100C700001800055551010201000FEAAAA00018026
:100C8000000001800039CDC212319F8852739380D9
:100C90000000018000000180005555101020100058
:100CA000FEAAAA000180000001800079CDC212795D
:100CB0009FC0527B9380000001800000018000559E
:100CC000551010201000FEAAAA000180000001802B
:100CD000004B9DC9207919C9044939800000018061
:100CE000000001800055551010201000FEAAAA0037
:100CF0000180000001800025DDA4843C85A48424BB
:100D000099800000018000000180005555101020DE
:100D10001000FEAAAA000180000001800045CDC499
:100D2000904489A88410998000000180000001800F
:100D30000055551010201000FEAAAA0001800000E6
:100D4000018000721DCA127213C21243DD800000BE
:100D50000180000001800055551010201000FEAAEF
:100D6000AA00018000000180007213CA127213C22F
:100D70001243CD8000000180000001800055551015
:100D800010201000FEAAAA00018000000180000EC1
:100D90002189200E218A2009218000000180000085
:100DA00001800055551010201000FEAAAA000180F5
:100DB000000001800039DDC202318D8850739F80B0
:100DC0000000018000000180005555101020100027
:100DD000FEAAAA000180000001800039DDC20231B4
:100DE0008D8842739D8000000180000001800055C5
:100DF000551010201000FEAAAA00018000000180FA
:100E00000071CFCA104A0DCA0271DD800000018056
:100E1000000001800055551010201000FEAAAA0005
:100E2000018000000180007245CA4C7245C24441F5
:100E30008F800000018000000180005555101020B7
:100E40001000FEAAAA0001800000018000725DCAA5
:100E500042724DC250419F8000000180000001801D
:100E60000055551010201000FEAAAA0001800000B5
:100E70000180003B9DC12031198904713980000037
:100E80000180000001800055551010201000FEAABE
:100E9000AA000180000001800039D3C212421FC2A3
:100EA0001239D380000001800000018000555510E8
:100EB00010201000FEAAAA0001800000018000227C
:100EC00089B6882AA9A2D822898000000180000062
:100ED00001800055551010201000FEAAAA000180C4
:100EE00000000180003B8DC252339F8A1272138032
:100EF00000000180000001800055551010201000F6
:100F0000FEAAAA00018000000180007B8DC2527BF6
:100F10009FC2127A138000000180000001800055FA
:100F2000551010201000FEAAAA00018000000180C8
:100F300000398FC250324D8A42719D80000001807D
:100F4000000001800055551010201000FEAAAA00D4
:100F500001800000018000339BC42225A394A2637A
:100F60009B8000000180000001800055551010207A
:100F70001000FEAAAA000180000001800039DDC235
:100F80000832098A0871DD800000018000000180BC
:100F90000055551010201000FEAAAA000180000084
:100FA00001800039DDC2084189C0483B9D800000B6
:100FB0000180000001800055551010201000FEAA8D
:100FC000AA00018000000180000EF990200C21820F
:100FD000201C218000000180000001800055551078
:100FE00010201000FEAAAA0001800000018000313C
:100FF000CFCA104991C850338F8000000180000093
:1010000001800055551010201000FEAAAA00018092
:1010100000000180001C8992D81CA990881089804A
:1010200000000180000001800055551010201000C4
:10103000FEAAAA0001800000018000338FCA507B05
:1010400091CA104A0F800000018000000180005505
:101050005500000008000E010A0A08040080800004
:1010600080808080808080070A0A08010010107C40
:10107000929090927C1010070A0A0801001C202010
:1010800020F82020207CC206080808010184487846
:101090004848784884070A0A08010082442810FE5C
:1010A00010FE101010010A0A0804008080808000E1
:1010B0000080808080060A0A080100788480788495
:1010C000847804847804020208020C9090080A0ACA
:1010D0000800003C4299A5A1A1A599423C0507073B
:1010E000080205700878887800F8060909080100E8
:1010F000242448489048482424060404080100FC9D
:101100000404041010201000FEAAAA000180003A76
:1011100063C25433C98A48724980000001800003C9
:10112000C18000000180005555080A0A0800003CF3
:1011300042B9A5A5B9A9A5423C06010108010BFCCD
:1011400003040408020A40A0A0400709090801019D
:10115000101010FE10101000FE05070708020570A1
:101160008808708080F805070708020570880870F5
:1011700008887003030308030A204080080A0A084D
:1011800000FE42424242424266594080060C0C0830
:1011900001FF7CF4F4F4F47414141414141C02020B
:1011A00002080304C0C00302020802FE20C00307B5
:1011B000070802052060A02020202005070708025C
:1011C00005708888887000F8060909080100909069
:1011D00048482448489090060A0A08010044C44838
:1011E0005050242C549C84060A0A08010044C44828
:1011F0005050283444889C060A0A080100C4244838
:1012000030D0242C549C84060A0A080100101000D7
:1012100010106084848478060E0E080100601800A7
:10122000003048488484FC84848484060E0E0801BF
:1012300000186000003048488484FC84848484065C
:101240000E0E080100304800003048488484FC84B9
:10125000848484060E0E080100649800003048481B
:101260008484FC84848484060E0E080100484800AF
:10127000003048488484FC84848484060E0E08016F
:1012800000304830003048488484FC8484848407DB
:101290000A0A0801003E509090FE909090909E06A1
:1012A0000C0C0801FE78848480808080848478100F
:1012B00060060E0E08010060180000FC808080F8B7
:1012C00080808080FC060E0E08010018600000FC83
:1012D000808080F880808080FC060E0E080100303F
:1012E000480000FC808080F880808080FC060E0E24
:1012F00008010048480000FC808080F880808080E1
:10130000FC050E0E08020060180000F820202020C6
:1013100020202020F8050E0E08020030C00000F842
:101320002020202020202020F8050E0E080200603A
:10133000900000F82020202020202020F8050E0E0C
:1013400008020090900000F820202020202020207B
:10135000F8070A0A08000078444242F24242424436
:1013600078060E0E0801006498000084C4C4A4A48A
:1013700094948C8C84060E0E08010060180000788E
:10138000848484848484848478060E0E0801001882
:1013900060000078848484848484848478060E0EBB
:1013A0000801003048000078848484848484848424
:1013B00078060E0E08010064980000788484848406
:1013C0008484848478060E0E080100484800007862
:1013D00084848484848484847806050508010284D6
:1013E00048304884060C0C0801FF0474888C9494DF
:1013F000A4A4C444B880060E0E08010060180000C2
:1014000084848484848484848478060E0E08010095
:101410001860000084848484848484848478060E24
:101420000E0801003048000084848484848484840D
:101430008478060E0E0801004848000084848484E5
:10144000848484848478070E0E08010018600000EC
:1014500082824444281010101010060B0B08010063
:101460008080F088848488F0808080060A0A0801E1
:101470000070888890B0888484A498060C0C0801B9
:1014800000601800007884047C84848C74060C0C42
:10149000080100186000007884047C84848C740641
:1014A0000C0C080100304800007884047C84848C93
:1014B00074060C0C080100649800007884047C8495
:1014C000848C74060C0C08010048480000788404E1
:1014D0007C84848C74060D0D0801003048300000B7
:1014E0007884047C84848C740708080801007C924A
:1014F000127E9090927C060A0A0801FE7884808011
:10150000808084781060060C0C08010060180000D0
:10151000788484FC80808478060C0C0801001860B4
:101520000000788484FC80808478060C0C0801001C
:1015300030480000788484FC80808478060C0C0895
:10154000010048480000788484FC80808478050C81
:101550000C080200C030000060202020202020F86D
:10156000050C0C08020030C0000060202020202064
:1015700020F8050C0C08020060900000602020207C
:10158000202020F8050C0C0802009090000060203C
:101590002020202020F8060C0C08010064182844A4
:1015A000047C848484848478060C0C08010064988C
:1015B0000000B8C4848484848484060C0C08010070
:1015C000601800007884848484848478060C0C0875
:1015D0000100186000007884848484848478060C78
:1015E0000C08010030480000788484848484847866
:1015F000060C0C08010064980000788484848484BC
:101600008478060C0C080100484800007884848423
:1016100084848478060707080101300000FC00007C
:1016200030060A0A0801FF04788C9494A4A4C478B4
:1016300080060C0C080100601800008484848484F7
:10164000848C74060C0C08010018600000848484EB
:101650008484848C74060C0C0801003048000084DB
:1016600084848484848C74060C0C0801004848002F
:10167000008484848484848C74060E0E0801FE1811
:1016800060000084848484844C34040478050C0C49
:101690000802FE8080F088888890A0C08080800644
:1016A0000E0E0801FE4848000084848484844C3473
:1016B00004047800407A10F35A00A0724E18090012
:1016C00010A5D4E80000E87648170000E40B5402A7
:1016D0000000CA9A3B000000E1F5050000809698E2
:1016E00000000040420F000000A086010000001032
:1016F0002700000000E80300000000640000000074
:10170000000A00000000000100000000002C76D854
:1017100088DC674F0823DFC1DFAE59E1B1B796E53A
:10172000E3E453C63AE651997696E8E6C28426EB9E
:10173000898C9B62ED407C6FFCEFBC9C9F40F2BAB1
:10174000A56FA5F490055A2AF75C936B6CF9676D49
:10175000C11BFCE0E40D47FEF520E6B500D0ED909E
:101760002E0300943577050080841E080000204E6B
:101770000A000000C80C333333330F986E12831104
:1017800041EF8D2114893BE65516CFFEE6DB18D1DB
:10179000844B381BF77C1D901DA4BBE424203284AD
:1017A000725E228100C9F124ECA1E53D2700AB0C5B
:1017B000650E11241FBECFEFD8E0DEBFCDBF11E014
:1017C000A0E0B1E0E8ECFDE302C005900D92A03886
:1017D000B107D9F722E0A0E8B1E001C01D92AF3E09
:1017E000B207E1F717E1C2EBD7E104C02297FE018F
:1017F0000E94EC19CE3AD107C9F71BD40C94E21E13
:101800000C940000CF93DF93EC01262F4CAD6BAD11
:1018100004968BD62BAD992787FD9095820F911D4D
:101820008BAF81E090E0DF91CF91089526E040E01A
:1018300052EC61E070E082EC91E085D180E891E0CB
:101840000C940E18CF92DF92EF92FF920F931F939A
:10185000CF93DF93CDB7DEB762970FB6F894DEBFB4
:101860000FBECDBF64E070E08EEB91E00E941B18CC
:101870008C018EEB91E00E94E4186B017C0165E124
:1018800071E0CE010196F7D2BE016F5F7F4F80E815
:1018900091E00E94D417CE01019682D20F3F8FEFC4
:1018A000180761F00115110531F00E3F1F4F49F483
:1018B00065E371E008C063E271E005C066E271E0D3
:1018C00002C064E471E0CE010196D5D2BE016F5F23
:1018D0007F4F80E891E00E94D417CE01019660D23C
:1018E00022E0B701A601CE010D960DD362E571E0AD
:1018F000CE010796C0D2BE01635F7F4FCE0107962F
:101900005CD3BC01CE010196E0D242E050E0BE01C2
:101910006F5F7F4F80E891E00E948117CE010196B2
:101920003FD2CE0107963CD2CE010D9639D260ED62
:1019300077E080E090E0F4D362960FB6F894DEBFD3
:101940000FBECDBFDF91CF911F910F91FF90EF9010
:10195000DF90CF900895CF93DF9310928301109280
:101960008201C0E8D1E084E691E09983888340E079
:1019700066E071E0CE0140D48CE691E099838883E3
:10198000DF91CF910895FC01818D228D90E0805CE4
:101990009F4F821B91098F7399270895FC01918DA8
:1019A000828D981731F0828DE80FF11D858D90E0C2
:1019B00008958FEF9FEF0895FC01918D828D981708
:1019C00061F0828DDF01A80FB11D5D968C91928D23
:1019D0009F5F9F73928F90E008958FEF9FEF089520
:1019E0008CE59EE0892B41F080E090E0892B21F08E
:1019F00063D181110C9400000895FC01848DDF01F6
:101A0000A80FB11DA35ABF4F2C91848D90E0019671
:101A10008F739927848FA689B7892C93A089B18960
:101A20008C9180648C93938D848D981306C002886A
:101A3000F389E02D80818F7D80830895CF93DF939C
:101A4000EC01888D8823C1F0EA89FB89808185FDBE
:101A500005C0A889B9898C9186FD0EC00FB607FC18
:101A6000F5CF808185FFF2CFA889B9898C9185FF58
:101A7000EDCFCE01C2DFE8CFDF91CF910895CF92B5
:101A8000DF92FF920F931F93CF93DF931F92CDB7F7
:101A9000DEB76C01DC015B969C915B975C968C9148
:101AA0005C97981307C05096ED91FC9151978081F7
:101AB00085FD31C0F601038D10E00F5F1F4F0F73DE
:101AC0001127F02EF601848DF81210C00FB607FC16
:101AD000F9CFD6015096ED91FC915197808185FF09
:101AE000F1CFC601698389DF6981ECCF838DE80F6F
:101AF000F11DE35AFF4F6083D6015B960C935B9711
:101B00005296ED91FC91539780818062808381E0B1
:101B100058968C930DC0D6015696ED91FC9157972F
:101B200060835096ED91FC91519780818064808311
:101B300081E090E00F90DF91CF911F910F91FF9086
:101B4000DF90CF900895BF92CF92DF92EF92FF92F5
:101B5000CF93DF93EC016A017B01B22EE889F9890A
:101B600082E08083411581EE580761057105A1F07F
:101B700060E079E08DE390E0A70196010E94C8192A
:101B800021503109410951095695479537952795B7
:101B9000211580E1380798F0E889F989108260E81A
:101BA00074E88EE190E0A70196010E94C8192150C7
:101BB0003109410951095695479537952795EC8587
:101BC000FD853083EE85FF852083188EEC89FD89A5
:101BD000B082EA89FB89808180618083EA89FB8900
:101BE000808188608083EA89FB8980818068808326
:101BF000EA89FB8980818F7D8083DF91CF91FF907F
:101C0000EF90DF90CF90BF9008951F920F920FB684
:101C10000F9211242F938F939F93EF93FF93E09153
:101C2000D201F091D3018081E091D801F091D901E6
:101C300082FD12C090818091DB018F5F8F732091B4
:101C4000DC01821751F0E091DB01F0E0EE53FE4F32
:101C5000958F8093DB0101C08081FF91EF919F916F
:101C60008F912F910F900FBE0F901F9018951F927C
:101C70000F920FB60F9211242F933F934F935F93C0
:101C80006F937F938F939F93AF93BF93EF93FF9344
:101C900082EC91E0B2DEFF91EF91BF91AF919F9105
:101CA0008F917F916F915F914F913F912F910F9005
:101CB0000FBE0F901F90189582EC91E064DE21E03A
:101CC000892B09F420E0822F08951092C50110920B
:101CD000C40188EE93E0A0E0B0E08093C601909349
:101CE000C701A093C801B093C90184E791E0909324
:101CF000C3018093C20185EC90E09093CF01809363
:101D0000CE0184EC90E09093D1018093D00180ECDF
:101D100090E09093D3018093D20181EC90E0909376
:101D2000D5018093D40182EC90E09093D701809309
:101D3000D60186EC90E09093D9018093D80110925F
:101D4000DB011092DC011092DD011092DE0108959A
:101D5000CF92DF92EF92FF920F931F93CF93DF9377
:101D60006C017A01EB01E60EF71E00E010E0CE15E3
:101D7000DF0561F06991D601ED91FC910190F08150
:101D8000E02DC6010995080F191FF1CFC801DF9199
:101D9000CF911F910F91FF90EF90DF90CF9008951A
:101DA000FC01808191810C94E51ACF93DF93EC01C3
:101DB00088819981009711F00E94E51A1982188292
:101DC0001D821C821B821A82DF91CF9108950F938E
:101DD0001F93CF93DF93EC018B016F5F7F4F88815F
:101DE00099810E94741B009731F0998388831B832B
:101DF0000A8381E001C080E0DF91CF911F910F91B4
:101E00000895CF93DF93EC0188819981892B29F084
:101E10008A819B818617970758F4CE01D8DF8823E3
:101E200041F08C819D81892B19F4E881F981108220
:101E300081E0DF91CF910895EF92FF920F931F936E
:101E4000CF93DF93EC017B018A01BA01DADF8111C4
:101E500003C0CE01AADF07C01D830C83B7018881B0
:101E600099810E94401CCE01DF91CF911F910F916B
:101E7000FF90EF900895FC0111821082138212826C
:101E8000158214826115710551F0FB01019000204B
:101E9000E9F7AF0141505109461B570BCDCF0895CB
:101EA000CF93DF93EC01FB018617970751F0608118
:101EB00071816115710521F044815581BDDF01C03B
:101EC00074DFCE01DF91CF910895FC011182108261
:101ED0001382128215821482E3CFCF93DF93EC0139
:101EE0006115710559F0FB0101900020E9F7AF0180
:101EF00041505109461B570B9FDF01C056DFCE01F1
:101F0000DF91CF910895EF92FF920F931F93CF939C
:101F1000DF93CDB7DEB7A1970FB6F894DEBF0FBE43
:101F2000CDBF7C01CB01BA01F7011182108213826F
:101F300012821582148242E0420F8E010F5F1F4F02
:101F40000E942D1ABC01C701C8DFA1960FB6F894F4
:101F5000DEBF0FBECDBFDF91CF911F910F91FF90DC
:101F6000EF900895EF92FF920F931F93CF93DF931B
:101F7000EC017B010C811D816115710511F480E07C
:101F800015C04115510589F0040F151FB80139DF3F
:101F90008823A9F3288139818C819D81B701820F23
:101FA000931F0E94401C1D830C8381E0DF91CF9121
:101FB0001F910F91FF90EF900895CF93DF93EC0165
:101FC000FB014481558160817181CCDF811102C0A8
:101FD000CE01EBDECE01DF91CF9108950F931F93D9
:101FE000CF93DF93EB0141155105E9F02097D9F02C
:101FF000FC016481758126173707A0F4621B730BFF
:102000008A01015011096017710708F48B01FC0166
:1020100060817181620F731FA801CE010E94471C6D
:10202000C00FD11F1882DF91CF911F910F9108959A
:102030000895A6D0FDDFFADBC0EFDCE003DC2097DB
:10204000E9F3CEDCFBCF1F920F920FB60F92112453
:102050002F933F938F939F93AF93BF938091600291
:1020600090916102A0916202B091630230915F028F
:1020700023E0230F2D3720F40196A11DB11D05C0CB
:1020800026E8230F0296A11DB11D20935F028093C5
:10209000600290936102A0936202B0936302809108
:1020A000640290916502A0916602B0916702019668
:1020B000A11DB11D8093640290936502A0936602F6
:1020C000B0936702BF91AF919F918F913F912F91F4
:1020D0000F900FBE0F901F9018953FB7F894809106
:1020E000640290916502A0916602B091670226B5E4
:1020F000A89B05C02F3F19F00196A11DB11D3FBF40
:102100006627782F892F9A2F620F711D811D911DCF
:1021100042E0660F771F881F991F4A95D1F70895EF
:10212000CF92DF92EF92FF92CF93DF936B017C010E
:10213000D4DFEB01C114D104E104F10479F05BD0E8
:10214000CCDF6C1B7D0B683E7340A0F381E0C81AA6
:10215000D108E108F108C851DC4FECCFDF91CF91F5
:10216000FF90EF90DF90CF9008950197009739F09E
:10217000880F991F880F991F02970197F1F708950B
:10218000789484B5826084BD84B5816084BD85B552
:10219000826085BD85B5816085BDEEE6F0E0808119
:1021A00081608083E1E8F0E010828081826080833A
:1021B000808181608083E0E8F0E0808181608083BD
:1021C000E1EBF0E0808184608083E0EBF0E08081EF
:1021D00081608083EAE7F0E0808184608083808191
:1021E0008260808380818160808380818068808339
:1021F0001092C10008950895FC0113AE14AE15AEFF
:10220000049644C3BF92CF92DF92EF92FF920F9356
:102210001F93CF93DF938C01EB01B42E690180E112
:10222000481779F1841760F0EAE04E1334C042E0B9
:10223000C80189D444E850E0BE01C801C3D42BC012
:10224000F1E14F1709F185E1481325C0EA80FB80D1
:102250004CE750E0C801B6D4F7014481406BBE01A1
:10226000C801A0D441E0BE01C80193D4AE01B801B9
:10227000C70190D38823E9F040E0BE01C8016CD4C7
:102280000AC043E750E002C048E650E0BE01C80182
:1022900099D481E00FC096014B2DBE01C801DF919A
:1022A000CF911F910F91FF90EF90DF90CF90BF9053
:1022B000E6C380E0DF91CF911F910F91FF90EF90E7
:1022C000DF90CF90BF900895FC01E60FF11D84913F
:1022D00090E0982F88273196E4918E0F911D0895F4
:1022E000FC0184910895FCDF882311F0823011F401
:1022F00086E0089583E0089580E0089566E0E4CFE5
:1023000068E0E2CF0A96FC01849108950B96FC01E7
:1023100084910895BF92CF92DF92EF92FF920F9334
:102320001F93CF93DF93EC01E62E0C811D81C80132
:10233000D7DFF82E8C819D81D6DFB82E21E0F216F2
:1023400019F0CC24CA9402C05FE0C52E8C819D8117
:10235000D9DFF82E8C819D81D9DFD82E8C819D818B
:10236000CFDFE0E6EE1538F4009729F0080F191FCB
:1023700041E6F42E0FC08C819D81C0DFF0E4FE1594
:1023800038F4009729F0080F191F31E4F32E02C02A
:102390000F5E1F4FDE1440F4188A1B8A1C8A198AAC
:1023A0001A8A80E090E04FC0DF14B0F32B2D30E0AC
:1023B000F80184918F3F19F40F5F1F4F3FC0FE104B
:1023C00035C08C819D818CDF98012F5F3F4FF801D4
:1023D000882311F0823091F484918B8BF901249140
:1023E0002C8BF8013396E491E88BF8013496E49154
:1023F000E98BF8013596E491EA8B16C09491892F08
:102400008F7082508A8B92959F70998BF9012491DD
:10241000822F8F708C8B22952F702B8BF801329628
:10242000E491E295EF70E88BC8010DC0F801329697
:10243000E491EC210E0F111D020F131FFD1409F47E
:10244000ABCFF394B5CFDF91CF911F910F91FF9058
:10245000EF90DF90CF90BF9008954F925F927F9260
:102460008F929F92AF92BF92CF92DF92EF92FF92A4
:102470000F931F93CF93DF931F92CDB7DEB72C013D
:10248000162F742E622F46DF6C01009709F43BC0B3
:10249000F2018481958127DFF82EF2018388048977
:1024A0009188910E8289781A172D101B282D412FA3
:1024B000692DC20126D3882319F1CF0CD11CF7E076
:1024C0008F0E869486948694A82CB12C1715C1F093
:1024D000392D76018E2D8C19881570F4F701049131
:1024E00020E0412F632FC2013983FDD1FFEFEF1AA6
:1024F000FF0A3981385FEECFCA0CDB1C1F5FE6CFC5
:10250000F201808901C080E00F90DF91CF911F918F
:102510000F91FF90EF90DF90CF90BF90AF909F9082
:102520008F907F905F904F9008950F931F93CF935C
:10253000DF9300D01F92CDB7DEB78C01DC0155963A
:10254000ED91FC9156972B834A83698309954A81C3
:10255000480F2B816981C8010F900F900F90DF9178
:10256000CF911F910F9179CFAF92BF92DF92EF92EF
:10257000FF920F931F93CF93DF9300D0CDB7DEB7B9
:102580008C01E62EF42EDC015596ED91FC915697C8
:1025900029833A830995F80E2981A22E3A81B32E18
:1025A000D12CF50121915F01222339F04F2D6E2DA1
:1025B000C80153DFE80ED80EF4CF8D2D0F900F9089
:1025C000DF91CF911F910F91FF90EF90DF90BF901F
:1025D000AF900895DC0114968D919C91159700970A
:1025E00009F43FC057962C915797FC01211108C060
:1025F0003596E4915896EC935897FC013C9611C09F
:10260000213041F43F96E4915896EC935897FC01A1
:10261000709607C03D96E4915896EC935897FC014C
:102620003E96849159968C93599758968C915897C9
:10263000992787FD909559962C915997821B91095E
:1026400027FD93955A962C915A97203441F0829FFA
:10265000C0011124E6E096958795EA95E1F75B962F
:102660008C9308952CE731E1FC01368B258B08957E
:10267000CF93DF93EC018C819D818617970741F002
:102680007D836C83CE01A6DF8CE791E19E8B8D8BE1
:10269000DF91CF9108951F93CF93DF93EC011D82BB
:1026A0001C821F821E82198681E0888782E28A87C7
:1026B0001F861E8680E090E02FEFFE01E80FF91FD5
:1026C00023A301968E309105C1F711E018A3CE0126
:1026D000C9DF1F8B188E198E80E48A8F1B8E80E8CD
:1026E00095E19AAB89ABDF91CF911F910895DB0102
:1026F000ED91FC910994EF92FF921F93CF93DF939A
:1027000000D0CDB7DEB77C01DC01D196ED91FC9114
:10271000D29782E069837A83099520E030E04AE02D
:1027200069817A81C701E3DF182FD701D196ED9136
:10273000FC91D29783E00995D701D196ED91FC9158
:10274000D29780E00995812F0F900F90DF91CF9164
:102750001F91FF90EF9008950F931F93CF93DF93F6
:10276000EC018B01E9A9FAA982E00995E9A9FAA986
:1027700081E0099520E030E044E1B801CE01B7DF07
:102780009E012D5C3F4F47E1B801CE01B0DFE9A9C2
:10279000FAA980E0DF91CF911F910F910994FF92E8
:1027A0000F931F93CF93DF93EC018B01E9A9FAA953
:1027B00082E00995E9A9FAA981E0099520E030E0D5
:1027C00045E1B801CE0193DFF82E882339F09E0150
:1027D0002D5C3F4F47E1B801CE0189DFE9A9FAA995
:1027E00080E009958F2DDF91CF911F910F91FF9080
:1027F0000895CF93DF931F92CDB7DEB79E012F5F71
:102800003F4F46E474DF89810F90DF91CF910895A7
:10281000CF93DF931F92CDB7DEB79E012F5F3F4F5F
:1028200047E465DF89810F90DF91CF91089520E023
:1028300030E048E45CCFCF93DF93EC016A817B8189
:10284000D8DF88836A817B81CE01E2DF89836A8158
:102850007B81CE01ECDF8B879E012D5C3F4F6A812F
:102860007B8147E1CE01DF91CF9141CFCF93DF93C1
:10287000EC016A817B813FDF882321F0CE01DBDF21
:1028800081E001C080E0DF91CF910895EF92FF9247
:102890000F931F93CF93DF931F92CDB7DEB77C01C9
:1028A0008B014983F8DEF70113830283498146A730
:1028B000C7010F90DF91CF911F910F91FF90EF9083
:1028C000D5CFFC016281738147CFCF93DF93EC01B9
:1028D000EE85FF85309709F009956A817B81CE01ED
:1028E000DF91CF915CCF0F93FC0182819381648F44
:1028F000458F278F068F9F01245E3F4F4BE3BC011E
:10290000CF010F91F4CEFC0160A30895DC0116966F
:10291000ED91FC91179715968C919F01280F311D11
:10292000C9011192E817F907E1F70895FC0191E058
:102930008381861708F490E021E0461708F020E034
:10294000322F392B81E05281451708F480E0832330
:102950009223892B0895DC01FB01108212968C9141
:102960001297818315968C911597815082831396C7
:102970008C9183830895FB0141812381213029F0CB
:10298000233031F468EF640F04C0642F485F01C046
:10299000642FCCCFFC01CB01BA0126813781458160
:1029A0000AC1DC011696ED91FC91179712968C9155
:1029B000481B477081E090E0042E01C0880F0A9404
:1029C000EAF7E60FF11D3081222311F0832B02C0BC
:1029D0008095832380830895FB014181DC01129659
:1029E0002C911297421760F013962C91139724178D
:1029F00038F0608115962C91621710F42481D1CFA4
:102A00000895CF92DF92FF920F931F93CF93DF939E
:102A100000D0CDB7DEB78C016B01FB01F280838162
:102A2000813039F070F0823039F0833041F020E0AD
:102A300001C021E030E007C020E03FEF04C02FEFED
:102A4000F9CF20E031E0F7FE07C0B601C8012983C5
:102A50003A83C2DF3A812981F6018081830F808326
:102A60008181820F8183FF0C71F70F900F90DF91AE
:102A7000CF911F910F91FF90DF90CF9008950F930A
:102A80001F93CF93DF938901FB01C281D38142332E
:102A9000D9F058F44531E1F0473109F1443141F5BD
:102AA000CE0134DFCE01EBD123C04634E1F0473410
:102AB000E1F04B33E9F4B901CE015DDF8823C1F0C9
:102AC000B801CE019EDF14C0B901CE0185DF10C070
:102AD000CE01DCD1882371F0CE0118DF09C0B90125
:102AE000CE0139DF05C08D8101C08981F801808365
:102AF00081E001C080E0DF91CF911F910F91089597
:102B000008950F93FC010150040F84A996A994170E
:102B100018F0081728F402C0081750F0041740F402
:102B20002150260F83A995A9961720F4281720F481
:102B300080E007C0281720F481E0261710F0F8CFB6
:102B400081E00F910895DB011496ED91FC911597AA
:102B500020E030E061E00994DB011496ED91FC91F6
:102B6000159720E030E063E00994DB011496ED91C5
:102B7000FC91159720E030E040E064E00994DB012F
:102B80001496ED91FC91159720E030E041E064E06F
:102B90000994DB011496ED91FC91159720E030E04B
:102BA00062E00994DB011496ED91FC91159720E009
:102BB00030E065E00994DB011496ED91FC911597E6
:102BC00066E00994AF92BF92CF92DF92EF92FF92AC
:102BD0000F931F93CF93DF931F92CDB7DEB75C01A6
:102BE0008B017A0180E0F7014491811108C04F3FC9
:102BF000A1F1B801C501D6DF811128C033C04F3F14
:102C0000C1F34E3F89F1403F08F5403E28F04F7038
:102C1000B801C501BEDF1AC0403D28F04F70B801B1
:102C2000C5019ADF13C0403C98F0B801C501498343
:102C30009CDF49814295407F4E5FC42ED12CC60156
:102C400014D1B801C5019BDFC6010FD180E006C0D9
:102C500047FDFCCF842F90E0F8CF81E0FFEFEF1A23
:102C6000FF0AC1CF80E001C081E00F90DF91CF91DA
:102C70001F910F91FF90EF90DF90CF90BF90AF909A
:102C80000895CF93DF93EC018BA5882371F088E73B
:102C90009ED0882361F08EA1811105C0C6D0882303
:102CA00031F01BA602C080E4F9CF81E001C080E0D2
:102CB000DF91CF9108951F93CF93DF93142FE901F4
:102CC0006330B1F050F4613079F0623009F03AC00D
:102CD000FC0146A321E023A735C06630D9F0673058
:102CE00021F1653079F50CC0FC0186A540D02AC0E1
:102CF000FC0116A221E023A7411124C0B0D022C0BC
:102D0000C0DF811102C0ABD01FC0812F8ED08111D6
:102D100019C0F9CFB6DF8823B1F3112399F0899157
:102D200084D0882381F31150F8CFABDF882359F387
:102D3000112341F0FE01849178D0882329F0219657
:102D40001150F6CF81E001C080E0DF91CF911F915B
:102D500008959091EA02911104C08093EA02609371
:102D6000E80208951092EA021092E8020895809312
:102D7000E9021092B90084FF02C08CE001C088E42F
:102D80008093B800EFCFCF93DF9300D0CDB7DEB7FD
:102D900020ED37E03A8329839091BC00982389F491
:102DA00029813A81232B41F48091E90281FD09C0F8
:102DB00081E0CFDF80E006C029813A8121503109CE
:102DC000E9CF81E00F900F90DF91CF910895CF93DD
:102DD000C82F84EA8093BC0061E080E8D4DF8823B8
:102DE000F9F09091B900987F983021F0903111F06E
:102DF00061E014C0C093BB0084E88093BC0062E033
:102E000080E8C1DF882361F08091E90281FD0AC07A
:102E10008091B900887F883129F062E082E099DFF3
:102E200080E001C081E0CF9108958093BB0084E8E9
:102E30008093BC0063E080E8A6DF882361F0809186
:102E4000E90281FD0AC08091B900887F883229F0AB
:102E500063E082E07EDF80E0089581E0089584E908
:102E60008093BC0064E080E18ECF2EE93FE00097C4
:102E700029F0F9013197F1F70197F9CF0895FC0195
:102E8000128280818150838314820895FC01208105
:102E90008281820F82839181891760F484818F5FA0
:102EA00084838381820F891710F08FEF890F8383CA
:102EB00081E0089580E00895EF92FF920F931F93B1
:102EC000CF93DF938B01F42EE22EFC0125ADEC01B4
:102ED0002496211104C021E025AFCE01C7DCCE012C
:102EE000F0DC98014E2D6F2DCE013EDBCE01EDDCE6
:102EF0008111F7CFDF91CF911F910F91FF90EF904C
:102F000008956F927F928F929F92AF92BF92CF92CD
:102F1000DF92EF92FF920F931F93CF93DF93CDB782
:102F2000DEB77C01CB014A016DB67EB6F701A48005
:102F3000B12CFB01448155814F5F5F4F2DB73EB7E8
:102F4000241B350B0FB6F8943EBF0FBE2DBFEDB757
:102F5000FEB731966F0120E030E0BF013FD800E0BE
:102F600010E0B194A194B108A016B1064CF424E18C
:102F700030E0A801B601C7019FDF08191909F4CF95
:102F80000FB6F8947EBE0FBE6DBEDF91CF911F913C
:102F90000F91FF90EF90DF90CF90BF90AF909F90F8
:102FA0008F907F906F900895CF92DF92EF92FF9273
:102FB0000F931F93CF93DF93CDB7DEB76C01CB0197
:102FC000EDB6FEB6FB01448155814F5F5F4F2DB7D3
:102FD0003EB7241B350B0FB6F8943EBF0FBE2DBF76
:102FE0000DB71EB70F5F1F4F20E030E0B8010E9401
:102FF000EE0F24E130E040E050E0B801C6015CDFB4
:103000000FB6F894FEBE0FBEEDBEDF91CF911F91BB
:103010000F91FF90EF90DF90CF900895CF93DF93C3
:10302000EC01249664E071E0CE0122DB61E0CE0188
:10303000DF91CF9168CC3F924F925F926F927F92D7
:103040008F929F92AF92BF92CF92DF92EF92FF92B8
:103050000F931F93CF93DF9300D000D01F92CDB773
:10306000DEB75C01562E19821A821B821C821D82D9
:1030700061E0852DF7D060E0852D2DD162E170E013
:1030800080E090E04DD861E0852D25D188E290E088
:103090006CD860E0852DE6D001E117E2852D50D196
:1030A000892B41F40150110901151105B9F78EEF73
:1030B0009FEF73C001E117E2852D42D1019731F4F2
:1030C0000150110901151105B9F7F1CF08E210E01F
:1030D000312C37E0432E88248394912C21E1E22E79
:1030E00027E2F22E852D2CD1892B39F481E0E81AC4
:1030F000F108E114F104B1F7DACF0E946D106B0111
:103100007C0191E1692E97E2792E852D19D10197E5
:1031100039F4E1E06E1A710861147104B1F7C7CF98
:103120000E946D106C197D098E099F096932710525
:103130008105910578F0E1E0F0E0EC0FFD1FE30D73
:10314000F11D2081C401042C01C0880F0A94EAF704
:10315000282B2083411004C0339487E0482E01C0FF
:103160004A94015011090115110509F0B7CF2981C1
:10317000822F90E0F501918380833B81832F90E043
:1031800093838283230F81E090E03D81321302C05C
:1031900080E090E09195819591090F900F900F90AC
:1031A0000F900F90DF91CF911F910F91FF90EF90B3
:1031B000DF90CF90BF90AF909F908F907F906F9057
:1031C0005F904F903F9008958EE006D0BC01882715
:1031D00077FD8095982F06C18E3008F08E5087704D
:1031E0002091140190E4299F90011124822B809357
:1031F0007C0080917A00806480937A0080917A00CC
:1032000086FDFCCF809178002091790090E0922B90
:103210000895833081F028F4813099F08230A1F054
:1032200008958730A9F08830B9F08430D1F48091C6
:1032300080008F7D03C0809180008F778093800015
:10324000089584B58F7702C084B58F7D84BD0895BD
:103250008091B0008F7703C08091B0008F7D809304
:10326000B0000895CF93DF9390E0FC01E254FF4F4C
:103270002491FC01EE52FF4F8491882349F190E0A4
:10328000880F991FFC01E650FF4FA591B491805122
:103290009F4FFC01C591D4919FB7611108C0F8946C
:1032A0008C91209582238C93888182230AC062307E
:1032B00051F4F8948C91322F309583238C9388812C
:1032C000822B888304C0F8948C91822B8C939FBFAF
:1032D000DF91CF9108950F931F93CF93DF931F92A8
:1032E000CDB7DEB7282F30E0F901E655FF4F8491C6
:1032F000F901E254FF4F1491F901EE52FF4F04918E
:103300000023C1F0882319F0698383DF6981E02FEE
:10331000F0E0EE0FFF1FE051FF4FA591B4919FB772
:10332000F8948C91611103C01095812301C0812B09
:103330008C939FBF0F90DF91CF911F910F910895B4
:10334000CF93DF93282F30E0F901E655FF4F8491AA
:10335000F901E254FF4FD491F901EE52FF4FC491AD
:10336000CC2389F0811155DFEC2FF0E0EE0FFF1F29
:10337000EA51FF4FA591B4912C912D2381E090E06B
:1033800021F480E002C080E090E0DF91CF910895C9
:10339000A1E21A2EAA1BBB1BFD010DC0AA1FBB1F59
:1033A000EE1FFF1FA217B307E407F50720F0A21BCB
:1033B000B30BE40BF50B661F771F881F991F1A9438
:1033C00069F760957095809590959B01AC01BD0162
:1033D000CF010895EE0FFF1F0590F491E02D0994A1
:1033E000E89409C097FB3EF490958095709561959F
:1033F0007F4F8F4F9F4F9923A9F0F92F96E9BB2755
:103400009395F695879577956795B795F111F8CFD0
:10341000FAF4BB0F11F460FF1BC06F5F7F4F8F4F3B
:103420009F4F16C0882311F096E911C0772321F031
:103430009EE8872F762F05C0662371F096E8862FC9
:1034400070E060E02AF09A95660F771F881FDAF720
:10345000880F9695879597F90895EF920F931F938C
:10346000CF93DF93E80147FF02C034E101C034E0AD
:10347000E42FFF27E7FDF095F7FF03C0F195E195F5
:10348000F109E32E022F2E2FAE0110D2CE01DF91D3
:10349000CF911F910F91EF900895CF93DF938230DA
:1034A000910510F482E090E0E091ED02F091EE02DF
:1034B00020E030E0A0E0B0E0309739F14081518168
:1034C00048175907B8F04817590771F4828193815A
:1034D000109729F013969C938E9312972CC090937B
:1034E000EE028093ED0227C02115310531F042171D
:1034F000530718F0A901DB0101C0EF019A01BD01DA
:10350000DF010280F381E02DD7CF21153105F9F0DD
:10351000281B390B2430310580F48A819B81611589
:10352000710521F0FB019383828304C09093EE0226
:103530008093ED02FE01329644C0FE01E20FF31FBC
:103540008193919322503109398328833AC0209185
:10355000EB023091EC02232B41F4209102013091D7
:1035600003013093EC022093EB0220910001309193
:1035700001012115310541F42DB73EB740910401F9
:1035800050910501241B350BE091EB02F091EC0208
:10359000E217F307A0F42E1B3F0B2817390778F02A
:1035A000AC014E5F5F4F2417350748F04E0F5F1F89
:1035B0005093EC024093EB028193919302C0E0E0C0
:1035C000F0E0CF01DF91CF910895CF93DF93009783
:1035D00009F487C0FC01329713821282C091ED0278
:1035E000D091EE02209781F420813181280F391F7C
:1035F0008091EB029091EC028217930779F5F0939A
:10360000EC02E093EB026DC0DE0120E030E0AE178B
:10361000BF0750F412964D915C9113979D0141158F
:10362000510509F1DA01F3CFB383A28340815181BF
:10363000840F951F8A179B0771F48D919C911197A8
:10364000840F951F02969183808312968D919C9191
:103650001397938382832115310529F4F093EE02A9
:10366000E093ED023EC0D9011396FC93EE931297BE
:103670004D915D91A40FB51FEA17FB0779F4808186
:103680009181840F951F0296D90111969C938E9378
:103690008281938113969C938E931297E0E0F0E0E1
:1036A0008A819B81009719F0FE01EC01F9CFCE01D0
:1036B000029628813981820F931F2091EB0230916D
:1036C000EC022817390769F4309729F41092EE02BA
:1036D0001092ED0202C013821282D093EC02C093CA
:1036E000EB02DF91CF910895A0E0B0E0E9E7FBE1C4
:1036F00036C3EC01CB01209711F4CFDEB4C0FE013C
:10370000E60FF71F9E0122503109E217F30708F474
:10371000A8C0D9010D911C91119706171707B0F099
:103720000530110508F49BC0A80144505109461703
:10373000570708F494C002501109061B170B019398
:1037400011936D937C93CF0140DF89C05B01A01A78
:10375000B10A4E01800E911EA091ED02B091EE02D1
:10376000612C712C60E070E0109709F449C0A81535
:10377000B905C9F5ED90FC901197670142E0C40EC0
:10378000D11CCA14DB0478F147018A189B08640134
:1037900042E0C40ED11C1296BC9012971396AC91C5
:1037A000B5E0CB16D10440F0B282A383918280822F
:1037B000D9018D939C9309C00E5F1F4F0E0D1F1DE5
:1037C000F90111830083EB2DFA2F6115710531F09A
:1037D000DB011396FC93EE93129741C0F093EE0237
:1037E000E093ED023CC06D917C91119766167706CF
:1037F00008F43B01BD0112960D90BC91A02DB4CFF1
:103800006091EB027091EC0268157905E9F4681695
:103810007906D0F440910001509101014115510504
:1038200041F44DB75EB76091040170910501461BEC
:10383000570BE417F507A8F4F093EC02E093EB02C2
:10384000F901918380830BC028DE7C01009749F049
:10385000A801BE010CD0CE01B8DEC70104C0CE0164
:1038600002C080E090E0CDB7DEB7EEE094C2FB018D
:10387000DC0102C001900D9241505040D8F70895EC
:10388000FB01DC0101900D920020E1F70895FB019E
:10389000DC014150504048F001900D920020C9F7E2
:1038A00001C01D9241505040E0F708956F927F9201
:1038B0009F92AF92BF92CF92DF92EF92FF920F93BF
:1038C0001F93CF93DF93CDB7DEB729970FB6F89448
:1038D000DEBF0FBECDBF6A01B22E102F0C3320F415
:1038E000FF24F394F00E02C04CE3F42E0F2D27E0DA
:1038F000AE014F5F5F4F57D17981272F297021305B
:1039000031F0E1FC06C0E0FC06C060E005C06DE2FD
:1039100003C06BE201C060E2AE2DA07173FF36C040
:10392000662311F084E001C083E08B1510F4B81A0F
:1039300001C0B12CA1110BC0F6018B2D90E28823A0
:1039400019F091938150FBCFCB0CD11CB12C662385
:1039500031F0F601608396012F5F3F4F6901C60188
:103960000396E2FE05C02EE4F601208331E404C094
:103970002EE6F601208331E631832283FC012B2DD4
:1039800030E22223F1F131932150FBCF72FF40C08E
:10399000662311F084E001C083E08B1510F4B81A9F
:1039A00001C0B12CA1110BC0F6018B2D90E2882330
:1039B00019F091938150FBCFCB0CD11CB12C662315
:1039C00031F0F601608396012F5F3F4F6901C60118
:1039D0000396E2FE07C029E4F60120832EE421834A
:1039E00026E406C029E6F60120832EE6218326E69A
:1039F0002283FC012B2D30E2222319F03193215038
:103A0000FBCFFC01EB0DF11D10828EEF9FEFB7C0D5
:103A1000B1E0611101C0B0E04B2F50E0181619065B
:103A200024F49C012F5F3F4F02C021E030E0240FBF
:103A3000351F112329F0412F50E04F5F5F4F02C027
:103A400040E050E0420F531F2B2D30E04217530748
:103A500014F4B41A01C0B12C2E2D287159F4F601BA
:103A60002B2D30E2222319F031932150FBCFCB0CC8
:103A7000D11CB12CBB2331F0F601608396012F5F7E
:103A80003F4F6901A1110BC0F6012B2D30E322231A
:103A900019F031932150FBCFCB0CD11CB12CF80E77
:103AA0000A81372F3071A32E74FF03C0013309F44C
:103AB000FA941F142CF42F2D293018F028E001C09F
:103AC00021E0682F392F97FF02C060E030E0462FD9
:103AD000532F612C712C3EE2932EBC01621B7109A5
:103AE0009B01DC01A41BB50BE1E0F0E0EC0FFD1F36
:103AF000AE0FBF1FE12EF12CF194E194F1084F3F7E
:103B0000FFEF5F0731F4F6019082B6016F5F7F4FE0
:103B10006B01841795074CF02417350734F4BD0169
:103B2000660D771DFB01118101C010E34150510961
:103B3000FFEF6F1A7F0AB6016F5F7F4F4E155F056B
:103B400024F0F60110836B01DACF4817590739F4D6
:103B5000063320F4053319F4A11001C011E3F60176
:103B60001083FB018B2D90E2882319F091938150F3
:103B7000FBCFFB01EB0DF11D108280E090E0299658
:103B80000FB6F894DEBF0FBECDBFDF91CF911F916E
:103B90000F91FF90EF90DF90CF90BF90AF909F90EC
:103BA0007F906F900895283008F027E03327DA01DE
:103BB000990F311D87FD916000966105710539F4FB
:103BC00032602E5F3D9330E32A95E1F708959F3FE1
:103BD00030F080387105610509F03C5F3C5F3D9332
:103BE000913008F08068911DDF93CF931F930F935E
:103BF000FF92EF92192F987F9695E92F96959695BB
:103C0000E90FFF27E35FF84E99273327EE24FF24BF
:103C1000A701E70105900894079428F4360FE71EE2
:103C2000F81E491F511D660F771F881F991F0694A4
:103C3000A1F70590079428F4E70EF81E491F561FB8
:103C4000C11D770F881F991F661F0694A1F7059065
:103C5000079428F4F80E491F561FC71FD11D880F5F
:103C6000991F661F771F0694A1F70590079420F40B
:103C7000490F561FC71FD81F990F661F771F881F30
:103C80000694A9F784911095177041F0D695C795C1
:103C900057954795F794E7941A95C1F7E3EBF6E14A
:103CA00068941590159135916591959105907FE2F5
:103CB0007395E118F10A430B560BC90BD009C0F7F5
:103CC000E10CF11E431F561FC91FD01D7EF4703337
:103CD00011F48A95E6CFE894015030F0080F0AF409
:103CE0000027021708F4202F2395022F7A3328F09B
:103CF00079E37D932A95E9F710C07D932A9589F69B
:103D0000069497956795379517951794E118F10ADA
:103D1000430B560BC90BD00998F023957E917395F0
:103D20007A3308F070E37C932013B8F77E917061CA
:103D30007D9330F0839571E37D9370E32A95E1F7ED
:103D40001124EF90FF900F911F91CF91DF91992750
:103D500087FD909508952F923F924F925F926F92B8
:103D60007F928F929F92AF92BF92CF92DF92EF920B
:103D7000FF920F931F93CF93DF93CDB7DEB7CA1B8C
:103D8000DB0B0FB6F894DEBF0FBECDBF09942A88B7
:103D9000398848885F846E847D848C849B84AA845F
:103DA000B984C884DF80EE80FD800C811B81AA81EC
:103DB000B981CE0FD11D0FB6F894DEBF0FBECDBFB7
:083DC000ED010895F894FFCF16
:103DC8000000EF02200002110C015B160840000001
:103DD8000080680201526561642073656E736F72BA
:103DE8003A20004F4B00436865636B73756D20651F
:103DF80072726F720054696D65206F7574206572F8
:103E0800726F7200556E6B6E6F776E206572726F8F
:103E180072004C69676874206C6576656C3A20009E
:103E280000000000020CA80E00000000020CA80E02
:103E3800000000003F0DA80EC30CDC0CCE0C1E0DBC
:00000001FF
