:1000000035C0000058C0000056C0000054C00000B9
:1000100052C0000050C000004EC000004CC00000A4
:100020004AC0000048C0000046C0000044C00000B4
:1000300042C0000040C000003EC000003CC00000C4
:10004000DBC0000038C0000036C0000034C0000033
:1000500032C0000030C000002EC000002CC00000E4
:100060002AC0000028C00000EB006C0211241FBE53
:10007000CFEFD8E0DEBFCDBF11E0A0E0B1E0E6EB0E
:10008000FDE002C005900D92A831B107D9F721E03B
:10009000A8E1B1E001C01D92A13BB207E1F710E079
:1000A000CCE6D0E003C02297FE0158D5C836D10770
:1000B000D1F797D07EC6A4CF08950F931F93CF9307
:1000C000DF9300D01F92CDB7DEB7198284E68A8312
:1000D0008B8360915F0170916001AE014F5F5F4F54
:1000E00088E191E0E0D2198282E38A838B83809158
:1000F0005F0190916001059606E010E0B801C7D459
:10010000AE014F5F5F4FBC0188E191E0CCD2198214
:1001100089E18A838B8380915F01909160010496CD
:10012000B801B5D4AE014F5F5F4FBC0188E191E0EB
:10013000BAD219828AE08A838B8380915F01909181
:1001400060010396B801A3D4AE014F5F5F4FBC01BD
:1001500088E191E0A8D2198285E08A838B8380911F
:100160005F01909160010296B80191D4AE014F5F9A
:100170005F4FBC0188E191E096D219821A821B82FE
:1001800080915F01909160010196B80180D4AE0129
:100190004F5F5F4FBC0188E191E085D260915A01C9
:1001A00088E191E05DD180915F01909160010196BD
:1001B000B8016DD49093600180935F0164E670E0B4
:1001C00080E090E086D00F900F900F90DF91CF915C
:1001D0001F910F91089566E070E088E191E016C2EA
:1001E0000895A7D0FDDF68DFC0E0D0E066DF20978C
:1001F000E9F30E940000FACF1F920F920FB60F9200
:1002000011242F933F938F939F93AF93BF9380912C
:10021000620190916301A0916401B09165013091F8
:10022000610123E0230F2D3720F40196A11DB11D9C
:1002300005C026E8230F0296A11DB11D2093610180
:100240008093620190936301A0936401B093650170
:100250008091660190916701A0916801B091690158
:100260000196A11DB11D8093660190936701A09333
:100270006801B0936901BF91AF919F918F913F91B8
:100280002F910F900FBE0F901F9018953FB7F894C5
:100290008091660190916701A0916801B091690118
:1002A00026B5A89B05C02F3F19F00196A11DB11DD1
:1002B0003FBF6627782F892F9A2F620F711D811DEE
:1002C000911D42E0660F771F881F991F4A95D1F74D
:1002D0000895CF92DF92EF92FF92CF93DF936B015D
:1002E0007C01D4DFEB01C114D104E104F10479F005
:1002F0005BD0CCDF6C1B7D0B683E7340A0F381E0CC
:10030000C81AD108E108F108C851DC4FECCFDF91E1
:10031000CF91FF90EF90DF90CF90089501970097D5
:1003200039F0880F991F880F991F02970197F1F7ED
:100330000895789484B5826084BD84B5816084BD5D
:1003400085B5826085BD85B5816085BDEEE6F0E04E
:10035000808181608083E1E8F0E0108280818260AA
:100360008083808181608083E0E8F0E0808181602B
:100370008083E1EBF0E0808184608083E0EBF0E05B
:10038000808181608083EAE7F0E0808184608083FF
:1003900080818260808380818160808380818068A9
:1003A00080831092C10008950895FC01E05CFF4F26
:1003B00028E030E03183208332962FEF208340E421
:1003C00050E060E08CC0CF92DF92EF92FF920F93EB
:1003D0001F93CF93DF936C01EB01101611061CF0F5
:1003E000890120E030E0F601E05CFF4FE080F18021
:1003F000B601E0E0F0E0EE15FF055CF4685F7F4FCA
:10040000CB010897DC018D919C91009729F03196E2
:10041000F2CF80E090E01BC0EF3FBFEFFB07B9F0E9
:1004200083E0EE0FFF1F8A95E1F7EC0DFD1DD183F0
:10043000C083538342832683378315830483E881F3
:10044000F9810190F081E02DCE010995CE01DF9177
:10045000CF911F910F91FF90EF90DF90CF90089573
:10046000DF92EF92FF920F931F93CF93DF93D62EDD
:10047000EC0100E010E07C0180E4E80EF11CF701E3
:100480008081918108171907FCF488819981009770
:10049000D9F0DC012D913C914C815D81AE81BF8111
:1004A000FD01EE0FFF1FEA0FFB1F6A817B816E0FBC
:1004B0007F1FD9011896ED91FC9119972D2D099563
:1004C0000F5F1F4F2896DBCFDF91CF911F910F91C8
:1004D000FF90EF90DF9008958AE691E066CFDC010F
:1004E00040FF03C001C06D936D934250E0F7504050
:1004F000D0F70895DC01ED91FC910190F081E02DA1
:10050000099481E008950895CF93DF9300D01F925E
:10051000CDB7DEB7AB01DC01ED91FC910680F78130
:10052000E02D19821A821B8220E0BE016F5F7F4F8F
:1005300009950F900F900F90DF91CF9108950F9331
:100540008BB900140014001447FF6BB90014001499
:10055000001400146BB9001402E00A95F1F70F9132
:100560000895549A20E1FC0122832BE230E0348389
:10057000238308958BB900140014001447FF6BB94E
:1005800000140014001400146BB9001400140014BB
:100590000014001408958BB900140014001446FFD1
:1005A0006BB900140014001400146BB9001400148B
:1005B00008958BB900140014001445FF6BB90014A2
:1005C0000014001400146BB9001408950F938BB934
:1005D00000140014001445FF6BB90014001400143B
:1005E00000146BB902E00A95F1F70F9108958BB9E9
:1005F00000140014001447FF6BB900140014001419
:1006000000146BB90014001400140895CF92DF9207
:10061000EF92FF920F931F93CF93DF93EC018B0127
:10062000C4DE6E0183E4C80ED11CD6010D931C9369
:100630000138BAE21B0730F4C801880F991F800FF8
:10064000911F02C08FEF9FEF21D27C01FE01EB5B77
:10065000FF4F91838083F601C080D18089E090E0D4
:1006600014D2FC0189E0DF011D928A95E9F7158219
:100670001682178210868AE091E09183808300E0E1
:1006800010E09601A701BF01CE019DDECE5BDF4FDA
:1006900088E28883DF91CF911F910F91FF90EF90B7
:1006A000DF90CF900895CF93DF93DA018B5B9F4F5C
:1006B0009B01220F331F260F371FEC01E881F981C0
:1006C000E20FF31F8C91808311968C911197818397
:1006D00012968C918283DF91CF9108950F931F938F
:1006E000CF93DF93EC01D2DD088119812A813B8110
:1006F000601B710B820B930B6233710581059105B1
:1007000054F422E330E0C901861B970BDF91CF91AF
:100710001F910F9103CEDF91CF911F910F910895FB
:100720008F929F92AF92BF92CF92DF92EF92FF9201
:100730000F931F93CF93DF93862EEA018C01000F56
:10074000111F080F191F040F151FCBB02C2D20618E
:10075000C22EDBB03D2D3F7ED32E3BB9B8802B2D72
:10076000362F239F212DB22E7A01E016F10608F0D4
:1007700058C075E0A72E4B2D6D2D8C2D38DFBB0C8E
:10078000AA94C9F700144B2D6D2D8C2DD8DE4B2D5E
:100790006D2D8C2D00DF9980292D382D239F212D43
:1007A000922E4B2D6D2D8C2D11DFF5E0BF2E492D96
:1007B0006D2D8C2D1CDF990CBA94C9F70014492DAE
:1007C0006D2D8C2DBCDE492D6D2D8C2DE4DEAA8087
:1007D0002A2D382D239F212DA22E492D6D2D8C2DB4
:1007E000F5DEE5E0BE2E4A2D6D2D8C2D00DFAA0C26
:1007F000BA94C9F700144A2D6D2D8C2DBBDE83E011
:10080000E80EF11C4A2D6D2D8C2DC5DEB8802B2DE8
:10081000382D239F212DB22E4A2D6D2D8C2DC9DE12
:10082000A4CF1124DF91CF911F910F91FF90EF90F2
:10083000DF90CF90BF90AF909F908F900895AF9230
:10084000BF92CF92DF92EF92FF920F931F93CF93BD
:10085000DF931F92CDB7DEB75C017B018A0105965D
:1008600029833CDFF894A7012981622FC80158DF52
:10087000C0906201D0906301E0906401F090650146
:1008800089E0809FB001819F700D1124882777FD3A
:100890008095982F28EE33E040E050E00BD12C0DEE
:1008A0003D1D4E1D5F1D20936201309363014093F7
:1008B0006401509365017894E9DCF50165837683E2
:1008C000878390870F90DF91CF911F910F91FF90B9
:1008D000EF90DF90CF90BF90AF900895AF92BF920E
:1008E000CF92DF92EF92FF920F931F93CF93DF93FC
:1008F000A62EEA018C01000F111F080F191F040F0B
:10090000151FEBB02E2D2061E22EFBB03F2D3F7E58
:10091000F32E3BB9D8802D2D362F239F212DD22E9B
:10092000C017D10708F056C0B5E0CB2E4D2D6F2D66
:100930008E2D5DDEDD0CCA94C9F700144D2D6F2D90
:100940008E2DFDDD4D2D6F2D8E2D25DEB9802B2DAD
:100950003A2D239F212DB22E4D2D6F2D8E2D36DE5B
:1009600095E0D92E4B2D6F2D8E2D41DEBB0CDA94E8
:10097000C9F700144B2D6F2D8E2DE1DD4B2D6F2D02
:100980008E2D09DECA802C2D3A2D239F212DC22EBB
:100990004B2D6F2D8E2D1ADE85E0D82E4C2D6F2D10
:1009A0008E2D25DECC0CDA94C9F700144C2D6F2D5A
:1009B0008E2DE0DD23964C2D6F2D8E2DECDDD88015
:1009C0002D2D3A2D239F212DD22E4C2D6F2D8E2D86
:1009D000F0DDA6CF1124DF91CF911F910F91FF90F1
:1009E000EF90DF90CF90BF90AF900895AF92BF92FD
:1009F000CF92DF92EF92FF920F931F93CF93DF93EB
:100A00001F92CDB7DEB75C017B018A010596298371
:100A100065DEF894A7012981622FC8015FDFC090CD
:100A20006201D0906301E0906401F090650189E07B
:100A3000809FB001819F700D1124882777FD8095DC
:100A4000982F28EE33E040E050E034D02C0D3D1DCF
:100A50004E1D5F1D2093620130936301409364013A
:100A600050936501789412DCF50165837683878362
:100A700090870F90DF91CF911F910F91FF90EF9092
:100A8000DF90CF90BF90AF9008956CC06BC097FB84
:100A9000072E16F4009406D077FD08D027D007FC67
:100AA00005D03EF4909581959F4F0895709561957E
:100AB0007F4F0895052E97FB16F400940FD057FD35
:100AC00005D028D007FC02D046F408C050954095C8
:100AD000309521953F4F4F4F5F4F089590958095EA
:100AE000709561957F4F8F4F9F4F0895AA1BBB1B39
:100AF00051E107C0AA1FBB1FA617B70710F0A61B1E
:100B0000B70B881F991F5A95A9F780959095BC013E
:100B1000CD010895A1E21A2EAA1BBB1BFD010DC039
:100B2000AA1FBB1FEE1FFF1FA217B307E407F5079D
:100B300020F0A21BB30BE40BF50B661F771F881F79
:100B4000991F1A9469F760957095809590959B010F
:100B5000AC01BD01CF010895EE0FFF1F0590F49188
:100B6000E02D0994CF93DF938230910510F482E059
:100B700090E0E091AF01F091B00120E030E0A0E022
:100B8000B0E0309739F14081518148175907B8F0EA
:100B90004817590771F482819381109729F01396B1
:100BA0009C938E9312972CC09093B0018093AF01C9
:100BB00027C02115310531F04217530718F0A9015C
:100BC000DB0101C0EF019A01BD01DF010280F38169
:100BD000E02DD7CF21153105F9F0281B390B243032
:100BE000310580F48A819B816115710521F0FB013B
:100BF0009383828304C09093B0018093AF01FE0180
:100C0000329644C0FE01E20FF31F8193919322506C
:100C10003109398328833AC02091AD013091AE016A
:100C2000232B41F420910201309103013093AE0156
:100C30002093AD0120910001309101012115310572
:100C400041F42DB73EB74091040150910501241B9A
:100C5000350BE091AD01F091AE01E217F307A0F47E
:100C60002E1B3F0B2817390778F0AC014E5F5F4F02
:100C70002417350748F04E0F5F1F5093AE01409385
:100C8000AD018193919302C0E0E0F0E0CF01DF91EC
:100C9000CF910895CF93DF93009709F487C0FC01AB
:100CA000329713821282C091AF01D091B001209788
:100CB00081F420813181280F391F8091AD019091FD
:100CC000AE018217930779F5F093AE01E093AD0181
:100CD0006DC0DE0120E030E0AE17BF0750F4129681
:100CE0004D915C9113979D014115510509F1DA0170
:100CF000F3CFB383A28340815181840F951F8A175C
:100D00009B0771F48D919C911197840F951F02960A
:100D10009183808312968D919C9113979383828304
:100D20002115310529F4F093B001E093AF013EC0E5
:100D3000D9011396FC93EE9312974D915D91A40FF8
:100D4000B51FEA17FB0779F480819181840F951F05
:100D50000296D90111969C938E938281938113966A
:100D60009C938E931297E0E0F0E08A819B8100973C
:100D700019F0FE01EC01F9CFCE01029628813981EC
:100D8000820F931F2091AD013091AE0128173907D2
:100D900069F4309729F41092B0011092AF0102C0AB
:100DA00013821282D093AE01C093AD01DF91CF9137
:060DB0000895F894FFCF46
:100DB6000000B101200000000000B1027A028402A6
:080DC6001F04F6048102830200
:00000001FF
