:1000000035C0000058C0000056C0000054C00000B9
:1000100052C0000050C000004EC000004CC00000A4
:100020004AC0000048C0000046C0000044C00000B4
:1000300042C0000040C000003EC000003CC00000C4
:10004000DBC0000038C0000036C0000034C0000033
:1000500032C0000030C000002EC000002CC00000E4
:100060002AC0000028C00000EB006C0211241FBE53
:10007000CFEFD8E0DEBFCDBF11E0A0E0B1E0E4EC0F
:10008000FDE002C005900D92A831B107D9F721E03B
:10009000A8E1B1E001C01D92A33BB207E1F710E077
:1000A000CCE6D0E003C02297FE015FD5C836D10769
:1000B000D1F797D085C6A4CF08950F931F93CF9300
:1000C000DF9300D01F92CDB7DEB7198284E68A8312
:1000D0008B836091610170916201AE014F5F5F4F50
:1000E00088E191E0E7D2198282E38A838B83809151
:1000F000610190916201059606E010E0B801CED44E
:10010000AE014F5F5F4FBC0188E191E0D3D219820D
:1001100089E18A838B8380916101909162010496C9
:10012000B801BCD4AE014F5F5F4FBC0188E191E0E4
:10013000C1D219828AE08A838B8380916101909178
:1001400062010396B801AAD4AE014F5F5F4FBC01B4
:1001500088E191E0AFD2198285E08A838B83809118
:100160006101909162010296B80198D4AE014F5F8F
:100170005F4FBC0188E191E09DD219821A821B82F7
:1001800080916101909162010196B80187D4AE011E
:100190004F5F5F4FBC0188E191E08CD260915A01C2
:1001A00088E191E05DD180916101909162010196B9
:1001B000B80174D4909362018093610164E670E0A9
:1001C00080E090E086D00F900F900F90DF91CF915C
:1001D0001F910F91089566E070E088E191E016C2EA
:1001E0000895A7D0FDDF68DFC0E0D0E066DF20978C
:1001F000E9F30E940000FACF1F920F920FB60F9200
:1002000011242F933F938F939F93AF93BF9380912C
:10021000640190916501A0916601B09167013091F0
:10022000630123E0230F2D3720F40196A11DB11D9A
:1002300005C026E8230F0296A11DB11D209363017E
:100240008093640190936501A0936601B093670168
:100250008091680190916901A0916A01B0916B0150
:100260000196A11DB11D8093680190936901A0932F
:100270006A01B0936B01BF91AF919F918F913F91B4
:100280002F910F900FBE0F901F9018953FB7F894C5
:100290008091680190916901A0916A01B0916B0110
:1002A00026B5A89B05C02F3F19F00196A11DB11DD1
:1002B0003FBF6627782F892F9A2F620F711D811DEE
:1002C000911D42E0660F771F881F991F4A95D1F74D
:1002D0000895CF92DF92EF92FF92CF93DF936B015D
:1002E0007C01D4DFEB01C114D104E104F10479F005
:1002F0005BD0CCDF6C1B7D0B683E7340A0F381E0CC
:10030000C81AD108E108F108C851DC4FECCFDF91E1
:10031000CF91FF90EF90DF90CF90089501970097D5
:1003200039F0880F991F880F991F02970197F1F7ED
:100330000895789484B5826084BD84B5816084BD5D
:1003400085B5826085BD85B5816085BDEEE6F0E04E
:10035000808181608083E1E8F0E0108280818260AA
:100360008083808181608083E0E8F0E0808181602B
:100370008083E1EBF0E0808184608083E0EBF0E05B
:10038000808181608083EAE7F0E0808184608083FF
:1003900080818260808380818160808380818068A9
:1003A00080831092C10008950895FC01E05CFF4F26
:1003B00028E030E03183208332962FEF208340E421
:1003C00050E060E08CC0CF92DF92EF92FF920F93EB
:1003D0001F93CF93DF936C01EB01101611061CF0F5
:1003E000890120E030E0F601E05CFF4FE080F18021
:1003F000B601E0E0F0E0EE15FF055CF4685F7F4FCA
:10040000CB010897DC018D919C91009729F03196E2
:10041000F2CF80E090E01BC0EF3FBFEFFB07B9F0E9
:1004200083E0EE0FFF1F8A95E1F7EC0DFD1DD183F0
:10043000C083538342832683378315830483E881F3
:10044000F9810190F081E02DCE010995CE01DF9177
:10045000CF911F910F91FF90EF90DF90CF90089573
:10046000DF92EF92FF920F931F93CF93DF93D62EDD
:10047000EC0100E010E07C0180E4E80EF11CF701E3
:100480008081918108171907FCF488819981009770
:10049000D9F0DC012D913C914C815D81AE81BF8111
:1004A000FD01EE0FFF1FEA0FFB1F6A817B816E0FBC
:1004B0007F1FD9011896ED91FC9119972D2D099563
:1004C0000F5F1F4F2896DBCFDF91CF911F910F91C8
:1004D000FF90EF90DF9008958CE691E066CFDC010D
:1004E00040FF03C001C06D936D934250E0F7504050
:1004F000D0F70895DC01ED91FC910190F081E02DA1
:10050000099481E008950895CF93DF9300D01F925E
:10051000CDB7DEB7AB01DC01ED91FC910680F78130
:10052000E02D19821A821B8220E0BE016F5F7F4F8F
:1005300009950F900F900F90DF91CF9108950F9331
:100540008BB900140014001447FF6BB90014001499
:10055000001400146BB9001402E00A95F1F70F9132
:100560000895549A20E1FC0122832BE230E0348389
:10057000238308958BB900140014001447FF6BB94E
:1005800000140014001400146BB9001400140014BB
:100590000014001408958BB900140014001446FFD1
:1005A0006BB900140014001400146BB9001400148B
:1005B00008958BB900140014001445FF6BB90014A2
:1005C0000014001400146BB9001408950F938BB934
:1005D00000140014001445FF6BB90014001400143B
:1005E00000146BB902E00A95F1F70F9108958BB9E9
:1005F00000140014001447FF6BB900140014001419
:1006000000146BB90014001400140895CF92DF9207
:10061000EF92FF920F931F93CF93DF93EC018B0127
:10062000C4DEFE01ED5BFF4F84E090E091838083A8
:100630006E0185E4C80ED11CD6010D931C930138C0
:10064000BAE21B0730F4C801880F991F800F911F71
:1006500002C08FEF9FEF21D27C01FE01E95BFF4FCB
:1006600091838083F601C080D18089E090E014D22C
:10067000FC0189E0DF011D928A95E9F71582168257
:10068000178210868AE091E09183808300E010E079
:100690009601A701BF01CE0196DECE5BDF4F88E257
:1006A0008883DF91CF911F910F91FF90EF90DF90A2
:1006B000CF900895CF93DF93DA01895B9F4F9B0121
:1006C000220F331F260F371FEC01E881F981E20F5B
:1006D000F31F8C91808311968C91119781831296D0
:1006E0008C918283DF91CF9108950F931F93CF93C5
:1006F000DF93EC01CBDD088119812A813B81601BEE
:10070000710B820B930B623371058105910554F4D3
:1007100022E330E0C901861B970BDF91CF911F9137
:100720000F91FCCDDF91CF911F910F9108958F9282
:100730009F92AF92BF92CF92DF92EF92FF920F9370
:100740001F93CF93DF93862EEA018C01000F111FB8
:10075000080F191F040F151FCBB02C2D2061C22EBE
:10076000DBB03D2D3F7ED32E3BB9B8802B2D362FED
:10077000239F212DB22E7A01E016F10608F058C011
:1007800075E0A72E4B2D6D2D8C2D31DFBB0CAA945F
:10079000C9F700144B2D6D2D8C2DD1DE4B2D6D2DF9
:1007A0008C2DF9DE9980292D382D239F212D922E15
:1007B0004B2D6D2D8C2D0ADFF5E0BF2E492D6D2DB3
:1007C0008C2D15DF990CBA94C9F70014492D6D2DA5
:1007D0008C2DB5DE492D6D2D8C2DDDDEAA802A2DC8
:1007E000382D239F212DA22E492D6D2D8C2DEEDE2F
:1007F000E5E0BE2E4A2D6D2D8C2DF9DEAA0CBA94A3
:10080000C9F700144A2D6D2D8C2DB4DE83E0E80E5F
:10081000F11C4A2D6D2D8C2DBEDEB8802B2D382D70
:10082000239F212DB22E4A2D6D2D8C2DC2DEA4CFFB
:100830001124DF91CF911F910F91FF90EF90DF90E6
:10084000CF90BF90AF909F908F900895AF92BF923E
:10085000CF92DF92EF92FF920F931F93CF93DF938C
:100860001F92CDB7DEB75C017B018A010596298313
:100870003CDFF894A7012981622FC80158DFC0909E
:100880006401D0906501E0906601F090670189E015
:10089000809FB001819F700D1124882777FD80957E
:1008A000982F28EE33E040E050E00BD12C0D3D1D99
:1008B0004E1D5F1D209364013093650140936601D6
:1008C000509367017894E2DCF50165837683878332
:1008D00090870F90DF91CF911F910F91FF90EF9034
:1008E000DF90CF90BF90AF900895AF92BF92CF921C
:1008F000DF92EF92FF920F931F93CF93DF93A62E79
:10090000EA018C01000F111F080F191F040F151F9A
:10091000EBB02E2D2061E22EFBB03F2D3F7EF32E5B
:100920003BB9D8802D2D362F239F212DD22EC017D5
:10093000D10708F056C0B5E0CB2E4D2D6F2D8E2D72
:1009400056DEDD0CCA94C9F700144D2D6F2D8E2D87
:10095000F6DD4D2D6F2D8E2D1EDEB9802B2D3A2DFF
:10096000239F212DB22E4D2D6F2D8E2D2FDE95E044
:10097000D92E4B2D6F2D8E2D3ADEBB0CDA94C9F794
:1009800000144B2D6F2D8E2DDADD4B2D6F2D8E2DFE
:1009900002DECA802C2D3A2D239F212DC22E4B2DF5
:1009A0006F2D8E2D13DE85E0D82E4C2D6F2D8E2DC4
:1009B0001EDECC0CDA94C9F700144C2D6F2D8E2D51
:1009C000D9DD23964C2D6F2D8E2DE5DDD8802D2D74
:1009D0003A2D239F212DD22E4C2D6F2D8E2DE9DD0A
:1009E000A6CF1124DF91CF911F910F91FF90EF902F
:1009F000DF90CF90BF90AF900895AF92BF92CF920B
:100A0000DF92EF92FF920F931F93CF93DF931F928A
:100A1000CDB7DEB75C017B018A010596298365DECF
:100A2000F894A7012981622FC8015FDFC09064019B
:100A3000D0906501E0906601F090670189E0809FA9
:100A4000B001819F700D1124882777FD8095982F24
:100A500028EE33E040E050E034D02C0D3D1D4E1D1B
:100A60005F1D2093640130936501409366015093AC
:100A7000670178940BDCF501658376838783908723
:100A80000F90DF91CF911F910F91FF90EF90DF902A
:100A9000CF90BF90AF9008956CC06BC097FB072EAE
:100AA00016F4009406D077FD08D027D007FC05D0B7
:100AB0003EF4909581959F4F0895709561957F4F75
:100AC0000895052E97FB16F400940FD057FD05D01E
:100AD00028D007FC02D046F408C0509540953095C8
:100AE00021953F4F4F4F5F4F08959095809570959A
:100AF00061957F4F8F4F9F4F0895AA1BBB1B51E1FC
:100B000007C0AA1FBB1FA617B70710F0A61BB70B7D
:100B1000881F991F5A95A9F780959095BC01CD0122
:100B20000895A1E21A2EAA1BBB1BFD010DC0AA1F2E
:100B3000BB1FEE1FFF1FA217B307E407F50720F046
:100B4000A21BB30BE40BF50B661F771F881F991FC1
:100B50001A9469F760957095809590959B01AC010A
:100B6000BD01CF010895EE0FFF1F0590F491E02D18
:100B70000994CF93DF938230910510F482E090E0E6
:100B8000E091B101F091B20120E030E0A0E0B0E0EE
:100B9000309739F14081518148175907B8F048170B
:100BA000590771F482819381109729F013969C93D1
:100BB0008E9312972CC09093B2018093B10127C0FD
:100BC0002115310531F04217530718F0A901DB0157
:100BD00001C0EF019A01BD01DF010280F381E02D28
:100BE000D7CF21153105F9F0281B390B24303105F9
:100BF00080F48A819B816115710521F0FB0193834B
:100C0000828304C09093B2018093B101FE013296B9
:100C100044C0FE01E20FF31F8193919322503109EA
:100C2000398328833AC02091AF013091B001232B42
:100C300041F420910201309103013093B0012093DF
:100C4000AF0120910001309101012115310541F4DE
:100C50002DB73EB74091040150910501241B350B7F
:100C6000E091AF01F091B001E217F307A0F42E1B61
:100C70003F0B2817390778F0AC014E5F5F4F241700
:100C8000350748F04E0F5F1F5093B0014093AF01FE
:100C90008193919302C0E0E0F0E0CF01DF91CF912A
:100CA0000895CF93DF93009709F487C0FC01329732
:100CB00013821282C091B101D091B201209781F4C8
:100CC00020813181280F391F8091AF019091B001AF
:100CD0008217930779F5F093B001E093AF016DC0EF
:100CE000DE0120E030E0AE17BF0750F412964D91C0
:100CF0005C9113979D014115510509F1DA01F3CF7C
:100D0000B383A28340815181840F951F8A179B076B
:100D100071F48D919C911197840F951F0296918388
:100D2000808312968D919C911397938382832115D2
:100D3000310529F4F093B201E093B1013EC0D9012D
:100D40001396FC93EE9312974D915D91A40FB51FEE
:100D5000EA17FB0779F480819181840F951F029631
:100D6000D90111969C938E938281938113969C93C3
:100D70008E931297E0E0F0E08A819B81009719F052
:100D8000FE01EC01F9CFCE01029628813981820F54
:100D9000931F2091AF013091B0012817390769F4F2
:100DA000309729F41092B2011092B10102C013825F
:100DB0001282D093B001C093AF01DF91CF9108951B
:040DC000F894FFCFD5
:100DC4000000B301200000000000B1027A02840296
:080DD4002604FD0481028302E4
:00000001FF
