:1000000035C0000058C0000056C0000054C00000B9
:1000100052C0000050C000004EC000004CC00000A4
:100020004AC0000048C0000046C0000044C00000B4
:1000300042C0000040C000003EC000003CC00000C4
:10004000D9C0000038C0000036C0000034C0000035
:1000500032C0000030C000002EC000002CC00000E4
:100060002AC0000028C00000EB006A0211241FBE55
:10007000CFEFD8E0DEBFCDBF11E0A0E0B1E0ECE50E
:10008000FDE002C005900D92A831B107D9F721E03B
:10009000A8E1B1E001C01D92AF3BB207E1F710E06B
:1000A000CCE6D0E003C02297FE012BD5C836D1079D
:1000B000D1F795D051C6A4CF08950F931F93CF9336
:1000C000DF9300D01F92CDB7DEB7198284E68A8312
:1000D0008B8360916D0170916E01AE014F5F5F4F38
:1000E00088E191E0BBD2198282E38A838B8380917D
:1000F0006D0190916E01059606E010E0B8019AD46A
:10010000AE014F5F5F4FBC0188E191E0A7D2198239
:1001100089E18A838B8380916D0190916E010496B1
:10012000B80188D4AE014F5F5F4FBC0188E191E018
:1001300095D219828AE08A838B8380916D01909198
:100140006E010396B80176D4AE014F5F5F4FBC01DC
:1001500088E191E083D2198285E08A838B83809144
:100160006D0190916E010296B80164D4AE014F5FAB
:100170005F4FBC0188E191E071D219821A821B8223
:1001800080916D0190916E010196B80153D4AE013A
:100190004F5F5F4FBC0188E191E060D260915A01EE
:1001A00088E191E05BD180916D0190916E010196A3
:1001B000B80140D490936E0180936D0164E670E0C5
:1001C00080E090E084D00F900F900F90DF91CF915E
:1001D0001F910F91089588E191E016C20895A7D06C
:1001E000FDDF6ADFC0E0D0E068DF2097E9F30E941E
:1001F0000000FACF1F920F920FB60F9211242F9387
:100200003F938F939F93AF93BF9380917001909191
:100210007101A0917201B091730130916F0123E0DF
:10022000230F2D3720F40196A11DB11D05C026E82E
:10023000230F0296A11DB11D20936F0180937001C1
:1002400090937101A0937201B09373018091740136
:1002500090917501A0917601B09177010196A11D51
:10026000B11D8093740190937501A0937601B093B2
:100270007701BF91AF919F918F913F912F910F90F7
:100280000FBE0F901F9018953FB7F894809174019E
:1002900090917501A0917601B091770126B5A89B48
:1002A00005C02F3F19F00196A11DB11D3FBF662764
:1002B000782F892F9A2F620F711D811D911D42E0A9
:1002C000660F771F881F991F4A95D1F70895CF921F
:1002D000DF92EF92FF92CF93DF936B017C01D4DF2B
:1002E000EB01C114D104E104F10479F05BD0CCDF5F
:1002F0006C1B7D0B683E7340A0F381E0C81AD108E7
:10030000E108F108C851DC4FECCFDF91CF91FF90AD
:10031000EF90DF90CF9008950197009739F0880F04
:10032000991F880F991F02970197F1F70895789404
:1003300084B5826084BD84B5816084BD85B58260EA
:1003400085BD85B5816085BDEEE6F0E08081816088
:100350008083E1E8F0E01082808182608083808188
:1003600081608083E0E8F0E0808181608083E1EB60
:10037000F0E0808184608083E0EBF0E08081816048
:100380008083EAE7F0E080818460808380818260FE
:1003900080838081816080838081806880831092E7
:1003A000C10008950895FC01E05CFF4F28E030E0B3
:1003B0003183208332962FEF208340E450E060E0C9
:1003C0008CC0CF92DF92EF92FF920F931F93CF9347
:1003D000DF936C01EB01101611061CF0890120E07F
:1003E00030E0F601E05CFF4FE080F180B601E0E034
:1003F000F0E0EE15FF055CF4685F7F4FCB010897D6
:10040000DC018D919C91009729F03196F2CF80E02C
:1004100090E01BC0EF3FBFEFFB07B9F083E0EE0FAA
:10042000FF1F8A95E1F7EC0DFD1DD183C083538337
:1004300042832683378315830483E881F981019001
:10044000F081E02DCE010995CE01DF91CF911F9172
:100450000F91FF90EF90DF90CF900895DF92EF9291
:10046000FF920F931F93CF93DF93D62EEC0100E002
:1004700010E07C0180E4E80EF11CF701808191819D
:1004800008171907FCF4888199810097D9F0DC01DD
:100490002D913C914C815D81AE81BF81FD01EE0FBC
:1004A000FF1FEA0FFB1F6A817B816E0F7F1FD9013F
:1004B0001896ED91FC9119972D2D09950F5F1F4FFF
:1004C0002896DBCFDF91CF911F910F91FF90EF9096
:1004D000DF90089588E791E066CFDC0140FF03C01C
:1004E00001C06D936D934250E0F75040D0F70895EE
:1004F000DC01ED91FC910190F081E02D099481E007
:1005000008950895CF93DF9300D01F92CDB7DEB743
:10051000AB01DC01ED91FC910680F781E02D1982A1
:100520001A821B8220E0BE016F5F7F4F09950F90FA
:100530000F900F90DF91CF9108958BB900140014A4
:10054000001446FF6BB900140014001400146BB9BA
:10055000001400140895549A20E1FC0122832BE238
:1005600030E03483238308958BB900140014001401
:1005700047FF6BB900140014001400146BB9001489
:10058000001400140014001408950F938BB9001484
:100590000014001445FF6BB900140014001400147B
:1005A0006BB902E00A95F1F70F9108958BB9001429
:1005B0000014001447FF6BB9001400140014001459
:1005C0006BB900140014001408950F938BB9001434
:1005D0000014001447FF6BB9001400140014001439
:1005E0006BB9001402E00A95F1F70F9108958BB9E9
:1005F00000140014001445FF6BB90014001400141B
:1006000000146BB9001408950F931F93CF93DF93D9
:10061000EC01C9DE89E090E00CD2FC0189E0DF0149
:100620001D928A95E9F715821682178210868AE054
:1006300091E091838083AE014D5B5F4F00E010E05D
:1006400026E030E0BF01CE01BCDECE5BDF4F88E2AA
:100650008883DF91CF911F910F910895DA01FB01FB
:10066000EE0FFF1FE60FF71FED5BFF4FE80FF91FBF
:100670008C91808311968C911197818312968C9125
:10068000828308950F931F93CF93DF93EC01FCDDDA
:10069000088119812A813B81601B710B820B930BAE
:1006A000623371058105910554F422E330E0C901FC
:1006B000861B970BDF91CF911F910F912DCEDF916C
:1006C000CF911F910F9108958F929F92AF92BF92F9
:1006D000CF92DF92EF92FF920F931F93CF93DF930E
:1006E000862EEA018C01000F111F080F191F040F3D
:1006F000151FCBB02C2D2061C22EDBB03D2D3F7ECF
:10070000D32E3BB9B8802B2D362F239F212DB22E0F
:100710007A01E016F10608F058C055E0A52E4B2DE1
:100720006D2D8C2D43DFBB0CAA94C9F700144B2D03
:100730006D2D8C2D4ADF4B2D6D2D8C2DFEDE99807D
:10074000292D382D239F212D922E4B2D6D2D8C2D53
:100750001CDF75E0B72E492D6D2D8C2D27DF990CF0
:10076000BA94C9F70014492D6D2D8C2D2EDF492D1B
:100770006D2D8C2DE2DEAA802A2D382D239F212D70
:10078000A22E492D6D2D8C2D00DF65E0B62E4A2D51
:100790006D2D8C2D0BDFAA0CBA94C9F700144A2DCD
:1007A0006D2D8C2DE1DE83E0E80EF11C4A2D6D2DC0
:1007B0008C2DC3DEB8802B2D382D239F212DB22EFA
:1007C0004A2D6D2D8C2D13DFA4CF1124DF91CF91F5
:1007D0001F910F91FF90EF90DF90CF90BF90AF905F
:1007E0009F908F900895AF92BF92CF92DF92EF9239
:1007F000FF920F931F93CF93DF931F92CDB7DEB776
:100800005C017B018A01059629833CDFF894A701EE
:100810002981622FC80158DFC0907001D09071010A
:10082000E0907201F090730189E0809FB001819F98
:10083000700D1124882777FD8095982F28EE33E0DE
:1008400040E050E00AD12C0D3D1D4E1D5F1D209350
:100850007001309371014093720150937301789449
:1008600013DDF50165837683878390870F90DF9191
:10087000CF911F910F91FF90EF90DF90CF90BF909D
:10088000AF900895AF92BF92CF92DF92EF92FF9216
:100890000F931F93CF93DF93A62EEA018C01000FD5
:1008A000111F080F191F040F151FEBB02E2D20610B
:1008B000E22EFBB03F2D3F7EF32E3BB9D8802D2D8D
:1008C000362F239F212DD22EC017D10708F056C0F6
:1008D000F5E0CF2E4D2D6F2D8E2D68DEDD0CCA94E8
:1008E000C9F700144D2D6F2D8E2D6FDE4D2D6F2D00
:1008F0008E2D23DEB9802B2D3A2D239F212DB22E54
:100900004D2D6F2D8E2D41DEB5E0DB2E4B2D6F2D45
:100910008E2D4CDEBB0CDA94C9F700144B2D6F2DD5
:100920008E2D53DE4B2D6F2D8E2D07DECA802C2D84
:100930003A2D239F212DC22E4B2D6F2D8E2D25DE7E
:10094000A5E0DA2E4C2D6F2D8E2D30DECC0CDA94F6
:10095000C9F700144C2D6F2D8E2D06DE23964C2DDD
:100960006F2D8E2DEADDD8802D2D3A2D239F212D40
:10097000D22E4C2D6F2D8E2D3ADEA6CF1124DF9175
:10098000CF911F910F91FF90EF90DF90CF90BF908C
:10099000AF900895AF92BF92CF92DF92EF92FF9205
:1009A0000F931F93CF93DF931F92CDB7DEB75C01F8
:1009B0007B018A010596298365DEF894A7012981C8
:1009C000622FC8015FDFC0907001D0907101E0908C
:1009D0007201F090730189E0809FB001819F700DDA
:1009E0001124882777FD8095982F28EE33E040E08A
:1009F00050E033D02C0D3D1D4E1D5F1D2093700126
:100A000030937101409372015093730178943CDCF0
:100A1000F50165837683878390870F90DF91CF916F
:100A20001F910F91FF90EF90DF90CF90BF90AF900C
:100A300008956BC097FB072E16F4009406D077FD3F
:100A400008D027D007FC05D03EF4909581959F4FA4
:100A50000895709561957F4F0895052E97FB16F4C4
:100A600000940FD057FD05D028D007FC02D046F4E3
:100A700008C050954095309521953F4F4F4F5F4F9F
:100A8000089590958095709561957F4F8F4F9F4FFA
:100A90000895AA1BBB1B51E107C0AA1FBB1FA617C5
:100AA000B70710F0A61BB70B881F991F5A95A9F717
:100AB00080959095BC01CD010895A1E21A2EAA1B44
:100AC000BB1BFD010DC0AA1FBB1FEE1FFF1FA217FE
:100AD000B307E407F50720F0A21BB30BE40BF50BFB
:100AE000661F771F881F991F1A9469F76095709584
:100AF000809590959B01AC01BD01CF010895EE0F4B
:100B0000FF1F0590F491E02D0994CF93DF9382307D
:100B1000910510F482E090E0E091BD01F091BE01FA
:100B200020E030E0A0E0B0E0309739F14081518121
:100B300048175907B8F04817590771F48281938113
:100B4000109729F013969C938E9312972CC0909334
:100B5000BE018093BD0127C02115310531F0421738
:100B6000530718F0A901DB0101C0EF019A01BD0193
:100B7000DF010280F381E02DD7CF21153105F9F097
:100B8000281B390B2430310580F48A819B81611543
:100B9000710521F0FB019383828304C09093BE0111
:100BA0008093BD01FE01329644C0FE01E20FF31FA7
:100BB0008193919322503109398328833AC020913F
:100BC000BB013091BC01232B41F4209102013091F3
:100BD00003013093BC012093BB01209100013091AF
:100BE00001012115310541F42DB73EB740910401B3
:100BF00050910501241B350BE091BB01F091BC0124
:100C0000E217F307A0F42E1B3F0B2817390778F0E3
:100C1000AC014E5F5F4F2417350748F04E0F5F1F42
:100C20005093BC014093BB018193919302C0E0E0DB
:100C3000F0E0CF01DF91CF910895CF93DF9300973C
:100C400009F487C0FC01329713821282C091BD0162
:100C5000D091BE01209781F420813181280F391F66
:100C60008091BB019091BC018217930779F5F093B5
:100C7000BC01E093BB016DC0DE0120E030E0AE17A7
:100C8000BF0750F412964D915C9113979D01411549
:100C9000510509F1DA01F3CFB383A2834081518179
:100CA000840F951F8A179B0771F48D919C91119762
:100CB000840F951F02969183808312968D919C914B
:100CC0001397938382832115310529F4F093BE0194
:100CD000E093BD013EC0D9011396FC93EE931297A9
:100CE0004D915D91A40FB51FEA17FB0779F4808140
:100CF0009181840F951F0296D90111969C938E9332
:100D00008281938113969C938E931297E0E0F0E09A
:100D10008A819B81009719F0FE01EC01F9CFCE0189
:100D2000029628813981820F931F2091BB01309157
:100D3000BC012817390769F4309729F41092BE01D5
:100D40001092BD0102C013821282D093BC01C093E5
:0C0D5000BB01DF91CF910895F894FFCF14
:100D5C000000BF01200000000000AB0278028202FC
:080D6C00F303CA047F028102B7
:00000001FF
